{
    "address": "0xcBe6e816D1EfD2678a95403a2EB79B0C7c8cf0D9",
    "abi": [
        {
            "inputs": [],
            "stateMutability": "nonpayable",
            "type": "constructor"
        },
        {
            "inputs": [
                {
                    "internalType": "address",
                    "name": "target",
                    "type": "address"
                }
            ],
            "name": "AddressEmptyCode",
            "type": "error"
        },
        {
            "inputs": [],
            "name": "CallerIsNotAdmin",
            "type": "error"
        },
        {
            "inputs": [],
            "name": "CallerIsNotPoolingManager",
            "type": "error"
        },
        {
            "inputs": [
                {
                    "internalType": "address",
                    "name": "implementation",
                    "type": "address"
                }
            ],
            "name": "ERC1967InvalidImplementation",
            "type": "error"
        },
        {
            "inputs": [],
            "name": "ERC1967NonPayable",
            "type": "error"
        },
        {
            "inputs": [],
            "name": "FailedInnerCall",
            "type": "error"
        },
        {
            "inputs": [],
            "name": "InvalidInitialization",
            "type": "error"
        },
        {
            "inputs": [],
            "name": "InvalidUnderlyingToken",
            "type": "error"
        },
        {
            "inputs": [],
            "name": "NotInitializing",
            "type": "error"
        },
        {
            "inputs": [],
            "name": "UUPSUnauthorizedCallContext",
            "type": "error"
        },
        {
            "inputs": [
                {
                    "internalType": "bytes32",
                    "name": "slot",
                    "type": "bytes32"
                }
            ],
            "name": "UUPSUnsupportedProxiableUUID",
            "type": "error"
        },
        {
            "anonymous": false,
            "inputs": [
                {
                    "indexed": false,
                    "internalType": "uint64",
                    "name": "version",
                    "type": "uint64"
                }
            ],
            "name": "Initialized",
            "type": "event"
        },
        {
            "anonymous": false,
            "inputs": [
                {
                    "indexed": true,
                    "internalType": "address",
                    "name": "implementation",
                    "type": "address"
                }
            ],
            "name": "Upgraded",
            "type": "event"
        },
        {
            "inputs": [],
            "name": "UPGRADE_INTERFACE_VERSION",
            "outputs": [
                {
                    "internalType": "string",
                    "name": "",
                    "type": "string"
                }
            ],
            "stateMutability": "view",
            "type": "function"
        },
        {
            "inputs": [],
            "name": "addressToApprove",
            "outputs": [
                {
                    "internalType": "address",
                    "name": "",
                    "type": "address"
                }
            ],
            "stateMutability": "view",
            "type": "function"
        },
        {
            "inputs": [],
            "name": "bridge",
            "outputs": [
                {
                    "internalType": "address",
                    "name": "",
                    "type": "address"
                }
            ],
            "stateMutability": "view",
            "type": "function"
        },
        {
            "inputs": [
                {
                    "internalType": "uint256",
                    "name": "_amount",
                    "type": "uint256"
                }
            ],
            "name": "depositCalldata",
            "outputs": [
                {
                    "internalType": "address",
                    "name": "target",
                    "type": "address"
                },
                {
                    "internalType": "bytes",
                    "name": "cdata",
                    "type": "bytes"
                }
            ],
            "stateMutability": "view",
            "type": "function"
        },
        {
            "inputs": [
                {
                    "internalType": "address",
                    "name": "_poolingManager",
                    "type": "address"
                },
                {
                    "internalType": "address",
                    "name": "_underlyingToken",
                    "type": "address"
                },
                {
                    "internalType": "address",
                    "name": "_yieldToken",
                    "type": "address"
                },
                {
                    "internalType": "address",
                    "name": "_bridge",
                    "type": "address"
                }
            ],
            "name": "initialize",
            "outputs": [],
            "stateMutability": "nonpayable",
            "type": "function"
        },
        {
            "inputs": [],
            "name": "nav",
            "outputs": [
                {
                    "internalType": "uint256",
                    "name": "",
                    "type": "uint256"
                }
            ],
            "stateMutability": "view",
            "type": "function"
        },
        {
            "inputs": [],
            "name": "poolingManager",
            "outputs": [
                {
                    "internalType": "address",
                    "name": "",
                    "type": "address"
                }
            ],
            "stateMutability": "view",
            "type": "function"
        },
        {
            "inputs": [],
            "name": "proxiableUUID",
            "outputs": [
                {
                    "internalType": "bytes32",
                    "name": "",
                    "type": "bytes32"
                }
            ],
            "stateMutability": "view",
            "type": "function"
        },
        {
            "inputs": [
                {
                    "internalType": "uint256",
                    "name": "_amount",
                    "type": "uint256"
                }
            ],
            "name": "underlyingToYield",
            "outputs": [
                {
                    "internalType": "uint256",
                    "name": "",
                    "type": "uint256"
                }
            ],
            "stateMutability": "view",
            "type": "function"
        },
        {
            "inputs": [],
            "name": "underlyingToken",
            "outputs": [
                {
                    "internalType": "address",
                    "name": "",
                    "type": "address"
                }
            ],
            "stateMutability": "view",
            "type": "function"
        },
        {
            "inputs": [
                {
                    "internalType": "address",
                    "name": "newImplementation",
                    "type": "address"
                },
                {
                    "internalType": "bytes",
                    "name": "data",
                    "type": "bytes"
                }
            ],
            "name": "upgradeToAndCall",
            "outputs": [],
            "stateMutability": "payable",
            "type": "function"
        },
        {
            "inputs": [
                {
                    "internalType": "uint256",
                    "name": "_amount",
                    "type": "uint256"
                }
            ],
            "name": "withdraw",
            "outputs": [
                {
                    "internalType": "uint256",
                    "name": "",
                    "type": "uint256"
                }
            ],
            "stateMutability": "nonpayable",
            "type": "function"
        },
        {
            "inputs": [],
            "name": "yieldBalance",
            "outputs": [
                {
                    "internalType": "uint256",
                    "name": "",
                    "type": "uint256"
                }
            ],
            "stateMutability": "view",
            "type": "function"
        },
        {
            "inputs": [
                {
                    "internalType": "uint256",
                    "name": "_amount",
                    "type": "uint256"
                }
            ],
            "name": "yieldToUnderlying",
            "outputs": [
                {
                    "internalType": "uint256",
                    "name": "",
                    "type": "uint256"
                }
            ],
            "stateMutability": "view",
            "type": "function"
        },
        {
            "inputs": [],
            "name": "yieldToken",
            "outputs": [
                {
                    "internalType": "address",
                    "name": "",
                    "type": "address"
                }
            ],
            "stateMutability": "view",
            "type": "function"
        }
    ],
    "transactionHash": "0x3ab74e5bd741093c0ea3ae40048b06d3a18be2d16ed98c792ee167557e05b716",
    "args": [],
    "numDeployments": 1,
    "solcInputHash": "adad486fb0c8a43bec398991991721b9",
    "bytecode": "0x60a06040523060805234801561001457600080fd5b507ff0c57e16840df040f15088dc2f81fe391c3923bec73e23a9662efc9c229c6a00805468010000000000000000810460ff1615906001600160401b031660008115801561005f5750825b90506000826001600160401b0316600114801561007b5750303b155b905081158015610089575080155b156100a75760405163f92ee8a960e01b815260040160405180910390fd5b84546001600160401b031916600117855583156100d557845460ff60401b1916680100000000000000001785555b831561011b57845460ff60401b19168555604051600181527fc7f505b2f371ae2175ee4913f4499e1f2633a7b5936321eed1cdaeb6115181d29060200160405180910390a15b5050505050608051610f1a610149600039600081816107260152818161074f015261089f0152610f1a6000f3fe6080604052600436106100e85760003560e01c8063ad3cb1cc1161008a578063dfa10b3311610059578063dfa10b3314610264578063e78cea9214610284578063f1ea61e5146102a4578063f8c8765e1461031d57600080fd5b8063ad3cb1cc146101dc578063c1590cd71461021a578063cf062f0d1461022f578063d7f708031461024457600080fd5b80634f1ef286116100c65780634f1ef2861461017257806352d1902d1461018757806376d5de851461019c57806383ce2b34146101bc57600080fd5b806321a92c44146100ed5780632495a599146101245780632e1a7d4d14610144575b600080fd5b3480156100f957600080fd5b506002546001600160a01b03165b6040516001600160a01b0390911681526020015b60405180910390f35b34801561013057600080fd5b50600154610107906001600160a01b031681565b34801561015057600080fd5b5061016461015f366004610c65565b61033d565b60405190815260200161011b565b610185610180366004610ca9565b610378565b005b34801561019357600080fd5b50610164610397565b3480156101a857600080fd5b50600254610107906001600160a01b031681565b3480156101c857600080fd5b506101646101d7366004610c65565b6103b4565b3480156101e857600080fd5b5061020d604051806040016040528060058152602001640352e302e360dc1b81525081565b60405161011b9190610dbd565b34801561022657600080fd5b506101646103bf565b34801561023b57600080fd5b506101646103ce565b34801561025057600080fd5b50600054610107906001600160a01b031681565b34801561027057600080fd5b5061016461027f366004610c65565b6103d8565b34801561029057600080fd5b50600354610107906001600160a01b031681565b3480156102b057600080fd5b5061030f6102bf366004610c65565b6002546040805160248101939093523060448085019190915281518085039091018152606490930190526020820180516001600160e01b0316636e553f6560e01b1790526001600160a01b031691565b60405161011b929190610dd0565b34801561032957600080fd5b50610185610338366004610df4565b6103e3565b600080546001600160a01b0316331461036957604051639518d2f560e01b815260040160405180910390fd5b610372826105ca565b92915050565b61038061071b565b610389826107c2565b61039382826107cd565b5050565b60006103a1610894565b50600080516020610ec583398151915290565b6000610372826108dd565b60006103c961094c565b905090565b60006103c961095e565b6000610372826109cb565b7ff0c57e16840df040f15088dc2f81fe391c3923bec73e23a9662efc9c229c6a008054600160401b810460ff16159067ffffffffffffffff166000811580156104295750825b905060008267ffffffffffffffff1660011480156104465750303b155b905081158015610454575080155b156104725760405163f92ee8a960e01b815260040160405180910390fd5b845467ffffffffffffffff19166001178555831561049c57845460ff60401b1916600160401b1785555b876001600160a01b0316876001600160a01b031663f4b9fa756040518163ffffffff1660e01b8152600401602060405180830381865afa1580156104e4573d6000803e3d6000fd5b505050506040513d601f19601f820116820180604052508101906105089190610e50565b6001600160a01b03161461052f576040516317dc37cb60e11b815260040160405180910390fd5b600080546001600160a01b03199081166001600160a01b03808d1691909117909255600180548216838c16179055600280548216838b161790556003805490911691881691909117905583156105bf57845460ff60401b19168555604051600181527fc7f505b2f371ae2175ee4913f4499e1f2633a7b5936321eed1cdaeb6115181d29060200160405180910390a15b505050505050505050565b600254604051630a28a47760e01b81526004810183905260009182916001600160a01b0390911690630a28a47790602401602060405180830381865afa158015610618573d6000803e3d6000fd5b505050506040513d601f19601f8201168201806040525081019061063c9190610e6d565b9050600061064861095e565b9050808211156106da57600254600054604051635d043b2960e11b8152600481018490526001600160a01b03918216602482015230604482015291169063ba087652906064015b6020604051808303816000875af11580156106ae573d6000803e3d6000fd5b505050506040513d601f19601f820116820180604052508101906106d29190610e6d565b949350505050565b600254600054604051632d182be560e21b8152600481018790526001600160a01b03918216602482015230604482015291169063b460af949060640161068f565b306001600160a01b037f00000000000000000000000000000000000000000000000000000000000000001614806107a257507f00000000000000000000000000000000000000000000000000000000000000006001600160a01b0316610796600080516020610ec5833981519152546001600160a01b031690565b6001600160a01b031614155b156107c05760405163703e46dd60e11b815260040160405180910390fd5b565b6107ca6109fd565b50565b816001600160a01b03166352d1902d6040518163ffffffff1660e01b8152600401602060405180830381865afa925050508015610827575060408051601f3d908101601f1916820190925261082491810190610e6d565b60015b61085457604051634c9c8ce360e01b81526001600160a01b03831660048201526024015b60405180910390fd5b600080516020610ec5833981519152811461088557604051632a87526960e21b81526004810182905260240161084b565b61088f8383610a8d565b505050565b306001600160a01b037f000000000000000000000000000000000000000000000000000000000000000016146107c05760405163703e46dd60e11b815260040160405180910390fd5b60025460405163ef8b30f760e01b8152600481018390526000916001600160a01b03169063ef8b30f7906024015b602060405180830381865afa158015610928573d6000803e3d6000fd5b505050506040513d601f19601f820116820180604052508101906103729190610e6d565b60006103c961095961095e565b6109cb565b6002546040516370a0823160e01b81523060048201526000916001600160a01b0316906370a0823190602401602060405180830381865afa1580156109a7573d6000803e3d6000fd5b505050506040513d601f19601f820116820180604052508101906103c99190610e6d565b60025460405163266d6a8360e11b8152600481018390526000916001600160a01b031690634cdad5069060240161090b565b60008054604051632474521560e21b815260048101929092523360248301526001600160a01b0316906391d1485490604401602060405180830381865afa158015610a4c573d6000803e3d6000fd5b505050506040513d601f19601f82011682018060405250810190610a709190610e86565b6107c057604051638dfa73db60e01b815260040160405180910390fd5b610a9682610ae3565b6040516001600160a01b038316907fbc7cd75a20ee27fd9adebab32041f755214dbc6bffa90cc0225b39da2e5c2d3b90600090a2805115610adb5761088f8282610b48565b610393610bbe565b806001600160a01b03163b600003610b1957604051634c9c8ce360e01b81526001600160a01b038216600482015260240161084b565b600080516020610ec583398151915280546001600160a01b0319166001600160a01b0392909216919091179055565b6060600080846001600160a01b031684604051610b659190610ea8565b600060405180830381855af49150503d8060008114610ba0576040519150601f19603f3d011682016040523d82523d6000602084013e610ba5565b606091505b5091509150610bb5858383610bdd565b95945050505050565b34156107c05760405163b398979f60e01b815260040160405180910390fd5b606082610bf257610bed82610c3c565b610c35565b8151158015610c0957506001600160a01b0384163b155b15610c3257604051639996b31560e01b81526001600160a01b038516600482015260240161084b565b50805b9392505050565b805115610c4c5780518082602001fd5b604051630a12f52160e11b815260040160405180910390fd5b600060208284031215610c7757600080fd5b5035919050565b6001600160a01b03811681146107ca57600080fd5b634e487b7160e01b600052604160045260246000fd5b60008060408385031215610cbc57600080fd5b8235610cc781610c7e565b9150602083013567ffffffffffffffff80821115610ce457600080fd5b818501915085601f830112610cf857600080fd5b813581811115610d0a57610d0a610c93565b604051601f8201601f19908116603f01168101908382118183101715610d3257610d32610c93565b81604052828152886020848701011115610d4b57600080fd5b8260208601602083013760006020848301015280955050505050509250929050565b60005b83811015610d88578181015183820152602001610d70565b50506000910152565b60008151808452610da9816020860160208601610d6d565b601f01601f19169290920160200192915050565b602081526000610c356020830184610d91565b6001600160a01b03831681526040602082018190526000906106d290830184610d91565b60008060008060808587031215610e0a57600080fd5b8435610e1581610c7e565b93506020850135610e2581610c7e565b92506040850135610e3581610c7e565b91506060850135610e4581610c7e565b939692955090935050565b600060208284031215610e6257600080fd5b8151610c3581610c7e565b600060208284031215610e7f57600080fd5b5051919050565b600060208284031215610e9857600080fd5b81518015158114610c3557600080fd5b60008251610eba818460208701610d6d565b919091019291505056fe360894a13ba1a3210667c828492db98dca3e2076cc3735a920a3ca505d382bbca2646970667358221220c0bc5abe22b4f8a8b9671ea8e8ed0cf706ec8c6b9113ae09f74cdc422e7189b464736f6c63430008140033",
    "devdoc": {
        "author": "@nimbora 2024",
        "errors": {
            "AddressEmptyCode(address)": [
                {
                    "details": "There's no code at `target` (it is not a contract)."
                }
            ],
            "ERC1967InvalidImplementation(address)": [
                {
                    "details": "The `implementation` of the proxy is invalid."
                }
            ],
            "ERC1967NonPayable()": [
                {
                    "details": "An upgrade function sees `msg.value > 0` that may be lost."
                }
            ],
            "FailedInnerCall()": [
                {
                    "details": "A call to an address target failed. The target may have reverted."
                }
            ],
            "InvalidInitialization()": [
                {
                    "details": "The contract is already initialized."
                }
            ],
            "NotInitializing()": [
                {
                    "details": "The contract is not initializing."
                }
            ],
            "UUPSUnauthorizedCallContext()": [
                {
                    "details": "The call is from an unauthorized context."
                }
            ],
            "UUPSUnsupportedProxiableUUID(bytes32)": [
                {
                    "details": "The storage `slot` is unsupported as a UUID."
                }
            ]
        },
        "events": {
            "Initialized(uint64)": {
                "details": "Triggered when the contract has been initialized or reinitialized."
            },
            "Upgraded(address)": {
                "details": "Emitted when the implementation is upgraded."
            }
        },
        "kind": "dev",
        "methods": {
            "constructor": {
                "custom:oz-upgrades-unsafe-allow": "constructor"
            },
            "proxiableUUID()": {
                "details": "Implementation of the ERC1822 {proxiableUUID} function. This returns the storage slot used by the implementation. It is used to validate the implementation's compatibility when performing an upgrade. IMPORTANT: A proxy pointing at a proxiable contract should not be considered proxiable itself, because this risks bricking a proxy that upgrades to it, by delegating to itself until out of gas. Thus it is critical that this function revert if invoked through a proxy. This is guaranteed by the `notDelegated` modifier."
            },
            "upgradeToAndCall(address,bytes)": {
                "custom:oz-upgrades-unsafe-allow-reachable": "delegatecall",
                "details": "Upgrade the implementation of the proxy to `newImplementation`, and subsequently execute the function call encoded in `data`. Calls {_authorizeUpgrade}. Emits an {Upgraded} event."
            }
        },
        "title": "Saving Dai",
        "version": 1
    },
    "userdoc": {
        "kind": "user",
        "methods": {},
        "version": 1
    },
    "storageLayout": {
        "storage": [
            {
                "astId": 1828,
                "contract": "contracts/strategies/savingDai/savingDai.sol:SavingDaiStrategy",
                "label": "poolingManager",
                "offset": 0,
                "slot": "0",
                "type": "t_address"
            },
            {
                "astId": 1830,
                "contract": "contracts/strategies/savingDai/savingDai.sol:SavingDaiStrategy",
                "label": "underlyingToken",
                "offset": 0,
                "slot": "1",
                "type": "t_address"
            },
            {
                "astId": 1832,
                "contract": "contracts/strategies/savingDai/savingDai.sol:SavingDaiStrategy",
                "label": "yieldToken",
                "offset": 0,
                "slot": "2",
                "type": "t_address"
            },
            {
                "astId": 1834,
                "contract": "contracts/strategies/savingDai/savingDai.sol:SavingDaiStrategy",
                "label": "bridge",
                "offset": 0,
                "slot": "3",
                "type": "t_address"
            }
        ],
        "types": {
            "t_address": {
                "encoding": "inplace",
                "label": "address",
                "numberOfBytes": "20"
            }
        }
    }
}