{
  "address": "0xa4B2066d4B6A7E7dBDF298babBA3188A0759D3b8",
  "abi": [
    {
      "inputs": [],
      "stateMutability": "nonpayable",
      "type": "constructor"
    },
    {
      "inputs": [],
      "name": "AccessControlBadConfirmation",
      "type": "error"
    },
    {
      "inputs": [
        {
          "internalType": "address",
          "name": "account",
          "type": "address"
        },
        {
          "internalType": "bytes32",
          "name": "neededRole",
          "type": "bytes32"
        }
      ],
      "name": "AccessControlUnauthorizedAccount",
      "type": "error"
    },
    {
      "inputs": [
        {
          "internalType": "address",
          "name": "target",
          "type": "address"
        }
      ],
      "name": "AddressEmptyCode",
      "type": "error"
    },
    {
      "inputs": [
        {
          "internalType": "address",
          "name": "implementation",
          "type": "address"
        }
      ],
      "name": "ERC1967InvalidImplementation",
      "type": "error"
    },
    {
      "inputs": [],
      "name": "ERC1967NonPayable",
      "type": "error"
    },
    {
      "inputs": [],
      "name": "FailedInnerCall",
      "type": "error"
    },
    {
      "inputs": [],
      "name": "InvalidInitialization",
      "type": "error"
    },
    {
      "inputs": [],
      "name": "InvalidPoolingManager",
      "type": "error"
    },
    {
      "inputs": [],
      "name": "NotInitializing",
      "type": "error"
    },
    {
      "inputs": [],
      "name": "UUPSUnauthorizedCallContext",
      "type": "error"
    },
    {
      "inputs": [
        {
          "internalType": "bytes32",
          "name": "slot",
          "type": "bytes32"
        }
      ],
      "name": "UUPSUnsupportedProxiableUUID",
      "type": "error"
    },
    {
      "anonymous": false,
      "inputs": [
        {
          "indexed": false,
          "internalType": "address",
          "name": "bridge",
          "type": "address"
        },
        {
          "indexed": false,
          "internalType": "uint256",
          "name": "amount",
          "type": "uint256"
        },
        {
          "indexed": false,
          "internalType": "uint256",
          "name": "nonce",
          "type": "uint256"
        }
      ],
      "name": "BridgeCancelDepositRequestClaimed",
      "type": "event"
    },
    {
      "anonymous": false,
      "inputs": [
        {
          "indexed": false,
          "internalType": "address",
          "name": "bridge",
          "type": "address"
        },
        {
          "indexed": false,
          "internalType": "uint256",
          "name": "amount",
          "type": "uint256"
        },
        {
          "indexed": false,
          "internalType": "uint256",
          "name": "nonce",
          "type": "uint256"
        }
      ],
      "name": "CancelDepositRequestBridgeSent",
      "type": "event"
    },
    {
      "anonymous": false,
      "inputs": [
        {
          "indexed": false,
          "internalType": "uint64",
          "name": "version",
          "type": "uint64"
        }
      ],
      "name": "Initialized",
      "type": "event"
    },
    {
      "anonymous": false,
      "inputs": [
        {
          "indexed": false,
          "internalType": "uint256",
          "name": "epoch",
          "type": "uint256"
        },
        {
          "components": [
            {
              "internalType": "address",
              "name": "l1Strategy",
              "type": "address"
            },
            {
              "internalType": "uint256",
              "name": "data",
              "type": "uint256"
            },
            {
              "internalType": "uint256",
              "name": "amount",
              "type": "uint256"
            },
            {
              "internalType": "bool",
              "name": "processed",
              "type": "bool"
            }
          ],
          "indexed": false,
          "internalType": "struct PoolingManagerBase.StrategyReport[]",
          "name": "reports",
          "type": "tuple[]"
        }
      ],
      "name": "ReportHandled",
      "type": "event"
    },
    {
      "anonymous": false,
      "inputs": [
        {
          "indexed": true,
          "internalType": "bytes32",
          "name": "role",
          "type": "bytes32"
        },
        {
          "indexed": true,
          "internalType": "bytes32",
          "name": "previousAdminRole",
          "type": "bytes32"
        },
        {
          "indexed": true,
          "internalType": "bytes32",
          "name": "newAdminRole",
          "type": "bytes32"
        }
      ],
      "name": "RoleAdminChanged",
      "type": "event"
    },
    {
      "anonymous": false,
      "inputs": [
        {
          "indexed": true,
          "internalType": "bytes32",
          "name": "role",
          "type": "bytes32"
        },
        {
          "indexed": true,
          "internalType": "address",
          "name": "account",
          "type": "address"
        },
        {
          "indexed": true,
          "internalType": "address",
          "name": "sender",
          "type": "address"
        }
      ],
      "name": "RoleGranted",
      "type": "event"
    },
    {
      "anonymous": false,
      "inputs": [
        {
          "indexed": true,
          "internalType": "bytes32",
          "name": "role",
          "type": "bytes32"
        },
        {
          "indexed": true,
          "internalType": "address",
          "name": "account",
          "type": "address"
        },
        {
          "indexed": true,
          "internalType": "address",
          "name": "sender",
          "type": "address"
        }
      ],
      "name": "RoleRevoked",
      "type": "event"
    },
    {
      "anonymous": false,
      "inputs": [
        {
          "indexed": false,
          "internalType": "address",
          "name": "strategy",
          "type": "address"
        }
      ],
      "name": "StrategyRegistered",
      "type": "event"
    },
    {
      "anonymous": false,
      "inputs": [
        {
          "indexed": true,
          "internalType": "address",
          "name": "implementation",
          "type": "address"
        }
      ],
      "name": "Upgraded",
      "type": "event"
    },
    {
      "stateMutability": "payable",
      "type": "fallback"
    },
    {
      "inputs": [],
      "name": "DEFAULT_ADMIN_ROLE",
      "outputs": [
        {
          "internalType": "bytes32",
          "name": "",
          "type": "bytes32"
        }
      ],
      "stateMutability": "view",
      "type": "function"
    },
    {
      "inputs": [],
      "name": "RELAYER_ROLE",
      "outputs": [
        {
          "internalType": "bytes32",
          "name": "",
          "type": "bytes32"
        }
      ],
      "stateMutability": "view",
      "type": "function"
    },
    {
      "inputs": [],
      "name": "UPGRADE_INTERFACE_VERSION",
      "outputs": [
        {
          "internalType": "string",
          "name": "",
          "type": "string"
        }
      ],
      "stateMutability": "view",
      "type": "function"
    },
    {
      "inputs": [
        {
          "internalType": "address",
          "name": "_bridge",
          "type": "address"
        },
        {
          "internalType": "uint256",
          "name": "_amount",
          "type": "uint256"
        },
        {
          "internalType": "uint256",
          "name": "_nonce",
          "type": "uint256"
        }
      ],
      "name": "cancelDepositRequestBridge",
      "outputs": [],
      "stateMutability": "nonpayable",
      "type": "function"
    },
    {
      "inputs": [
        {
          "internalType": "address",
          "name": "_bridge",
          "type": "address"
        },
        {
          "internalType": "address",
          "name": "_token",
          "type": "address"
        },
        {
          "internalType": "uint256",
          "name": "_amount",
          "type": "uint256"
        },
        {
          "internalType": "uint256",
          "name": "_nonce",
          "type": "uint256"
        }
      ],
      "name": "claimBridgeCancelDepositRequest",
      "outputs": [],
      "stateMutability": "nonpayable",
      "type": "function"
    },
    {
      "inputs": [],
      "name": "ethBridge",
      "outputs": [
        {
          "internalType": "address",
          "name": "",
          "type": "address"
        }
      ],
      "stateMutability": "view",
      "type": "function"
    },
    {
      "inputs": [
        {
          "internalType": "bytes32",
          "name": "role",
          "type": "bytes32"
        }
      ],
      "name": "getRoleAdmin",
      "outputs": [
        {
          "internalType": "bytes32",
          "name": "",
          "type": "bytes32"
        }
      ],
      "stateMutability": "view",
      "type": "function"
    },
    {
      "inputs": [
        {
          "internalType": "bytes32",
          "name": "role",
          "type": "bytes32"
        },
        {
          "internalType": "address",
          "name": "account",
          "type": "address"
        }
      ],
      "name": "grantRole",
      "outputs": [],
      "stateMutability": "nonpayable",
      "type": "function"
    },
    {
      "inputs": [
        {
          "internalType": "uint256",
          "name": "_epoch",
          "type": "uint256"
        },
        {
          "components": [
            {
              "internalType": "address",
              "name": "bridge",
              "type": "address"
            },
            {
              "internalType": "uint256",
              "name": "amount",
              "type": "uint256"
            }
          ],
          "internalType": "struct PoolingManagerBase.BridgeData[]",
          "name": "_bridgeWithdrawInfo",
          "type": "tuple[]"
        },
        {
          "components": [
            {
              "internalType": "address",
              "name": "l1Strategy",
              "type": "address"
            },
            {
              "internalType": "uint256",
              "name": "data",
              "type": "uint256"
            },
            {
              "internalType": "uint256",
              "name": "amount",
              "type": "uint256"
            },
            {
              "internalType": "bool",
              "name": "processed",
              "type": "bool"
            }
          ],
          "internalType": "struct PoolingManagerBase.StrategyReport[]",
          "name": "_strategyReport",
          "type": "tuple[]"
        },
        {
          "components": [
            {
              "internalType": "address",
              "name": "bridge",
              "type": "address"
            },
            {
              "internalType": "uint256",
              "name": "amount",
              "type": "uint256"
            }
          ],
          "internalType": "struct PoolingManagerBase.BridgeData[]",
          "name": "_bridgeDepositInfo",
          "type": "tuple[]"
        },
        {
          "internalType": "uint256",
          "name": "_l2BridgeEthFee",
          "type": "uint256"
        },
        {
          "internalType": "uint256",
          "name": "_l2MessagingEthFee",
          "type": "uint256"
        }
      ],
      "name": "handleReport",
      "outputs": [
        {
          "internalType": "bool",
          "name": "",
          "type": "bool"
        }
      ],
      "stateMutability": "payable",
      "type": "function"
    },
    {
      "inputs": [
        {
          "internalType": "bytes32",
          "name": "role",
          "type": "bytes32"
        },
        {
          "internalType": "address",
          "name": "account",
          "type": "address"
        }
      ],
      "name": "hasRole",
      "outputs": [
        {
          "internalType": "bool",
          "name": "",
          "type": "bool"
        }
      ],
      "stateMutability": "view",
      "type": "function"
    },
    {
      "inputs": [
        {
          "internalType": "uint256",
          "name": "_epoch",
          "type": "uint256"
        },
        {
          "components": [
            {
              "internalType": "address",
              "name": "bridge",
              "type": "address"
            },
            {
              "internalType": "uint256",
              "name": "amount",
              "type": "uint256"
            }
          ],
          "internalType": "struct PoolingManagerBase.BridgeData[]",
          "name": "_bridgeWithdrawInfo",
          "type": "tuple[]"
        },
        {
          "components": [
            {
              "internalType": "address",
              "name": "l1Strategy",
              "type": "address"
            },
            {
              "internalType": "uint256",
              "name": "data",
              "type": "uint256"
            },
            {
              "internalType": "uint256",
              "name": "amount",
              "type": "uint256"
            },
            {
              "internalType": "bool",
              "name": "processed",
              "type": "bool"
            }
          ],
          "internalType": "struct PoolingManagerBase.StrategyReport[]",
          "name": "_strategyReport",
          "type": "tuple[]"
        },
        {
          "components": [
            {
              "internalType": "address",
              "name": "bridge",
              "type": "address"
            },
            {
              "internalType": "uint256",
              "name": "amount",
              "type": "uint256"
            }
          ],
          "internalType": "struct PoolingManagerBase.BridgeData[]",
          "name": "_bridgeDepositInfo",
          "type": "tuple[]"
        }
      ],
      "name": "hashFromReport",
      "outputs": [
        {
          "internalType": "uint256",
          "name": "",
          "type": "uint256"
        }
      ],
      "stateMutability": "pure",
      "type": "function"
    },
    {
      "inputs": [
        {
          "internalType": "address",
          "name": "_admin",
          "type": "address"
        },
        {
          "internalType": "uint256",
          "name": "_l2PoolingManager",
          "type": "uint256"
        },
        {
          "internalType": "address",
          "name": "_starknetCore",
          "type": "address"
        },
        {
          "internalType": "address",
          "name": "_relayer",
          "type": "address"
        },
        {
          "internalType": "address",
          "name": "_ethBridge",
          "type": "address"
        },
        {
          "internalType": "address",
          "name": "_wETH",
          "type": "address"
        }
      ],
      "name": "initialize",
      "outputs": [],
      "stateMutability": "nonpayable",
      "type": "function"
    },
    {
      "inputs": [],
      "name": "l2PoolingManager",
      "outputs": [
        {
          "internalType": "uint256",
          "name": "",
          "type": "uint256"
        }
      ],
      "stateMutability": "view",
      "type": "function"
    },
    {
      "inputs": [],
      "name": "proxiableUUID",
      "outputs": [
        {
          "internalType": "bytes32",
          "name": "",
          "type": "bytes32"
        }
      ],
      "stateMutability": "view",
      "type": "function"
    },
    {
      "inputs": [
        {
          "internalType": "address",
          "name": "_strategy",
          "type": "address"
        }
      ],
      "name": "registerStrategy",
      "outputs": [],
      "stateMutability": "payable",
      "type": "function"
    },
    {
      "inputs": [
        {
          "internalType": "bytes32",
          "name": "role",
          "type": "bytes32"
        },
        {
          "internalType": "address",
          "name": "callerConfirmation",
          "type": "address"
        }
      ],
      "name": "renounceRole",
      "outputs": [],
      "stateMutability": "nonpayable",
      "type": "function"
    },
    {
      "inputs": [
        {
          "internalType": "bytes32",
          "name": "role",
          "type": "bytes32"
        },
        {
          "internalType": "address",
          "name": "account",
          "type": "address"
        }
      ],
      "name": "revokeRole",
      "outputs": [],
      "stateMutability": "nonpayable",
      "type": "function"
    },
    {
      "inputs": [],
      "name": "starknetCore",
      "outputs": [
        {
          "internalType": "contract IStarknetMessaging",
          "name": "",
          "type": "address"
        }
      ],
      "stateMutability": "view",
      "type": "function"
    },
    {
      "inputs": [
        {
          "internalType": "bytes4",
          "name": "interfaceId",
          "type": "bytes4"
        }
      ],
      "name": "supportsInterface",
      "outputs": [
        {
          "internalType": "bool",
          "name": "",
          "type": "bool"
        }
      ],
      "stateMutability": "view",
      "type": "function"
    },
    {
      "inputs": [
        {
          "internalType": "address",
          "name": "newImplementation",
          "type": "address"
        },
        {
          "internalType": "bytes",
          "name": "data",
          "type": "bytes"
        }
      ],
      "name": "upgradeToAndCall",
      "outputs": [],
      "stateMutability": "payable",
      "type": "function"
    },
    {
      "inputs": [],
      "name": "wETH",
      "outputs": [
        {
          "internalType": "address",
          "name": "",
          "type": "address"
        }
      ],
      "stateMutability": "view",
      "type": "function"
    },
    {
      "stateMutability": "payable",
      "type": "receive"
    }
  ],
  "transactionHash": "0x1249223c8b31479f7d377bbb4ff21d6c81816730d407e882c2f764ea320d7c66",
  "args": [],
  "numDeployments": 1,
  "solcInputHash": "d80d4dacbeef6bcba89873267451e4b5",
  "bytecode": "0x60a0604052306080523480156200001557600080fd5b507ff0c57e16840df040f15088dc2f81fe391c3923bec73e23a9662efc9c229c6a00805468010000000000000000810460ff1615906001600160401b0316600081158015620000615750825b90506000826001600160401b031660011480156200007e5750303b155b9050811580156200008d575080155b15620000ac5760405163f92ee8a960e01b815260040160405180910390fd5b84546001600160401b03191660011785558315620000db57845460ff60401b1916680100000000000000001785555b83156200012257845460ff60401b19168555604051600181527fc7f505b2f371ae2175ee4913f4499e1f2633a7b5936321eed1cdaeb6115181d29060200160405180910390a15b50505050506080516128ce62000151600039600081816114d2015281816114fb015261164601526128ce6000f3fe6080604052600436106101225760003560e01c80638201801a116100a5578063a2dc2ab71161006c578063a2dc2ab714610320578063ad3cb1cc14610340578063b39941911461037e578063d547741f1461039e578063f2428621146103be578063f5c2c430146103de57005b80638201801a146102775780638f3281a41461029757806391d14854146102b7578063926d7d7f146102d7578063a217fddf1461030b57005b806339e730ab116100e957806339e730ab146101e15780634f1ef2861461021957806352d1902d1461022c5780635f1b6bee146102415780636e9cfef11461026157005b806301f9df0b1461012b57806301ffc9a714610153578063248a9ca3146101735780632f2ff15d146101a157806336568abe146101c157005b3661012957005b005b61013e6101393660046120ec565b6103f1565b60405190151581526020015b60405180910390f35b34801561015f57600080fd5b5061013e61016e36600461218f565b6104ef565b34801561017f57600080fd5b5061019361018e3660046121b9565b610526565b60405190815260200161014a565b3480156101ad57600080fd5b506101296101bc3660046121d2565b610548565b3480156101cd57600080fd5b506101296101dc3660046121d2565b61056a565b3480156101ed57600080fd5b50600054610201906001600160a01b031681565b6040516001600160a01b03909116815260200161014a565b610129610227366004612229565b6105a2565b34801561023857600080fd5b506101936105c1565b34801561024d57600080fd5b5061012961025c3660046122b6565b6105de565b34801561026d57600080fd5b5061019360035481565b34801561028357600080fd5b506101296102923660046122fc565b610704565b3480156102a357600080fd5b50600154610201906001600160a01b031681565b3480156102c357600080fd5b5061013e6102d23660046121d2565b61076e565b3480156102e357600080fd5b506101937fe2b7fb3b832174769106daebcfd6d1970523240dda11281102db9363b83b0dc481565b34801561031757600080fd5b50610193600081565b34801561032c57600080fd5b5061012961033b366004612331565b6107a6565b34801561034c57600080fd5b50610371604051806040016040528060058152602001640352e302e360dc1b81525081565b60405161014a91906123ce565b34801561038a57600080fd5b50610193610399366004612401565b6108dc565b3480156103aa57600080fd5b506101296103b93660046121d2565b610ac6565b3480156103ca57600080fd5b50600254610201906001600160a01b031681565b6101296103ec366004612492565b610ae2565b60007fe2b7fb3b832174769106daebcfd6d1970523240dda11281102db9363b83b0dc461041d81610dec565b61043161042c898989896108dc565b610df9565b61043a87610e0f565b60006104468787610f1e565b90506104528686611281565b604080516000808252602082019092528161048f565b60408051808201909152600080825260208201528152602001906001900390816104685790505b5090506104a98a6104a36000848c866108dc565b8761136f565b7f640622c00eb8dd98d3184ad993595f70972d855fe160e4a6291b7a0bf04d33928a896040516104da9291906124af565b60405180910390a15098975050505050505050565b60006001600160e01b03198216637965db0b60e01b148061052057506301ffc9a760e01b6001600160e01b03198316145b92915050565b6000908152600080516020612879833981519152602052604090206001015490565b61055182610526565b61055a81610dec565b61056483836113a6565b50505050565b6001600160a01b03811633146105935760405163334bd91960e11b815260040160405180910390fd5b61059d828261144b565b505050565b6105aa6114c7565b6105b38261156e565b6105bd8282611579565b5050565b60006105cb61163b565b5060008051602061285983398151915290565b60006105e981610dec565b6105f7856003548585611684565b6001546001600160a01b039081169086160361064057604051339084156108fc029085906000818181858888f1935050505015801561063a573d6000803e3d6000fd5b506106b3565b60405163a9059cbb60e01b8152336004820152602481018490526001600160a01b0385169063a9059cbb906044016020604051808303816000875af115801561068d573d6000803e3d6000fd5b505050506040513d601f19601f820116820180604052508101906106b19190612526565b505b604080516001600160a01b0387168152602081018590529081018390527fe01d4a733cb0b7a41727e1953d897f19b615151ff9861c9fc205800481dacf739060600160405180910390a15050505050565b600061070f81610dec565b61071d8460035485856116f9565b604080516001600160a01b0386168152602081018590529081018390527f6bede034b368efac88a4cd28b60aac75bec57160af2185de376fa635b11feceb906060015b60405180910390a150505050565b6000918252600080516020612879833981519152602090815260408084206001600160a01b0393909316845291905290205460ff1690565b7ff0c57e16840df040f15088dc2f81fe391c3923bec73e23a9662efc9c229c6a008054600160401b810460ff1615906001600160401b03166000811580156107eb5750825b90506000826001600160401b031660011480156108075750303b155b905081158015610815575080155b156108335760405163f92ee8a960e01b815260040160405180910390fd5b845467ffffffffffffffff19166001178555831561085d57845460ff60401b1916600160401b1785555b600080546001600160a01b0319166001600160a01b038b161790556108848b89898961173a565b60038a905583156108cf57845460ff60401b19168555604051600181527fc7f505b2f371ae2175ee4913f4499e1f2633a7b5936321eed1cdaeb6115181d29060200160405180910390a15b5050505050505050505050565b600080856000036108fb57604080516000815260208101909152610917565b6040805160208101889052016040516020818303038152906040525b905060005b8551811015610997578186828151811061093857610938612543565b6020026020010151600001516001600160a01b031687838151811061095f5761095f612543565b60200260200101516020015160405160200161097d93929190612559565b60408051601f19818403018152919052915060010161091c565b5060005b8451811015610a3557818582815181106109b7576109b7612543565b6020026020010151600001516001600160a01b03168683815181106109de576109de612543565b6020026020010151602001518784815181106109fc576109fc612543565b602002602001015160400151604051602001610a1b9493929190612580565b60408051601f19818403018152919052915060010161099b565b5060005b8351811015610ab45781848281518110610a5557610a55612543565b6020026020010151600001516001600160a01b0316858381518110610a7c57610a7c612543565b602002602001015160200151604051602001610a9a93929190612559565b60408051601f198184030181529190529150600101610a39565b50805160209091012095945050505050565b610acf82610526565b610ad881610dec565b610564838361144b565b6000610aed81610dec565b6000829050306001600160a01b0316816001600160a01b031663d7f708036040518163ffffffff1660e01b8152600401602060405180830381865afa158015610b3a573d6000803e3d6000fd5b505050506040513d601f19601f82011682018060405250810190610b5e91906125af565b6001600160a01b031614610b85576040516369fad3d560e11b815260040160405180910390fd5b6000836001600160a01b0316632495a5996040518163ffffffff1660e01b8152600401602060405180830381865afa158015610bc5573d6000803e3d6000fd5b505050506040513d601f19601f82011682018060405250810190610be991906125af565b9050806001600160a01b031663095ea7b3836001600160a01b031663e78cea926040518163ffffffff1660e01b8152600401602060405180830381865afa158015610c38573d6000803e3d6000fd5b505050506040513d601f19601f82011682018060405250810190610c5c91906125af565b6040516001600160e01b031960e084901b1681526001600160a01b03909116600482015260001960248201526044016020604051808303816000875af1158015610caa573d6000803e3d6000fd5b505050506040513d601f19601f82011682018060405250810190610cce9190612526565b50806001600160a01b031663095ea7b3836001600160a01b03166321a92c446040518163ffffffff1660e01b8152600401602060405180830381865afa158015610d1c573d6000803e3d6000fd5b505050506040513d601f19601f82011682018060405250810190610d4091906125af565b6040516001600160e01b031960e084901b1681526001600160a01b03909116600482015260001960248201526044016020604051808303816000875af1158015610d8e573d6000803e3d6000fd5b505050506040513d601f19601f82011682018060405250810190610db29190612526565b506040516001600160a01b03851681527f3dd75e2398f3f43733be2a92283f289c653b2cbe3bd767c8747d8f0493db37e990602001610760565b610df681336118b9565b50565b610df6600354610e0a6000846118f2565b611a31565b60005b81518110156105bd57610e5f828281518110610e3057610e30612543565b602002602001015160000151838381518110610e4e57610e4e612543565b602002602001015160200151611aa5565b60015482516001600160a01b0390911690839083908110610e8257610e82612543565b6020026020010151600001516001600160a01b031603610f165760025482516001600160a01b039091169063d0e30db090849084908110610ec557610ec5612543565b6020026020010151602001516040518263ffffffff1660e01b81526004016000604051808303818588803b158015610efc57600080fd5b505af1158015610f10573d6000803e3d6000fd5b50505050505b600101610e12565b60006001815b8451811015611279576000858281518110610f4157610f41612543565b6020908102919091018101518051918101516040820151919350908260006001846110525760405163f1ea61e560e01b81526004810185905260009081906001600160a01b0386169063f1ea61e590602401600060405180830381865afa158015610fb0573d6000803e3d6000fd5b505050506040513d6000823e601f3d908101601f19168201604052610fd891908101906125cc565b915091506000826001600160a01b031682604051610ff69190612658565b6000604051808303816000865af19150503d8060008114611033576040519150601f19603f3d011682016040523d82523d6000602084013e611038565b606091505b505090508061104a576000935060009b505b5050506111bb565b600285036111bb57604051632e1a7d4d60e01b8152600481018590526001600160a01b03841690632e1a7d4d906024016020604051808303816000875af19250505080156110bd575060408051601f3d908101601f191682019092526110ba91810190612674565b60015b61113a57600090506000985061113584846001600160a01b031663e78cea926040518163ffffffff1660e01b8152600401602060405180830381865afa15801561110b573d6000803e3d6000fd5b505050506040513d601f19601f8201168201806040525081019061112f91906125af565b8d611ab0565b6111bb565b8092508483146111b9576111b961115184876126a3565b856001600160a01b031663e78cea926040518163ffffffff1660e01b8152600401602060405180830381865afa15801561118f573d6000803e3d6000fd5b505050506040513d601f19601f820116820180604052508101906111b391906125af565b8e611ab0565b505b6040518060800160405280846001600160a01b03168152602001846001600160a01b031663c1590cd76040518163ffffffff1660e01b8152600401602060405180830381865afa158015611213573d6000803e3d6000fd5b505050506040513d601f19601f820116820180604052508101906112379190612674565b81526020018381526020018215158152508c898151811061125a5761125a612543565b6020026020010181905250878060010198505050505050505050610f24565b509392505050565b60005b825181101561059d5760008382815181106112a1576112a1612543565b602090810291909101015160015481519192506001600160a01b039182169116148015611332576002546020830151604051632e1a7d4d60e01b81526001600160a01b0390921691632e1a7d4d916112ff9160040190815260200190565b600060405180830381600087803b15801561131957600080fd5b505af115801561132d573d6000803e3d6000fd5b505050505b60008161133f578461134f565b84836020015161134f91906126b6565b90506113648360000151846020015183611b2f565b505050600101611284565b61059d6003547f010e13e50cb99b6b3c8270ec6e16acfccbe1164a629d74b43549567a77593aff6113a086866118f2565b84611b3d565b60006000805160206128798339815191526113c1848461076e565b611441576000848152602082815260408083206001600160a01b03871684529091529020805460ff191660011790556113f73390565b6001600160a01b0316836001600160a01b0316857f2f8788117e7eff1d82e926ec794901d17c78024a50270940304540a733656f0d60405160405180910390a46001915050610520565b6000915050610520565b6000600080516020612879833981519152611466848461076e565b15611441576000848152602082815260408083206001600160a01b0387168085529252808320805460ff1916905551339287917ff6391f5c32d9c69d2a47ea670b442974b53935d1edc7fd64eb21e047a839171b9190a46001915050610520565b306001600160a01b037f000000000000000000000000000000000000000000000000000000000000000016148061154e57507f00000000000000000000000000000000000000000000000000000000000000006001600160a01b0316611542600080516020612859833981519152546001600160a01b031690565b6001600160a01b031614155b1561156c5760405163703e46dd60e11b815260040160405180910390fd5b565b60006105bd81610dec565b816001600160a01b03166352d1902d6040518163ffffffff1660e01b8152600401602060405180830381865afa9250505080156115d3575060408051601f3d908101601f191682019092526115d091810190612674565b60015b61160057604051634c9c8ce360e01b81526001600160a01b03831660048201526024015b60405180910390fd5b600080516020612859833981519152811461163157604051632a87526960e21b8152600481018290526024016115f7565b61059d8383611bbd565b306001600160a01b037f0000000000000000000000000000000000000000000000000000000000000000161461156c5760405163703e46dd60e11b815260040160405180910390fd5b8115610564576040516357439c0b60e11b81526004810183905260248101849052604481018290526001600160a01b0385169063ae873816906064015b600060405180830381600087803b1580156116db57600080fd5b505af11580156116ef573d6000803e3d6000fd5b5050505050505050565b81156105645760405163262b3b3160e11b81526004810183905260248101849052604481018290526001600160a01b03851690634c567662906064016116c1565b7ff0c57e16840df040f15088dc2f81fe391c3923bec73e23a9662efc9c229c6a008054600160401b810460ff1615906001600160401b031660008115801561177f5750825b90506000826001600160401b0316600114801561179b5750303b155b9050811580156117a9575080155b156117c75760405163f92ee8a960e01b815260040160405180910390fd5b845467ffffffffffffffff1916600117855583156117f157845460ff60401b1916600160401b1785555b6117f9611c13565b611801611c13565b61180c60008a6113a6565b506118377fe2b7fb3b832174769106daebcfd6d1970523240dda11281102db9363b83b0dc4896113a6565b50600180546001600160a01b03808a166001600160a01b031992831617909255600280549289169290911691909117905583156118ae57845460ff60401b19168555604051600181527fc7f505b2f371ae2175ee4913f4499e1f2633a7b5936321eed1cdaeb6115181d29060200160405180910390a15b505050505050505050565b6118c3828261076e565b6105bd5760405163e2517d3f60e01b81526001600160a01b0382166004820152602481018390526044016115f7565b60608060008061190185611c1b565b9150915085600003611972576040805160028082526060820183529091602083019080368337019050509250818360008151811061194157611941612543565b602002602001018181525050808360018151811061196157611961612543565b602002602001018181525050611a27565b60008061197e88611c1b565b60408051600480825260a082019092529294509092506020820160808036833701905050945081856000815181106119b8576119b8612543565b60200260200101818152505080856001815181106119d8576119d8612543565b60200260200101818152505083856002815181106119f8576119f8612543565b6020026020010181815250508285600381518110611a1857611a18612543565b60200260200101818152505050505b5090949350505050565b60005460405162b2775760e61b81526001600160a01b0390911690632c9dd5c090611a629085908590600401612704565b6020604051808303816000875af1158015611a81573d6000803e3d6000fd5b505050506040513d601f19601f8201168201806040525081019061059d9190612674565b6105bd823083611c45565b60005b8151811015610564576000828281518110611ad057611ad0612543565b60200260200101519050836001600160a01b031681600001516001600160a01b031603611b265784838381518110611b0a57611b0a612543565b6020026020010151602001818151611b2291906126a3565b9052505b50600101611ab3565b61059d836003548484611caa565b600054604051633e3aa6c560e01b81526001600160a01b0390911690633e3aa6c5908390611b7390889088908890600401612725565b604080518083038185885af1158015611b90573d6000803e3d6000fd5b50505050506040513d601f19601f82011682018060405250810190611bb59190612744565b505050505050565b611bc682611d0e565b6040516001600160a01b038316907fbc7cd75a20ee27fd9adebab32041f755214dbc6bffa90cc0225b39da2e5c2d3b90600090a2805115611c0b5761059d8282611d73565b6105bd611de9565b61156c611e08565b6000806001611c2c6080600261284c565b611c3691906126a3565b83169360809390931c92915050565b604051627b8a6760e11b8152600481018290526001600160a01b03838116602483015284169062f714ce90604401600060405180830381600087803b158015611c8d57600080fd5b505af1158015611ca1573d6000803e3d6000fd5b50505050505050565b811561056457604051631c57762b60e31b815260048101839052602481018490526001600160a01b0385169063e2bbb1589083906044016000604051808303818588803b158015611cfa57600080fd5b505af11580156118ae573d6000803e3d6000fd5b806001600160a01b03163b600003611d4457604051634c9c8ce360e01b81526001600160a01b03821660048201526024016115f7565b60008051602061285983398151915280546001600160a01b0319166001600160a01b0392909216919091179055565b6060600080846001600160a01b031684604051611d909190612658565b600060405180830381855af49150503d8060008114611dcb576040519150601f19603f3d011682016040523d82523d6000602084013e611dd0565b606091505b5091509150611de0858383611e51565b95945050505050565b341561156c5760405163b398979f60e01b815260040160405180910390fd5b7ff0c57e16840df040f15088dc2f81fe391c3923bec73e23a9662efc9c229c6a0054600160401b900460ff1661156c57604051631afcd79f60e31b815260040160405180910390fd5b606082611e6657611e6182611eb0565b611ea9565b8151158015611e7d57506001600160a01b0384163b155b15611ea657604051639996b31560e01b81526001600160a01b03851660048201526024016115f7565b50805b9392505050565b805115611ec05780518082602001fd5b604051630a12f52160e11b815260040160405180910390fd5b634e487b7160e01b600052604160045260246000fd5b604080519081016001600160401b0381118282101715611f1157611f11611ed9565b60405290565b604051608081016001600160401b0381118282101715611f1157611f11611ed9565b604051601f8201601f191681016001600160401b0381118282101715611f6157611f61611ed9565b604052919050565b60006001600160401b03821115611f8257611f82611ed9565b5060051b60200190565b6001600160a01b0381168114610df657600080fd5b600082601f830112611fb257600080fd5b81356020611fc7611fc283611f69565b611f39565b82815260069290921b84018101918181019086841115611fe657600080fd5b8286015b8481101561202e57604081890312156120035760008081fd5b61200b611eef565b813561201681611f8c565b81528185013585820152835291830191604001611fea565b509695505050505050565b8015158114610df657600080fd5b600082601f83011261205857600080fd5b81356020612068611fc283611f69565b82815260079290921b8401810191818101908684111561208757600080fd5b8286015b8481101561202e57608081890312156120a45760008081fd5b6120ac611f17565b81356120b781611f8c565b81528185013585820152604080830135908201526060808301356120da81612039565b9082015283529183019160800161208b565b60008060008060008060c0878903121561210557600080fd5b8635955060208701356001600160401b038082111561212357600080fd5b61212f8a838b01611fa1565b9650604089013591508082111561214557600080fd5b6121518a838b01612047565b9550606089013591508082111561216757600080fd5b5061217489828a01611fa1565b9350506080870135915060a087013590509295509295509295565b6000602082840312156121a157600080fd5b81356001600160e01b031981168114611ea957600080fd5b6000602082840312156121cb57600080fd5b5035919050565b600080604083850312156121e557600080fd5b8235915060208301356121f781611f8c565b809150509250929050565b60006001600160401b0382111561221b5761221b611ed9565b50601f01601f191660200190565b6000806040838503121561223c57600080fd5b823561224781611f8c565b915060208301356001600160401b0381111561226257600080fd5b8301601f8101851361227357600080fd5b8035612281611fc282612202565b81815286602083850101111561229657600080fd5b816020840160208301376000602083830101528093505050509250929050565b600080600080608085870312156122cc57600080fd5b84356122d781611f8c565b935060208501356122e781611f8c565b93969395505050506040820135916060013590565b60008060006060848603121561231157600080fd5b833561231c81611f8c565b95602085013595506040909401359392505050565b60008060008060008060c0878903121561234a57600080fd5b863561235581611f8c565b955060208701359450604087013561236c81611f8c565b9350606087013561237c81611f8c565b9250608087013561238c81611f8c565b915060a087013561239c81611f8c565b809150509295509295509295565b60005b838110156123c55781810151838201526020016123ad565b50506000910152565b60208152600082518060208401526123ed8160408501602087016123aa565b601f01601f19169190910160400192915050565b6000806000806080858703121561241757600080fd5b8435935060208501356001600160401b038082111561243557600080fd5b61244188838901611fa1565b9450604087013591508082111561245757600080fd5b61246388838901612047565b9350606087013591508082111561247957600080fd5b5061248687828801611fa1565b91505092959194509250565b6000602082840312156124a457600080fd5b8135611ea981611f8c565b600060408083018584526020828186015281865180845260609350838701915082880160005b8281101561251757815180516001600160a01b0316855285810151868601528781015188860152860151151586850152608090930192908401906001016124d5565b50919998505050505050505050565b60006020828403121561253857600080fd5b8151611ea981612039565b634e487b7160e01b600052603260045260246000fd5b6000845161256b8184602089016123aa565b91909101928352506020820152604001919050565b60008551612592818460208a016123aa565b919091019384525060208301919091526040820152606001919050565b6000602082840312156125c157600080fd5b8151611ea981611f8c565b600080604083850312156125df57600080fd5b82516125ea81611f8c565b60208401519092506001600160401b0381111561260657600080fd5b8301601f8101851361261757600080fd5b8051612625611fc282612202565b81815286602083850101111561263a57600080fd5b61264b8260208301602086016123aa565b8093505050509250929050565b6000825161266a8184602087016123aa565b9190910192915050565b60006020828403121561268657600080fd5b5051919050565b634e487b7160e01b600052601160045260246000fd5b818103818111156105205761052061268d565b808201808211156105205761052061268d565b600081518084526020808501945080840160005b838110156126f9578151875295820195908201906001016126dd565b509495945050505050565b82815260406020820152600061271d60408301846126c9565b949350505050565b838152826020820152606060408201526000611de060608301846126c9565b6000806040838503121561275757600080fd5b505080516020909101519092909150565b600181815b808511156127a35781600019048211156127895761278961268d565b8085161561279657918102915b93841c939080029061276d565b509250929050565b6000826127ba57506001610520565b816127c757506000610520565b81600181146127dd57600281146127e757612803565b6001915050610520565b60ff8411156127f8576127f861268d565b50506001821b610520565b5060208310610133831016604e8410600b8410161715612826575081810a610520565b6128308383612768565b80600019048211156128445761284461268d565b029392505050565b6000611ea983836127ab56fe360894a13ba1a3210667c828492db98dca3e2076cc3735a920a3ca505d382bbc02dd7bc7dec4dceedda775e58dd541e08a116c6c53815c0bd028192f7b626800a2646970667358221220c012aa1b1d886c2ee0ec2c00392e64a6583bd892986439c7aa9f8a0321413b4564736f6c63430008140033",
  "devdoc": {
    "author": "@nimbora 2024",
    "errors": {
      "AccessControlBadConfirmation()": [
        {
          "details": "The caller of a function is not the expected one. NOTE: Don't confuse with {AccessControlUnauthorizedAccount}."
        }
      ],
      "AccessControlUnauthorizedAccount(address,bytes32)": [
        {
          "details": "The `account` is missing a role."
        }
      ],
      "AddressEmptyCode(address)": [
        {
          "details": "There's no code at `target` (it is not a contract)."
        }
      ],
      "ERC1967InvalidImplementation(address)": [
        {
          "details": "The `implementation` of the proxy is invalid."
        }
      ],
      "ERC1967NonPayable()": [
        {
          "details": "An upgrade function sees `msg.value > 0` that may be lost."
        }
      ],
      "FailedInnerCall()": [
        {
          "details": "A call to an address target failed. The target may have reverted."
        }
      ],
      "InvalidInitialization()": [
        {
          "details": "The contract is already initialized."
        }
      ],
      "NotInitializing()": [
        {
          "details": "The contract is not initializing."
        }
      ],
      "UUPSUnauthorizedCallContext()": [
        {
          "details": "The call is from an unauthorized context."
        }
      ],
      "UUPSUnsupportedProxiableUUID(bytes32)": [
        {
          "details": "The storage `slot` is unsupported as a UUID."
        }
      ]
    },
    "events": {
      "BridgeCancelDepositRequestClaimed(address,uint256,uint256)": {
        "params": {
          "amount": "the amount to claim from the bridge.",
          "bridge": "the bridge address.",
          "nonce": "the deposit nonce."
        }
      },
      "CancelDepositRequestBridgeSent(address,uint256,uint256)": {
        "params": {
          "amount": "the amount to claim from the bridge.",
          "bridge": "the bridge address.",
          "nonce": "the deposit nonce."
        }
      },
      "Initialized(uint64)": {
        "details": "Triggered when the contract has been initialized or reinitialized."
      },
      "ReportHandled(uint256,(address,uint256,uint256,bool)[])": {
        "params": {
          "epoch": "the report epoch.",
          "reports": "the list of  strategies updated."
        }
      },
      "RoleAdminChanged(bytes32,bytes32,bytes32)": {
        "details": "Emitted when `newAdminRole` is set as ``role``'s admin role, replacing `previousAdminRole` `DEFAULT_ADMIN_ROLE` is the starting admin for all roles, despite {RoleAdminChanged} not being emitted signaling this."
      },
      "RoleGranted(bytes32,address,address)": {
        "details": "Emitted when `account` is granted `role`. `sender` is the account that originated the contract call, an admin role bearer except when using {AccessControl-_setupRole}."
      },
      "RoleRevoked(bytes32,address,address)": {
        "details": "Emitted when `account` is revoked `role`. `sender` is the account that originated the contract call:   - if using `revokeRole`, it is the admin role bearer   - if using `renounceRole`, it is the role bearer (i.e. `account`)"
      },
      "StrategyRegistered(address)": {
        "params": {
          "strategy": "the strategy address."
        }
      },
      "Upgraded(address)": {
        "details": "Emitted when the implementation is upgraded."
      }
    },
    "kind": "dev",
    "methods": {
      "cancelDepositRequestBridge(address,uint256,uint256)": {
        "details": "Cancel the deposited tokens when they get stuck. If the fees paid to bridge the tokens are not enough to incentive the sequencer it's possible that the tokens will stay blocked. By calling this function the admin can claim back the tokens.",
        "params": {
          "_amount": "the amount deposited.",
          "_bridge": "the bridge address.",
          "_nonce": "the nonce of the deposit."
        }
      },
      "claimBridgeCancelDepositRequest(address,address,uint256,uint256)": {
        "details": "After calling the 'cancelDepositRequestBridge' the tokens are available after 7days, as this time is too long the admin will send the tokens to L2 and claim back the blocked tokens when they are released by calling this func.",
        "params": {
          "_amount": "the amount deposited.",
          "_bridge": "the bridge address.",
          "_nonce": "the nonce of the deposit.",
          "_token": "the token address."
        }
      },
      "constructor": {
        "custom:oz-upgrades-unsafe-allow": "constructor"
      },
      "getRoleAdmin(bytes32)": {
        "details": "Returns the admin role that controls `role`. See {grantRole} and {revokeRole}. To change a role's admin, use {_setRoleAdmin}."
      },
      "grantRole(bytes32,address)": {
        "details": "Grants `role` to `account`. If `account` had not been already granted `role`, emits a {RoleGranted} event. Requirements: - the caller must have ``role``'s admin role. May emit a {RoleGranted} event."
      },
      "handleReport(uint256,(address,uint256)[],(address,uint256,uint256,bool)[],(address,uint256)[],uint256,uint256)": {
        "params": {
          "_bridgeDepositInfo": "a list of {bridgeAddress,amount} to deposit into the bridges, those values are computed on L2.",
          "_bridgeWithdrawInfo": "a list of {bridgeAddress,amount} to withdraw from the bridges.",
          "_epoch": "the epoch of the report.",
          "_l2BridgeEthFee": "the fees to pay for briding tokens to L2.",
          "_l2MessagingEthFee": "the fees to pay for briding message to L2.",
          "_strategyReport": "the strategy to apply, can be DEPOSIT, WITHDRAW, UPDATE."
        }
      },
      "hasRole(bytes32,address)": {
        "details": "Returns `true` if `account` has been granted `role`."
      },
      "hashFromReport(uint256,(address,uint256)[],(address,uint256,uint256,bool)[],(address,uint256)[])": {
        "details": "Generates a hash from a strategy report and bridge interaction information, used for data verification and integrity checks."
      },
      "initialize(address,uint256,address,address,address,address)": {
        "params": {
          "_admin": "the admin address.",
          "_ethBridge": "the eth bridge address.",
          "_l2PoolingManager": "the l2 pooling manager address.",
          "_relayer": "the relayer address.",
          "_starknetCore": "the Starknet core contract, used to bridge messages.",
          "_wETH": "the weth address."
        }
      },
      "proxiableUUID()": {
        "details": "Implementation of the ERC1822 {proxiableUUID} function. This returns the storage slot used by the implementation. It is used to validate the implementation's compatibility when performing an upgrade. IMPORTANT: A proxy pointing at a proxiable contract should not be considered proxiable itself, because this risks bricking a proxy that upgrades to it, by delegating to itself until out of gas. Thus it is critical that this function revert if invoked through a proxy. This is guaranteed by the `notDelegated` modifier."
      },
      "registerStrategy(address)": {
        "params": {
          "_strategy": "the strategy address."
        }
      },
      "renounceRole(bytes32,address)": {
        "details": "Revokes `role` from the calling account. Roles are often managed via {grantRole} and {revokeRole}: this function's purpose is to provide a mechanism for accounts to lose their privileges if they are compromised (such as when a trusted device is misplaced). If the calling account had been revoked `role`, emits a {RoleRevoked} event. Requirements: - the caller must be `callerConfirmation`. May emit a {RoleRevoked} event."
      },
      "revokeRole(bytes32,address)": {
        "details": "Revokes `role` from `account`. If `account` had been granted `role`, emits a {RoleRevoked} event. Requirements: - the caller must have ``role``'s admin role. May emit a {RoleRevoked} event."
      },
      "supportsInterface(bytes4)": {
        "details": "See {IERC165-supportsInterface}."
      },
      "upgradeToAndCall(address,bytes)": {
        "custom:oz-upgrades-unsafe-allow-reachable": "delegatecall",
        "details": "Upgrade the implementation of the proxy to `newImplementation`, and subsequently execute the function call encoded in `data`. Calls {_authorizeUpgrade}. Emits an {Upgraded} event."
      }
    },
    "title": "Starknet Pooling manager contract.",
    "version": 1
  },
  "userdoc": {
    "events": {
      "BridgeCancelDepositRequestClaimed(address,uint256,uint256)": {
        "notice": "Emitted when the func 'cancelDepositRequestBridge' is called"
      },
      "CancelDepositRequestBridgeSent(address,uint256,uint256)": {
        "notice": "Emitted when the func 'cancelDepositRequestBridge' is called"
      },
      "ReportHandled(uint256,(address,uint256,uint256,bool)[])": {
        "notice": "Emitted when a report is handled."
      },
      "StrategyRegistered(address)": {
        "notice": "Emitted when a strategy is registred."
      }
    },
    "kind": "user",
    "methods": {
      "RELAYER_ROLE()": {
        "notice": "Relayer role."
      },
      "ethBridge()": {
        "notice": "ethBridge address."
      },
      "handleReport(uint256,(address,uint256)[],(address,uint256,uint256,bool)[],(address,uint256)[],uint256,uint256)": {
        "notice": "Handle a report."
      },
      "initialize(address,uint256,address,address,address,address)": {
        "notice": "Initialize the Starknet pooling manager contract."
      },
      "l2PoolingManager()": {
        "notice": "The L2 Pooling manager address."
      },
      "registerStrategy(address)": {
        "notice": "List a new strategy."
      },
      "starknetCore()": {
        "notice": "Starknet messaging interface."
      },
      "wETH()": {
        "notice": "wETH address."
      }
    },
    "version": 1
  },
  "storageLayout": {
    "storage": [
      {
        "astId": 5124,
        "contract": "contracts/poolingManager/Implementation/StarknetPoolingManager.sol:StarknetPoolingManager",
        "label": "starknetCore",
        "offset": 0,
        "slot": "0",
        "type": "t_contract(IStarknetMessaging)4979"
      },
      {
        "astId": 7066,
        "contract": "contracts/poolingManager/Implementation/StarknetPoolingManager.sol:StarknetPoolingManager",
        "label": "ethBridge",
        "offset": 0,
        "slot": "1",
        "type": "t_address"
      },
      {
        "astId": 7069,
        "contract": "contracts/poolingManager/Implementation/StarknetPoolingManager.sol:StarknetPoolingManager",
        "label": "wETH",
        "offset": 0,
        "slot": "2",
        "type": "t_address"
      },
      {
        "astId": 6706,
        "contract": "contracts/poolingManager/Implementation/StarknetPoolingManager.sol:StarknetPoolingManager",
        "label": "l2PoolingManager",
        "offset": 0,
        "slot": "3",
        "type": "t_uint256"
      }
    ],
    "types": {
      "t_address": {
        "encoding": "inplace",
        "label": "address",
        "numberOfBytes": "20"
      },
      "t_contract(IStarknetMessaging)4979": {
        "encoding": "inplace",
        "label": "contract IStarknetMessaging",
        "numberOfBytes": "20"
      },
      "t_uint256": {
        "encoding": "inplace",
        "label": "uint256",
        "numberOfBytes": "32"
      }
    }
  }
}