{
    "address": "0xc73991CDFDD0774a6fcA36035a3f7e33933A016F",
    "abi": [
        {
            "inputs": [],
            "stateMutability": "nonpayable",
            "type": "constructor"
        },
        {
            "inputs": [],
            "name": "AccessControlBadConfirmation",
            "type": "error"
        },
        {
            "inputs": [
                {
                    "internalType": "address",
                    "name": "account",
                    "type": "address"
                },
                {
                    "internalType": "bytes32",
                    "name": "neededRole",
                    "type": "bytes32"
                }
            ],
            "name": "AccessControlUnauthorizedAccount",
            "type": "error"
        },
        {
            "inputs": [
                {
                    "internalType": "address",
                    "name": "target",
                    "type": "address"
                }
            ],
            "name": "AddressEmptyCode",
            "type": "error"
        },
        {
            "inputs": [
                {
                    "internalType": "address",
                    "name": "implementation",
                    "type": "address"
                }
            ],
            "name": "ERC1967InvalidImplementation",
            "type": "error"
        },
        {
            "inputs": [],
            "name": "ERC1967NonPayable",
            "type": "error"
        },
        {
            "inputs": [],
            "name": "FailedInnerCall",
            "type": "error"
        },
        {
            "inputs": [],
            "name": "InvalidInitialization",
            "type": "error"
        },
        {
            "inputs": [],
            "name": "InvalidPoolingManager",
            "type": "error"
        },
        {
            "inputs": [],
            "name": "NotInitializing",
            "type": "error"
        },
        {
            "inputs": [],
            "name": "UUPSUnauthorizedCallContext",
            "type": "error"
        },
        {
            "inputs": [
                {
                    "internalType": "bytes32",
                    "name": "slot",
                    "type": "bytes32"
                }
            ],
            "name": "UUPSUnsupportedProxiableUUID",
            "type": "error"
        },
        {
            "anonymous": false,
            "inputs": [
                {
                    "indexed": false,
                    "internalType": "address",
                    "name": "bridge",
                    "type": "address"
                },
                {
                    "indexed": false,
                    "internalType": "uint256",
                    "name": "amount",
                    "type": "uint256"
                },
                {
                    "indexed": false,
                    "internalType": "uint256",
                    "name": "nonce",
                    "type": "uint256"
                }
            ],
            "name": "BridgeCancelDepositRequestClaimed",
            "type": "event"
        },
        {
            "anonymous": false,
            "inputs": [
                {
                    "indexed": false,
                    "internalType": "address",
                    "name": "bridge",
                    "type": "address"
                },
                {
                    "indexed": false,
                    "internalType": "uint256",
                    "name": "amount",
                    "type": "uint256"
                },
                {
                    "indexed": false,
                    "internalType": "uint256",
                    "name": "nonce",
                    "type": "uint256"
                }
            ],
            "name": "CancelDepositRequestBridgeSent",
            "type": "event"
        },
        {
            "anonymous": false,
            "inputs": [
                {
                    "indexed": false,
                    "internalType": "uint64",
                    "name": "version",
                    "type": "uint64"
                }
            ],
            "name": "Initialized",
            "type": "event"
        },
        {
            "anonymous": false,
            "inputs": [
                {
                    "indexed": false,
                    "internalType": "uint256",
                    "name": "epoch",
                    "type": "uint256"
                },
                {
                    "components": [
                        {
                            "internalType": "address",
                            "name": "l1Strategy",
                            "type": "address"
                        },
                        {
                            "internalType": "uint256",
                            "name": "data",
                            "type": "uint256"
                        },
                        {
                            "internalType": "uint256",
                            "name": "amount",
                            "type": "uint256"
                        },
                        {
                            "internalType": "bool",
                            "name": "processed",
                            "type": "bool"
                        }
                    ],
                    "indexed": false,
                    "internalType": "struct PoolingManagerBase.StrategyReport[]",
                    "name": "reports",
                    "type": "tuple[]"
                }
            ],
            "name": "ReportHandled",
            "type": "event"
        },
        {
            "anonymous": false,
            "inputs": [
                {
                    "indexed": true,
                    "internalType": "bytes32",
                    "name": "role",
                    "type": "bytes32"
                },
                {
                    "indexed": true,
                    "internalType": "bytes32",
                    "name": "previousAdminRole",
                    "type": "bytes32"
                },
                {
                    "indexed": true,
                    "internalType": "bytes32",
                    "name": "newAdminRole",
                    "type": "bytes32"
                }
            ],
            "name": "RoleAdminChanged",
            "type": "event"
        },
        {
            "anonymous": false,
            "inputs": [
                {
                    "indexed": true,
                    "internalType": "bytes32",
                    "name": "role",
                    "type": "bytes32"
                },
                {
                    "indexed": true,
                    "internalType": "address",
                    "name": "account",
                    "type": "address"
                },
                {
                    "indexed": true,
                    "internalType": "address",
                    "name": "sender",
                    "type": "address"
                }
            ],
            "name": "RoleGranted",
            "type": "event"
        },
        {
            "anonymous": false,
            "inputs": [
                {
                    "indexed": true,
                    "internalType": "bytes32",
                    "name": "role",
                    "type": "bytes32"
                },
                {
                    "indexed": true,
                    "internalType": "address",
                    "name": "account",
                    "type": "address"
                },
                {
                    "indexed": true,
                    "internalType": "address",
                    "name": "sender",
                    "type": "address"
                }
            ],
            "name": "RoleRevoked",
            "type": "event"
        },
        {
            "anonymous": false,
            "inputs": [
                {
                    "indexed": false,
                    "internalType": "address",
                    "name": "strategy",
                    "type": "address"
                }
            ],
            "name": "StrategyRegistered",
            "type": "event"
        },
        {
            "anonymous": false,
            "inputs": [
                {
                    "indexed": true,
                    "internalType": "address",
                    "name": "implementation",
                    "type": "address"
                }
            ],
            "name": "Upgraded",
            "type": "event"
        },
        {
            "stateMutability": "payable",
            "type": "fallback"
        },
        {
            "inputs": [],
            "name": "DEFAULT_ADMIN_ROLE",
            "outputs": [
                {
                    "internalType": "bytes32",
                    "name": "",
                    "type": "bytes32"
                }
            ],
            "stateMutability": "view",
            "type": "function"
        },
        {
            "inputs": [],
            "name": "RELAYER_ROLE",
            "outputs": [
                {
                    "internalType": "bytes32",
                    "name": "",
                    "type": "bytes32"
                }
            ],
            "stateMutability": "view",
            "type": "function"
        },
        {
            "inputs": [],
            "name": "UPGRADE_INTERFACE_VERSION",
            "outputs": [
                {
                    "internalType": "string",
                    "name": "",
                    "type": "string"
                }
            ],
            "stateMutability": "view",
            "type": "function"
        },
        {
            "inputs": [
                {
                    "internalType": "address",
                    "name": "_bridge",
                    "type": "address"
                },
                {
                    "internalType": "uint256",
                    "name": "_amount",
                    "type": "uint256"
                },
                {
                    "internalType": "uint256",
                    "name": "_nonce",
                    "type": "uint256"
                }
            ],
            "name": "cancelDepositRequestBridge",
            "outputs": [],
            "stateMutability": "nonpayable",
            "type": "function"
        },
        {
            "inputs": [
                {
                    "internalType": "address",
                    "name": "_bridge",
                    "type": "address"
                },
                {
                    "internalType": "address",
                    "name": "_token",
                    "type": "address"
                },
                {
                    "internalType": "uint256",
                    "name": "_amount",
                    "type": "uint256"
                },
                {
                    "internalType": "uint256",
                    "name": "_nonce",
                    "type": "uint256"
                }
            ],
            "name": "claimBridgeCancelDepositRequest",
            "outputs": [],
            "stateMutability": "nonpayable",
            "type": "function"
        },
        {
            "inputs": [],
            "name": "ethBridge",
            "outputs": [
                {
                    "internalType": "address",
                    "name": "",
                    "type": "address"
                }
            ],
            "stateMutability": "view",
            "type": "function"
        },
        {
            "inputs": [
                {
                    "internalType": "bytes32",
                    "name": "role",
                    "type": "bytes32"
                }
            ],
            "name": "getRoleAdmin",
            "outputs": [
                {
                    "internalType": "bytes32",
                    "name": "",
                    "type": "bytes32"
                }
            ],
            "stateMutability": "view",
            "type": "function"
        },
        {
            "inputs": [
                {
                    "internalType": "bytes32",
                    "name": "role",
                    "type": "bytes32"
                },
                {
                    "internalType": "address",
                    "name": "account",
                    "type": "address"
                }
            ],
            "name": "grantRole",
            "outputs": [],
            "stateMutability": "nonpayable",
            "type": "function"
        },
        {
            "inputs": [
                {
                    "internalType": "uint256",
                    "name": "_epoch",
                    "type": "uint256"
                },
                {
                    "components": [
                        {
                            "internalType": "address",
                            "name": "bridge",
                            "type": "address"
                        },
                        {
                            "internalType": "uint256",
                            "name": "amount",
                            "type": "uint256"
                        }
                    ],
                    "internalType": "struct PoolingManagerBase.BridgeData[]",
                    "name": "_bridgeWithdrawInfo",
                    "type": "tuple[]"
                },
                {
                    "components": [
                        {
                            "internalType": "address",
                            "name": "l1Strategy",
                            "type": "address"
                        },
                        {
                            "internalType": "uint256",
                            "name": "data",
                            "type": "uint256"
                        },
                        {
                            "internalType": "uint256",
                            "name": "amount",
                            "type": "uint256"
                        },
                        {
                            "internalType": "bool",
                            "name": "processed",
                            "type": "bool"
                        }
                    ],
                    "internalType": "struct PoolingManagerBase.StrategyReport[]",
                    "name": "_strategyReport",
                    "type": "tuple[]"
                },
                {
                    "components": [
                        {
                            "internalType": "address",
                            "name": "bridge",
                            "type": "address"
                        },
                        {
                            "internalType": "uint256",
                            "name": "amount",
                            "type": "uint256"
                        }
                    ],
                    "internalType": "struct PoolingManagerBase.BridgeData[]",
                    "name": "_bridgeDepositInfo",
                    "type": "tuple[]"
                },
                {
                    "internalType": "uint256",
                    "name": "_l2BridgeEthFee",
                    "type": "uint256"
                },
                {
                    "internalType": "uint256",
                    "name": "_l2MessagingEthFee",
                    "type": "uint256"
                }
            ],
            "name": "handleReport",
            "outputs": [
                {
                    "internalType": "bool",
                    "name": "",
                    "type": "bool"
                }
            ],
            "stateMutability": "payable",
            "type": "function"
        },
        {
            "inputs": [
                {
                    "internalType": "bytes32",
                    "name": "role",
                    "type": "bytes32"
                },
                {
                    "internalType": "address",
                    "name": "account",
                    "type": "address"
                }
            ],
            "name": "hasRole",
            "outputs": [
                {
                    "internalType": "bool",
                    "name": "",
                    "type": "bool"
                }
            ],
            "stateMutability": "view",
            "type": "function"
        },
        {
            "inputs": [
                {
                    "internalType": "uint256",
                    "name": "_epoch",
                    "type": "uint256"
                },
                {
                    "components": [
                        {
                            "internalType": "address",
                            "name": "bridge",
                            "type": "address"
                        },
                        {
                            "internalType": "uint256",
                            "name": "amount",
                            "type": "uint256"
                        }
                    ],
                    "internalType": "struct PoolingManagerBase.BridgeData[]",
                    "name": "_bridgeWithdrawInfo",
                    "type": "tuple[]"
                },
                {
                    "components": [
                        {
                            "internalType": "address",
                            "name": "l1Strategy",
                            "type": "address"
                        },
                        {
                            "internalType": "uint256",
                            "name": "data",
                            "type": "uint256"
                        },
                        {
                            "internalType": "uint256",
                            "name": "amount",
                            "type": "uint256"
                        },
                        {
                            "internalType": "bool",
                            "name": "processed",
                            "type": "bool"
                        }
                    ],
                    "internalType": "struct PoolingManagerBase.StrategyReport[]",
                    "name": "_strategyReport",
                    "type": "tuple[]"
                },
                {
                    "components": [
                        {
                            "internalType": "address",
                            "name": "bridge",
                            "type": "address"
                        },
                        {
                            "internalType": "uint256",
                            "name": "amount",
                            "type": "uint256"
                        }
                    ],
                    "internalType": "struct PoolingManagerBase.BridgeData[]",
                    "name": "_bridgeDepositInfo",
                    "type": "tuple[]"
                },
                {
                    "internalType": "bool",
                    "name": "_send",
                    "type": "bool"
                }
            ],
            "name": "hashFromReport",
            "outputs": [
                {
                    "internalType": "uint256",
                    "name": "",
                    "type": "uint256"
                }
            ],
            "stateMutability": "pure",
            "type": "function"
        },
        {
            "inputs": [
                {
                    "internalType": "address",
                    "name": "_admin",
                    "type": "address"
                },
                {
                    "internalType": "uint256",
                    "name": "_l2PoolingManager",
                    "type": "uint256"
                },
                {
                    "internalType": "address",
                    "name": "_starknetCore",
                    "type": "address"
                },
                {
                    "internalType": "address",
                    "name": "_relayer",
                    "type": "address"
                },
                {
                    "internalType": "address",
                    "name": "_ethBridge",
                    "type": "address"
                },
                {
                    "internalType": "address",
                    "name": "_wETH",
                    "type": "address"
                }
            ],
            "name": "initialize",
            "outputs": [],
            "stateMutability": "nonpayable",
            "type": "function"
        },
        {
            "inputs": [],
            "name": "l2PoolingManager",
            "outputs": [
                {
                    "internalType": "uint256",
                    "name": "",
                    "type": "uint256"
                }
            ],
            "stateMutability": "view",
            "type": "function"
        },
        {
            "inputs": [],
            "name": "proxiableUUID",
            "outputs": [
                {
                    "internalType": "bytes32",
                    "name": "",
                    "type": "bytes32"
                }
            ],
            "stateMutability": "view",
            "type": "function"
        },
        {
            "inputs": [
                {
                    "internalType": "address",
                    "name": "_strategy",
                    "type": "address"
                }
            ],
            "name": "registerStrategy",
            "outputs": [],
            "stateMutability": "nonpayable",
            "type": "function"
        },
        {
            "inputs": [
                {
                    "internalType": "bytes32",
                    "name": "role",
                    "type": "bytes32"
                },
                {
                    "internalType": "address",
                    "name": "callerConfirmation",
                    "type": "address"
                }
            ],
            "name": "renounceRole",
            "outputs": [],
            "stateMutability": "nonpayable",
            "type": "function"
        },
        {
            "inputs": [
                {
                    "internalType": "bytes32",
                    "name": "role",
                    "type": "bytes32"
                },
                {
                    "internalType": "address",
                    "name": "account",
                    "type": "address"
                }
            ],
            "name": "revokeRole",
            "outputs": [],
            "stateMutability": "nonpayable",
            "type": "function"
        },
        {
            "inputs": [],
            "name": "starknetCore",
            "outputs": [
                {
                    "internalType": "contract IStarknetMessaging",
                    "name": "",
                    "type": "address"
                }
            ],
            "stateMutability": "view",
            "type": "function"
        },
        {
            "inputs": [
                {
                    "internalType": "bytes4",
                    "name": "interfaceId",
                    "type": "bytes4"
                }
            ],
            "name": "supportsInterface",
            "outputs": [
                {
                    "internalType": "bool",
                    "name": "",
                    "type": "bool"
                }
            ],
            "stateMutability": "view",
            "type": "function"
        },
        {
            "inputs": [
                {
                    "internalType": "address",
                    "name": "newImplementation",
                    "type": "address"
                },
                {
                    "internalType": "bytes",
                    "name": "data",
                    "type": "bytes"
                }
            ],
            "name": "upgradeToAndCall",
            "outputs": [],
            "stateMutability": "payable",
            "type": "function"
        },
        {
            "inputs": [],
            "name": "wETH",
            "outputs": [
                {
                    "internalType": "address",
                    "name": "",
                    "type": "address"
                }
            ],
            "stateMutability": "view",
            "type": "function"
        },
        {
            "stateMutability": "payable",
            "type": "receive"
        }
    ],
    "transactionHash": "0x6e4ed877408ab11da5881e88055090cadf23054a995188f5bd9025dfa3ec16e6",
    "args": [],
    "numDeployments": 2,
    "solcInputHash": "45c63da136aa7bde9b67b597c916b50b",
    "bytecode": "0x60a0604052306080523480156200001557600080fd5b507ff0c57e16840df040f15088dc2f81fe391c3923bec73e23a9662efc9c229c6a00805468010000000000000000810460ff1615906001600160401b0316600081158015620000615750825b90506000826001600160401b031660011480156200007e5750303b155b9050811580156200008d575080155b15620000ac5760405163f92ee8a960e01b815260040160405180910390fd5b84546001600160401b03191660011785558315620000db57845460ff60401b1916680100000000000000001785555b83156200012257845460ff60401b19168555604051600181527fc7f505b2f371ae2175ee4913f4499e1f2633a7b5936321eed1cdaeb6115181d29060200160405180910390a15b505050505060805161296f620001516000396000818161153c0152818161156501526116b0015261296f6000f3fe6080604052600436106101225760003560e01c80638201801a116100a5578063a217fddf1161006c578063a217fddf1461032b578063a2dc2ab714610340578063ad3cb1cc14610360578063d547741f1461039e578063f2428621146103be578063f5c2c430146103de57005b80638201801a146102775780638b6336ca146102975780638f3281a4146102b757806391d14854146102d7578063926d7d7f146102f757005b806339e730ab116100e957806339e730ab146101e15780634f1ef2861461021957806352d1902d1461022c5780635f1b6bee146102415780636e9cfef11461026157005b806301f9df0b1461012b57806301ffc9a714610153578063248a9ca3146101735780632f2ff15d146101a157806336568abe146101c157005b3661012957005b005b61013e610139366004612156565b6103fe565b60405190151581526020015b60405180910390f35b34801561015f57600080fd5b5061013e61016e3660046121f9565b610500565b34801561017f57600080fd5b5061019361018e366004612223565b610537565b60405190815260200161014a565b3480156101ad57600080fd5b506101296101bc36600461223c565b610559565b3480156101cd57600080fd5b506101296101dc36600461223c565b61057b565b3480156101ed57600080fd5b50600054610201906001600160a01b031681565b6040516001600160a01b03909116815260200161014a565b610129610227366004612293565b6105b3565b34801561023857600080fd5b506101936105d2565b34801561024d57600080fd5b5061012961025c366004612320565b6105ef565b34801561026d57600080fd5b5061019360035481565b34801561028357600080fd5b50610129610292366004612366565b610715565b3480156102a357600080fd5b506101936102b236600461239b565b61077f565b3480156102c357600080fd5b50600154610201906001600160a01b031681565b3480156102e357600080fd5b5061013e6102f236600461223c565b6109c2565b34801561030357600080fd5b506101937fe2b7fb3b832174769106daebcfd6d1970523240dda11281102db9363b83b0dc481565b34801561033757600080fd5b50610193600081565b34801561034c57600080fd5b5061012961035b366004612441565b6109fa565b34801561036c57600080fd5b50610391604051806040016040528060058152602001640352e302e360dc1b81525081565b60405161014a91906124de565b3480156103aa57600080fd5b506101296103b936600461223c565b610b30565b3480156103ca57600080fd5b50600254610201906001600160a01b031681565b3480156103ea57600080fd5b506101296103f9366004612511565b610b4c565b60007fe2b7fb3b832174769106daebcfd6d1970523240dda11281102db9363b83b0dc461042a81610e56565b61044061043b89898989600061077f565b610e63565b61044987610e79565b60006104558787610f88565b905061046186866112eb565b604080516000808252602082019092528161049e565b60408051808201909152600080825260208201528152602001906001900390816104775790505b5090506104ba8a6104b46000848c86600161077f565b876113d9565b7f640622c00eb8dd98d3184ad993595f70972d855fe160e4a6291b7a0bf04d33928a896040516104eb92919061252e565b60405180910390a15098975050505050505050565b60006001600160e01b03198216637965db0b60e01b148061053157506301ffc9a760e01b6001600160e01b03198316145b92915050565b600090815260008051602061291a833981519152602052604090206001015490565b61056282610537565b61056b81610e56565b6105758383611410565b50505050565b6001600160a01b03811633146105a45760405163334bd91960e11b815260040160405180910390fd5b6105ae82826114b5565b505050565b6105bb611531565b6105c4826115d8565b6105ce82826115e3565b5050565b60006105dc6116a5565b506000805160206128fa83398151915290565b60006105fa81610e56565b6106088560035485856116ee565b6001546001600160a01b039081169086160361065157604051339084156108fc029085906000818181858888f1935050505015801561064b573d6000803e3d6000fd5b506106c4565b60405163a9059cbb60e01b8152336004820152602481018490526001600160a01b0385169063a9059cbb906044016020604051808303816000875af115801561069e573d6000803e3d6000fd5b505050506040513d601f19601f820116820180604052508101906106c291906125a5565b505b604080516001600160a01b0387168152602081018590529081018390527fe01d4a733cb0b7a41727e1953d897f19b615151ff9861c9fc205800481dacf739060600160405180910390a15050505050565b600061072081610e56565b61072e846003548585611763565b604080516001600160a01b0386168152602081018590529081018390527f6bede034b368efac88a4cd28b60aac75bec57160af2185de376fa635b11feceb906060015b60405180910390a150505050565b6000808660000361079e576040805160008152602081019091526107ba565b6040805160208101899052016040516020818303038152906040525b905060005b865181101561083a57818782815181106107db576107db6125c2565b6020026020010151600001516001600160a01b0316888381518110610802576108026125c2565b602002602001015160200151604051602001610820939291906125d8565b60408051601f1981840301815291905291506001016107bf565b5060005b8551811015610930578186828151811061085a5761085a6125c2565b6020026020010151600001516001600160a01b0316878381518110610881576108816125c2565b60200260200101516020015188848151811061089f5761089f6125c2565b6020026020010151604001516040516020016108be94939291906125ff565b6040516020818303038152906040529150831561092857818682815181106108e8576108e86125c2565b6020026020010151606001516108ff576000610902565b60015b60ff1660405160200161091692919061262e565b60405160208183030381529060405291505b60010161083e565b5060005b84518110156109af5781858281518110610950576109506125c2565b6020026020010151600001516001600160a01b0316868381518110610977576109776125c2565b602002602001015160200151604051602001610995939291906125d8565b60408051601f198184030181529190529150600101610934565b5080516020909101209695505050505050565b600091825260008051602061291a833981519152602090815260408084206001600160a01b0393909316845291905290205460ff1690565b7ff0c57e16840df040f15088dc2f81fe391c3923bec73e23a9662efc9c229c6a008054600160401b810460ff1615906001600160401b0316600081158015610a3f5750825b90506000826001600160401b03166001148015610a5b5750303b155b905081158015610a69575080155b15610a875760405163f92ee8a960e01b815260040160405180910390fd5b845467ffffffffffffffff191660011785558315610ab157845460ff60401b1916600160401b1785555b600080546001600160a01b0319166001600160a01b038b16179055610ad88b8989896117a4565b60038a90558315610b2357845460ff60401b19168555604051600181527fc7f505b2f371ae2175ee4913f4499e1f2633a7b5936321eed1cdaeb6115181d29060200160405180910390a15b5050505050505050505050565b610b3982610537565b610b4281610e56565b61057583836114b5565b6000610b5781610e56565b6000829050306001600160a01b0316816001600160a01b031663d7f708036040518163ffffffff1660e01b8152600401602060405180830381865afa158015610ba4573d6000803e3d6000fd5b505050506040513d601f19601f82011682018060405250810190610bc89190612650565b6001600160a01b031614610bef576040516369fad3d560e11b815260040160405180910390fd5b6000836001600160a01b0316632495a5996040518163ffffffff1660e01b8152600401602060405180830381865afa158015610c2f573d6000803e3d6000fd5b505050506040513d601f19601f82011682018060405250810190610c539190612650565b9050806001600160a01b031663095ea7b3836001600160a01b031663e78cea926040518163ffffffff1660e01b8152600401602060405180830381865afa158015610ca2573d6000803e3d6000fd5b505050506040513d601f19601f82011682018060405250810190610cc69190612650565b6040516001600160e01b031960e084901b1681526001600160a01b03909116600482015260001960248201526044016020604051808303816000875af1158015610d14573d6000803e3d6000fd5b505050506040513d601f19601f82011682018060405250810190610d3891906125a5565b50806001600160a01b031663095ea7b3836001600160a01b03166321a92c446040518163ffffffff1660e01b8152600401602060405180830381865afa158015610d86573d6000803e3d6000fd5b505050506040513d601f19601f82011682018060405250810190610daa9190612650565b6040516001600160e01b031960e084901b1681526001600160a01b03909116600482015260001960248201526044016020604051808303816000875af1158015610df8573d6000803e3d6000fd5b505050506040513d601f19601f82011682018060405250810190610e1c91906125a5565b506040516001600160a01b03851681527f3dd75e2398f3f43733be2a92283f289c653b2cbe3bd767c8747d8f0493db37e990602001610771565b610e608133611923565b50565b610e60600354610e7460008461195c565b611a9b565b60005b81518110156105ce57610ec9828281518110610e9a57610e9a6125c2565b602002602001015160000151838381518110610eb857610eb86125c2565b602002602001015160200151611b0f565b60015482516001600160a01b0390911690839083908110610eec57610eec6125c2565b6020026020010151600001516001600160a01b031603610f805760025482516001600160a01b039091169063d0e30db090849084908110610f2f57610f2f6125c2565b6020026020010151602001516040518263ffffffff1660e01b81526004016000604051808303818588803b158015610f6657600080fd5b505af1158015610f7a573d6000803e3d6000fd5b50505050505b600101610e7c565b60006001815b84518110156112e3576000858281518110610fab57610fab6125c2565b6020908102919091018101518051918101516040820151919350908260006001846110bc5760405163f1ea61e560e01b81526004810185905260009081906001600160a01b0386169063f1ea61e590602401600060405180830381865afa15801561101a573d6000803e3d6000fd5b505050506040513d6000823e601f3d908101601f19168201604052611042919081019061266d565b915091506000826001600160a01b03168260405161106091906126f9565b6000604051808303816000865af19150503d806000811461109d576040519150601f19603f3d011682016040523d82523d6000602084013e6110a2565b606091505b50509050806110b4576000935060009b505b505050611225565b6002850361122557604051632e1a7d4d60e01b8152600481018590526001600160a01b03841690632e1a7d4d906024016020604051808303816000875af1925050508015611127575060408051601f3d908101601f1916820190925261112491810190612715565b60015b6111a457600090506000985061119f84846001600160a01b031663e78cea926040518163ffffffff1660e01b8152600401602060405180830381865afa158015611175573d6000803e3d6000fd5b505050506040513d601f19601f820116820180604052508101906111999190612650565b8d611b1a565b611225565b809250848314611223576112236111bb8487612744565b856001600160a01b031663e78cea926040518163ffffffff1660e01b8152600401602060405180830381865afa1580156111f9573d6000803e3d6000fd5b505050506040513d601f19601f8201168201806040525081019061121d9190612650565b8e611b1a565b505b6040518060800160405280846001600160a01b03168152602001846001600160a01b031663c1590cd76040518163ffffffff1660e01b8152600401602060405180830381865afa15801561127d573d6000803e3d6000fd5b505050506040513d601f19601f820116820180604052508101906112a19190612715565b81526020018381526020018215158152508c89815181106112c4576112c46125c2565b6020026020010181905250878060010198505050505050505050610f8e565b509392505050565b60005b82518110156105ae57600083828151811061130b5761130b6125c2565b602090810291909101015160015481519192506001600160a01b03918216911614801561139c576002546020830151604051632e1a7d4d60e01b81526001600160a01b0390921691632e1a7d4d916113699160040190815260200190565b600060405180830381600087803b15801561138357600080fd5b505af1158015611397573d6000803e3d6000fd5b505050505b6000816113a957846113b9565b8483602001516113b99190612757565b90506113ce8360000151846020015183611b99565b5050506001016112ee565b6105ae6003547f010e13e50cb99b6b3c8270ec6e16acfccbe1164a629d74b43549567a77593aff61140a868661195c565b84611ba7565b600060008051602061291a83398151915261142b84846109c2565b6114ab576000848152602082815260408083206001600160a01b03871684529091529020805460ff191660011790556114613390565b6001600160a01b0316836001600160a01b0316857f2f8788117e7eff1d82e926ec794901d17c78024a50270940304540a733656f0d60405160405180910390a46001915050610531565b6000915050610531565b600060008051602061291a8339815191526114d084846109c2565b156114ab576000848152602082815260408083206001600160a01b0387168085529252808320805460ff1916905551339287917ff6391f5c32d9c69d2a47ea670b442974b53935d1edc7fd64eb21e047a839171b9190a46001915050610531565b306001600160a01b037f00000000000000000000000000000000000000000000000000000000000000001614806115b857507f00000000000000000000000000000000000000000000000000000000000000006001600160a01b03166115ac6000805160206128fa833981519152546001600160a01b031690565b6001600160a01b031614155b156115d65760405163703e46dd60e11b815260040160405180910390fd5b565b60006105ce81610e56565b816001600160a01b03166352d1902d6040518163ffffffff1660e01b8152600401602060405180830381865afa92505050801561163d575060408051601f3d908101601f1916820190925261163a91810190612715565b60015b61166a57604051634c9c8ce360e01b81526001600160a01b03831660048201526024015b60405180910390fd5b6000805160206128fa833981519152811461169b57604051632a87526960e21b815260048101829052602401611661565b6105ae8383611c27565b306001600160a01b037f000000000000000000000000000000000000000000000000000000000000000016146115d65760405163703e46dd60e11b815260040160405180910390fd5b8115610575576040516357439c0b60e11b81526004810183905260248101849052604481018290526001600160a01b0385169063ae873816906064015b600060405180830381600087803b15801561174557600080fd5b505af1158015611759573d6000803e3d6000fd5b5050505050505050565b81156105755760405163262b3b3160e11b81526004810183905260248101849052604481018290526001600160a01b03851690634c5676629060640161172b565b7ff0c57e16840df040f15088dc2f81fe391c3923bec73e23a9662efc9c229c6a008054600160401b810460ff1615906001600160401b03166000811580156117e95750825b90506000826001600160401b031660011480156118055750303b155b905081158015611813575080155b156118315760405163f92ee8a960e01b815260040160405180910390fd5b845467ffffffffffffffff19166001178555831561185b57845460ff60401b1916600160401b1785555b611863611c7d565b61186b611c7d565b61187660008a611410565b506118a17fe2b7fb3b832174769106daebcfd6d1970523240dda11281102db9363b83b0dc489611410565b50600180546001600160a01b03808a166001600160a01b0319928316179092556002805492891692909116919091179055831561191857845460ff60401b19168555604051600181527fc7f505b2f371ae2175ee4913f4499e1f2633a7b5936321eed1cdaeb6115181d29060200160405180910390a15b505050505050505050565b61192d82826109c2565b6105ce5760405163e2517d3f60e01b81526001600160a01b038216600482015260248101839052604401611661565b60608060008061196b85611c85565b91509150856000036119dc57604080516002808252606082018352909160208301908036833701905050925081836000815181106119ab576119ab6125c2565b60200260200101818152505080836001815181106119cb576119cb6125c2565b602002602001018181525050611a91565b6000806119e888611c85565b60408051600480825260a08201909252929450909250602082016080803683370190505094508185600081518110611a2257611a226125c2565b6020026020010181815250508085600181518110611a4257611a426125c2565b6020026020010181815250508385600281518110611a6257611a626125c2565b6020026020010181815250508285600381518110611a8257611a826125c2565b60200260200101818152505050505b5090949350505050565b60005460405162b2775760e61b81526001600160a01b0390911690632c9dd5c090611acc90859085906004016127a5565b6020604051808303816000875af1158015611aeb573d6000803e3d6000fd5b505050506040513d601f19601f820116820180604052508101906105ae9190612715565b6105ce823083611caf565b60005b8151811015610575576000828281518110611b3a57611b3a6125c2565b60200260200101519050836001600160a01b031681600001516001600160a01b031603611b905784838381518110611b7457611b746125c2565b6020026020010151602001818151611b8c9190612744565b9052505b50600101611b1d565b6105ae836003548484611d14565b600054604051633e3aa6c560e01b81526001600160a01b0390911690633e3aa6c5908390611bdd908890889088906004016127c6565b604080518083038185885af1158015611bfa573d6000803e3d6000fd5b50505050506040513d601f19601f82011682018060405250810190611c1f91906127e5565b505050505050565b611c3082611d78565b6040516001600160a01b038316907fbc7cd75a20ee27fd9adebab32041f755214dbc6bffa90cc0225b39da2e5c2d3b90600090a2805115611c75576105ae8282611ddd565b6105ce611e53565b6115d6611e72565b6000806001611c96608060026128ed565b611ca09190612744565b83169360809390931c92915050565b604051627b8a6760e11b8152600481018290526001600160a01b03838116602483015284169062f714ce90604401600060405180830381600087803b158015611cf757600080fd5b505af1158015611d0b573d6000803e3d6000fd5b50505050505050565b811561057557604051631c57762b60e31b815260048101839052602481018490526001600160a01b0385169063e2bbb1589083906044016000604051808303818588803b158015611d6457600080fd5b505af1158015611918573d6000803e3d6000fd5b806001600160a01b03163b600003611dae57604051634c9c8ce360e01b81526001600160a01b0382166004820152602401611661565b6000805160206128fa83398151915280546001600160a01b0319166001600160a01b0392909216919091179055565b6060600080846001600160a01b031684604051611dfa91906126f9565b600060405180830381855af49150503d8060008114611e35576040519150601f19603f3d011682016040523d82523d6000602084013e611e3a565b606091505b5091509150611e4a858383611ebb565b95945050505050565b34156115d65760405163b398979f60e01b815260040160405180910390fd5b7ff0c57e16840df040f15088dc2f81fe391c3923bec73e23a9662efc9c229c6a0054600160401b900460ff166115d657604051631afcd79f60e31b815260040160405180910390fd5b606082611ed057611ecb82611f1a565b611f13565b8151158015611ee757506001600160a01b0384163b155b15611f1057604051639996b31560e01b81526001600160a01b0385166004820152602401611661565b50805b9392505050565b805115611f2a5780518082602001fd5b604051630a12f52160e11b815260040160405180910390fd5b634e487b7160e01b600052604160045260246000fd5b604080519081016001600160401b0381118282101715611f7b57611f7b611f43565b60405290565b604051608081016001600160401b0381118282101715611f7b57611f7b611f43565b604051601f8201601f191681016001600160401b0381118282101715611fcb57611fcb611f43565b604052919050565b60006001600160401b03821115611fec57611fec611f43565b5060051b60200190565b6001600160a01b0381168114610e6057600080fd5b600082601f83011261201c57600080fd5b8135602061203161202c83611fd3565b611fa3565b82815260069290921b8401810191818101908684111561205057600080fd5b8286015b84811015612098576040818903121561206d5760008081fd5b612075611f59565b813561208081611ff6565b81528185013585820152835291830191604001612054565b509695505050505050565b8015158114610e6057600080fd5b600082601f8301126120c257600080fd5b813560206120d261202c83611fd3565b82815260079290921b840181019181810190868411156120f157600080fd5b8286015b84811015612098576080818903121561210e5760008081fd5b612116611f81565b813561212181611ff6565b8152818501358582015260408083013590820152606080830135612144816120a3565b908201528352918301916080016120f5565b60008060008060008060c0878903121561216f57600080fd5b8635955060208701356001600160401b038082111561218d57600080fd5b6121998a838b0161200b565b965060408901359150808211156121af57600080fd5b6121bb8a838b016120b1565b955060608901359150808211156121d157600080fd5b506121de89828a0161200b565b9350506080870135915060a087013590509295509295509295565b60006020828403121561220b57600080fd5b81356001600160e01b031981168114611f1357600080fd5b60006020828403121561223557600080fd5b5035919050565b6000806040838503121561224f57600080fd5b82359150602083013561226181611ff6565b809150509250929050565b60006001600160401b0382111561228557612285611f43565b50601f01601f191660200190565b600080604083850312156122a657600080fd5b82356122b181611ff6565b915060208301356001600160401b038111156122cc57600080fd5b8301601f810185136122dd57600080fd5b80356122eb61202c8261226c565b81815286602083850101111561230057600080fd5b816020840160208301376000602083830101528093505050509250929050565b6000806000806080858703121561233657600080fd5b843561234181611ff6565b9350602085013561235181611ff6565b93969395505050506040820135916060013590565b60008060006060848603121561237b57600080fd5b833561238681611ff6565b95602085013595506040909401359392505050565b600080600080600060a086880312156123b357600080fd5b8535945060208601356001600160401b03808211156123d157600080fd5b6123dd89838a0161200b565b955060408801359150808211156123f357600080fd5b6123ff89838a016120b1565b9450606088013591508082111561241557600080fd5b506124228882890161200b565b9250506080860135612433816120a3565b809150509295509295909350565b60008060008060008060c0878903121561245a57600080fd5b863561246581611ff6565b955060208701359450604087013561247c81611ff6565b9350606087013561248c81611ff6565b9250608087013561249c81611ff6565b915060a08701356124ac81611ff6565b809150509295509295509295565b60005b838110156124d55781810151838201526020016124bd565b50506000910152565b60208152600082518060208401526124fd8160408501602087016124ba565b601f01601f19169190910160400192915050565b60006020828403121561252357600080fd5b8135611f1381611ff6565b600060408083018584526020828186015281865180845260609350838701915082880160005b8281101561259657815180516001600160a01b031685528581015186860152878101518886015286015115158685015260809093019290840190600101612554565b50919998505050505050505050565b6000602082840312156125b757600080fd5b8151611f13816120a3565b634e487b7160e01b600052603260045260246000fd5b600084516125ea8184602089016124ba565b91909101928352506020820152604001919050565b60008551612611818460208a016124ba565b919091019384525060208301919091526040820152606001919050565b600083516126408184602088016124ba565b9190910191825250602001919050565b60006020828403121561266257600080fd5b8151611f1381611ff6565b6000806040838503121561268057600080fd5b825161268b81611ff6565b60208401519092506001600160401b038111156126a757600080fd5b8301601f810185136126b857600080fd5b80516126c661202c8261226c565b8181528660208385010111156126db57600080fd5b6126ec8260208301602086016124ba565b8093505050509250929050565b6000825161270b8184602087016124ba565b9190910192915050565b60006020828403121561272757600080fd5b5051919050565b634e487b7160e01b600052601160045260246000fd5b818103818111156105315761053161272e565b808201808211156105315761053161272e565b600081518084526020808501945080840160005b8381101561279a5781518752958201959082019060010161277e565b509495945050505050565b8281526040602082015260006127be604083018461276a565b949350505050565b838152826020820152606060408201526000611e4a606083018461276a565b600080604083850312156127f857600080fd5b505080516020909101519092909150565b600181815b8085111561284457816000190482111561282a5761282a61272e565b8085161561283757918102915b93841c939080029061280e565b509250929050565b60008261285b57506001610531565b8161286857506000610531565b816001811461287e5760028114612888576128a4565b6001915050610531565b60ff8411156128995761289961272e565b50506001821b610531565b5060208310610133831016604e8410600b84101617156128c7575081810a610531565b6128d18383612809565b80600019048211156128e5576128e561272e565b029392505050565b6000611f13838361284c56fe360894a13ba1a3210667c828492db98dca3e2076cc3735a920a3ca505d382bbc02dd7bc7dec4dceedda775e58dd541e08a116c6c53815c0bd028192f7b626800a2646970667358221220226f6ac27f507810ecff140c09045fcad00acb05b500c93fb2ac1406c2f4613c64736f6c63430008140033",
    "devdoc": {
        "author": "@nimbora 2024",
        "errors": {
            "AccessControlBadConfirmation()": [
                {
                    "details": "The caller of a function is not the expected one. NOTE: Don't confuse with {AccessControlUnauthorizedAccount}."
                }
            ],
            "AccessControlUnauthorizedAccount(address,bytes32)": [
                {
                    "details": "The `account` is missing a role."
                }
            ],
            "AddressEmptyCode(address)": [
                {
                    "details": "There's no code at `target` (it is not a contract)."
                }
            ],
            "ERC1967InvalidImplementation(address)": [
                {
                    "details": "The `implementation` of the proxy is invalid."
                }
            ],
            "ERC1967NonPayable()": [
                {
                    "details": "An upgrade function sees `msg.value > 0` that may be lost."
                }
            ],
            "FailedInnerCall()": [
                {
                    "details": "A call to an address target failed. The target may have reverted."
                }
            ],
            "InvalidInitialization()": [
                {
                    "details": "The contract is already initialized."
                }
            ],
            "NotInitializing()": [
                {
                    "details": "The contract is not initializing."
                }
            ],
            "UUPSUnauthorizedCallContext()": [
                {
                    "details": "The call is from an unauthorized context."
                }
            ],
            "UUPSUnsupportedProxiableUUID(bytes32)": [
                {
                    "details": "The storage `slot` is unsupported as a UUID."
                }
            ]
        },
        "events": {
            "BridgeCancelDepositRequestClaimed(address,uint256,uint256)": {
                "params": {
                    "amount": "the amount to claim from the bridge.",
                    "bridge": "the bridge address.",
                    "nonce": "the deposit nonce."
                }
            },
            "CancelDepositRequestBridgeSent(address,uint256,uint256)": {
                "params": {
                    "amount": "the amount to claim from the bridge.",
                    "bridge": "the bridge address.",
                    "nonce": "the deposit nonce."
                }
            },
            "Initialized(uint64)": {
                "details": "Triggered when the contract has been initialized or reinitialized."
            },
            "ReportHandled(uint256,(address,uint256,uint256,bool)[])": {
                "params": {
                    "epoch": "the report epoch.",
                    "reports": "the list of  strategies updated."
                }
            },
            "RoleAdminChanged(bytes32,bytes32,bytes32)": {
                "details": "Emitted when `newAdminRole` is set as ``role``'s admin role, replacing `previousAdminRole` `DEFAULT_ADMIN_ROLE` is the starting admin for all roles, despite {RoleAdminChanged} not being emitted signaling this."
            },
            "RoleGranted(bytes32,address,address)": {
                "details": "Emitted when `account` is granted `role`. `sender` is the account that originated the contract call, an admin role bearer except when using {AccessControl-_setupRole}."
            },
            "RoleRevoked(bytes32,address,address)": {
                "details": "Emitted when `account` is revoked `role`. `sender` is the account that originated the contract call:   - if using `revokeRole`, it is the admin role bearer   - if using `renounceRole`, it is the role bearer (i.e. `account`)"
            },
            "StrategyRegistered(address)": {
                "params": {
                    "strategy": "the strategy address."
                }
            },
            "Upgraded(address)": {
                "details": "Emitted when the implementation is upgraded."
            }
        },
        "kind": "dev",
        "methods": {
            "cancelDepositRequestBridge(address,uint256,uint256)": {
                "details": "Cancel the deposited tokens when they get stuck. If the fees paid to bridge the tokens are not enough to incentive the sequencer it's possible that the tokens will stay blocked. By calling this function the admin can claim back the tokens.",
                "params": {
                    "_amount": "the amount deposited.",
                    "_bridge": "the bridge address.",
                    "_nonce": "the nonce of the deposit."
                }
            },
            "claimBridgeCancelDepositRequest(address,address,uint256,uint256)": {
                "details": "After calling the 'cancelDepositRequestBridge' the tokens are available after 7days, as this time is too long the admin will send the tokens to L2 and claim back the blocked tokens when they are released by calling this func.",
                "params": {
                    "_amount": "the amount deposited.",
                    "_bridge": "the bridge address.",
                    "_nonce": "the nonce of the deposit.",
                    "_token": "the token address."
                }
            },
            "constructor": {
                "custom:oz-upgrades-unsafe-allow": "constructor"
            },
            "getRoleAdmin(bytes32)": {
                "details": "Returns the admin role that controls `role`. See {grantRole} and {revokeRole}. To change a role's admin, use {_setRoleAdmin}."
            },
            "grantRole(bytes32,address)": {
                "details": "Grants `role` to `account`. If `account` had not been already granted `role`, emits a {RoleGranted} event. Requirements: - the caller must have ``role``'s admin role. May emit a {RoleGranted} event."
            },
            "handleReport(uint256,(address,uint256)[],(address,uint256,uint256,bool)[],(address,uint256)[],uint256,uint256)": {
                "params": {
                    "_bridgeDepositInfo": "a list of {bridgeAddress,amount} to deposit into the bridges, those values are computed on L2.",
                    "_bridgeWithdrawInfo": "a list of {bridgeAddress,amount} to withdraw from the bridges.",
                    "_epoch": "the epoch of the report.",
                    "_l2BridgeEthFee": "the fees to pay for briding tokens to L2.",
                    "_l2MessagingEthFee": "the fees to pay for briding message to L2.",
                    "_strategyReport": "the strategy to apply, can be DEPOSIT, WITHDRAW, UPDATE."
                }
            },
            "hasRole(bytes32,address)": {
                "details": "Returns `true` if `account` has been granted `role`."
            },
            "hashFromReport(uint256,(address,uint256)[],(address,uint256,uint256,bool)[],(address,uint256)[],bool)": {
                "details": "Generates a hash from a strategy report and bridge interaction information, used for data verification and integrity checks."
            },
            "initialize(address,uint256,address,address,address,address)": {
                "params": {
                    "_admin": "the admin address.",
                    "_ethBridge": "the eth bridge address.",
                    "_l2PoolingManager": "the l2 pooling manager address.",
                    "_relayer": "the relayer address.",
                    "_starknetCore": "the Starknet core contract, used to bridge messages.",
                    "_wETH": "the weth address."
                }
            },
            "proxiableUUID()": {
                "details": "Implementation of the ERC1822 {proxiableUUID} function. This returns the storage slot used by the implementation. It is used to validate the implementation's compatibility when performing an upgrade. IMPORTANT: A proxy pointing at a proxiable contract should not be considered proxiable itself, because this risks bricking a proxy that upgrades to it, by delegating to itself until out of gas. Thus it is critical that this function revert if invoked through a proxy. This is guaranteed by the `notDelegated` modifier."
            },
            "registerStrategy(address)": {
                "params": {
                    "_strategy": "the strategy address."
                }
            },
            "renounceRole(bytes32,address)": {
                "details": "Revokes `role` from the calling account. Roles are often managed via {grantRole} and {revokeRole}: this function's purpose is to provide a mechanism for accounts to lose their privileges if they are compromised (such as when a trusted device is misplaced). If the calling account had been revoked `role`, emits a {RoleRevoked} event. Requirements: - the caller must be `callerConfirmation`. May emit a {RoleRevoked} event."
            },
            "revokeRole(bytes32,address)": {
                "details": "Revokes `role` from `account`. If `account` had been granted `role`, emits a {RoleRevoked} event. Requirements: - the caller must have ``role``'s admin role. May emit a {RoleRevoked} event."
            },
            "supportsInterface(bytes4)": {
                "details": "See {IERC165-supportsInterface}."
            },
            "upgradeToAndCall(address,bytes)": {
                "custom:oz-upgrades-unsafe-allow-reachable": "delegatecall",
                "details": "Upgrade the implementation of the proxy to `newImplementation`, and subsequently execute the function call encoded in `data`. Calls {_authorizeUpgrade}. Emits an {Upgraded} event."
            }
        },
        "title": "Starknet Pooling manager contract.",
        "version": 1
    },
    "userdoc": {
        "events": {
            "BridgeCancelDepositRequestClaimed(address,uint256,uint256)": {
                "notice": "Emitted when the func 'cancelDepositRequestBridge' is called"
            },
            "CancelDepositRequestBridgeSent(address,uint256,uint256)": {
                "notice": "Emitted when the func 'cancelDepositRequestBridge' is called"
            },
            "ReportHandled(uint256,(address,uint256,uint256,bool)[])": {
                "notice": "Emitted when a report is handled."
            },
            "StrategyRegistered(address)": {
                "notice": "Emitted when a strategy is registred."
            }
        },
        "kind": "user",
        "methods": {
            "RELAYER_ROLE()": {
                "notice": "Relayer role."
            },
            "ethBridge()": {
                "notice": "ethBridge address."
            },
            "handleReport(uint256,(address,uint256)[],(address,uint256,uint256,bool)[],(address,uint256)[],uint256,uint256)": {
                "notice": "Handle a report."
            },
            "initialize(address,uint256,address,address,address,address)": {
                "notice": "Initialize the Starknet pooling manager contract."
            },
            "l2PoolingManager()": {
                "notice": "The L2 Pooling manager address."
            },
            "registerStrategy(address)": {
                "notice": "List a new strategy."
            },
            "starknetCore()": {
                "notice": "Starknet messaging interface."
            },
            "wETH()": {
                "notice": "wETH address."
            }
        },
        "version": 1
    },
    "storageLayout": {
        "storage": [
            {
                "astId": 1959,
                "contract": "contracts/poolingManager/Implementation/StarknetPoolingManager.sol:StarknetPoolingManager",
                "label": "starknetCore",
                "offset": 0,
                "slot": "0",
                "type": "t_contract(IStarknetMessaging)1814"
            },
            {
                "astId": 2534,
                "contract": "contracts/poolingManager/Implementation/StarknetPoolingManager.sol:StarknetPoolingManager",
                "label": "ethBridge",
                "offset": 0,
                "slot": "1",
                "type": "t_address"
            },
            {
                "astId": 2537,
                "contract": "contracts/poolingManager/Implementation/StarknetPoolingManager.sol:StarknetPoolingManager",
                "label": "wETH",
                "offset": 0,
                "slot": "2",
                "type": "t_address"
            },
            {
                "astId": 2174,
                "contract": "contracts/poolingManager/Implementation/StarknetPoolingManager.sol:StarknetPoolingManager",
                "label": "l2PoolingManager",
                "offset": 0,
                "slot": "3",
                "type": "t_uint256"
            }
        ],
        "types": {
            "t_address": {
                "encoding": "inplace",
                "label": "address",
                "numberOfBytes": "20"
            },
            "t_contract(IStarknetMessaging)1814": {
                "encoding": "inplace",
                "label": "contract IStarknetMessaging",
                "numberOfBytes": "20"
            },
            "t_uint256": {
                "encoding": "inplace",
                "label": "uint256",
                "numberOfBytes": "32"
            }
        }
    }
}