{
  "address": "0x85df4Cb120Ef6ea92dD971Ac08E6b198ed692Aef",
  "abi": [
    {
      "inputs": [],
      "stateMutability": "nonpayable",
      "type": "constructor"
    },
    {
      "inputs": [],
      "name": "AccessControlBadConfirmation",
      "type": "error"
    },
    {
      "inputs": [
        {
          "internalType": "address",
          "name": "account",
          "type": "address"
        },
        {
          "internalType": "bytes32",
          "name": "neededRole",
          "type": "bytes32"
        }
      ],
      "name": "AccessControlUnauthorizedAccount",
      "type": "error"
    },
    {
      "inputs": [
        {
          "internalType": "address",
          "name": "target",
          "type": "address"
        }
      ],
      "name": "AddressEmptyCode",
      "type": "error"
    },
    {
      "inputs": [
        {
          "internalType": "address",
          "name": "implementation",
          "type": "address"
        }
      ],
      "name": "ERC1967InvalidImplementation",
      "type": "error"
    },
    {
      "inputs": [],
      "name": "ERC1967NonPayable",
      "type": "error"
    },
    {
      "inputs": [],
      "name": "FailedInnerCall",
      "type": "error"
    },
    {
      "inputs": [],
      "name": "InvalidInitialization",
      "type": "error"
    },
    {
      "inputs": [],
      "name": "InvalidPoolingManager",
      "type": "error"
    },
    {
      "inputs": [],
      "name": "NotInitializing",
      "type": "error"
    },
    {
      "inputs": [],
      "name": "UUPSUnauthorizedCallContext",
      "type": "error"
    },
    {
      "inputs": [
        {
          "internalType": "bytes32",
          "name": "slot",
          "type": "bytes32"
        }
      ],
      "name": "UUPSUnsupportedProxiableUUID",
      "type": "error"
    },
    {
      "anonymous": false,
      "inputs": [
        {
          "indexed": false,
          "internalType": "address",
          "name": "bridge",
          "type": "address"
        },
        {
          "indexed": false,
          "internalType": "uint256",
          "name": "amount",
          "type": "uint256"
        },
        {
          "indexed": false,
          "internalType": "uint256",
          "name": "nonce",
          "type": "uint256"
        }
      ],
      "name": "BridgeCancelDepositRequestClaimed",
      "type": "event"
    },
    {
      "anonymous": false,
      "inputs": [
        {
          "indexed": false,
          "internalType": "address",
          "name": "bridge",
          "type": "address"
        },
        {
          "indexed": false,
          "internalType": "uint256",
          "name": "amount",
          "type": "uint256"
        },
        {
          "indexed": false,
          "internalType": "uint256",
          "name": "nonce",
          "type": "uint256"
        }
      ],
      "name": "CancelDepositRequestBridgeSent",
      "type": "event"
    },
    {
      "anonymous": false,
      "inputs": [
        {
          "indexed": false,
          "internalType": "uint64",
          "name": "version",
          "type": "uint64"
        }
      ],
      "name": "Initialized",
      "type": "event"
    },
    {
      "anonymous": false,
      "inputs": [
        {
          "indexed": false,
          "internalType": "uint256",
          "name": "epoch",
          "type": "uint256"
        },
        {
          "components": [
            {
              "internalType": "address",
              "name": "l1Strategy",
              "type": "address"
            },
            {
              "internalType": "uint256",
              "name": "data",
              "type": "uint256"
            },
            {
              "internalType": "uint256",
              "name": "amount",
              "type": "uint256"
            },
            {
              "internalType": "bool",
              "name": "processed",
              "type": "bool"
            }
          ],
          "indexed": false,
          "internalType": "struct PoolingManagerBase.StrategyReport[]",
          "name": "reports",
          "type": "tuple[]"
        }
      ],
      "name": "ReportHandled",
      "type": "event"
    },
    {
      "anonymous": false,
      "inputs": [
        {
          "indexed": true,
          "internalType": "bytes32",
          "name": "role",
          "type": "bytes32"
        },
        {
          "indexed": true,
          "internalType": "bytes32",
          "name": "previousAdminRole",
          "type": "bytes32"
        },
        {
          "indexed": true,
          "internalType": "bytes32",
          "name": "newAdminRole",
          "type": "bytes32"
        }
      ],
      "name": "RoleAdminChanged",
      "type": "event"
    },
    {
      "anonymous": false,
      "inputs": [
        {
          "indexed": true,
          "internalType": "bytes32",
          "name": "role",
          "type": "bytes32"
        },
        {
          "indexed": true,
          "internalType": "address",
          "name": "account",
          "type": "address"
        },
        {
          "indexed": true,
          "internalType": "address",
          "name": "sender",
          "type": "address"
        }
      ],
      "name": "RoleGranted",
      "type": "event"
    },
    {
      "anonymous": false,
      "inputs": [
        {
          "indexed": true,
          "internalType": "bytes32",
          "name": "role",
          "type": "bytes32"
        },
        {
          "indexed": true,
          "internalType": "address",
          "name": "account",
          "type": "address"
        },
        {
          "indexed": true,
          "internalType": "address",
          "name": "sender",
          "type": "address"
        }
      ],
      "name": "RoleRevoked",
      "type": "event"
    },
    {
      "anonymous": false,
      "inputs": [
        {
          "indexed": false,
          "internalType": "address",
          "name": "strategy",
          "type": "address"
        }
      ],
      "name": "StrategyRegistered",
      "type": "event"
    },
    {
      "anonymous": false,
      "inputs": [
        {
          "indexed": true,
          "internalType": "address",
          "name": "implementation",
          "type": "address"
        }
      ],
      "name": "Upgraded",
      "type": "event"
    },
    {
      "stateMutability": "payable",
      "type": "fallback"
    },
    {
      "inputs": [],
      "name": "DEFAULT_ADMIN_ROLE",
      "outputs": [
        {
          "internalType": "bytes32",
          "name": "",
          "type": "bytes32"
        }
      ],
      "stateMutability": "view",
      "type": "function"
    },
    {
      "inputs": [],
      "name": "RELAYER_ROLE",
      "outputs": [
        {
          "internalType": "bytes32",
          "name": "",
          "type": "bytes32"
        }
      ],
      "stateMutability": "view",
      "type": "function"
    },
    {
      "inputs": [],
      "name": "UPGRADE_INTERFACE_VERSION",
      "outputs": [
        {
          "internalType": "string",
          "name": "",
          "type": "string"
        }
      ],
      "stateMutability": "view",
      "type": "function"
    },
    {
      "inputs": [
        {
          "internalType": "address",
          "name": "_bridge",
          "type": "address"
        },
        {
          "internalType": "uint256",
          "name": "_amount",
          "type": "uint256"
        },
        {
          "internalType": "uint256",
          "name": "_nonce",
          "type": "uint256"
        }
      ],
      "name": "cancelDepositRequestBridge",
      "outputs": [],
      "stateMutability": "nonpayable",
      "type": "function"
    },
    {
      "inputs": [
        {
          "internalType": "address",
          "name": "_bridge",
          "type": "address"
        },
        {
          "internalType": "address",
          "name": "_token",
          "type": "address"
        },
        {
          "internalType": "uint256",
          "name": "_amount",
          "type": "uint256"
        },
        {
          "internalType": "uint256",
          "name": "_nonce",
          "type": "uint256"
        }
      ],
      "name": "claimBridgeCancelDepositRequest",
      "outputs": [],
      "stateMutability": "nonpayable",
      "type": "function"
    },
    {
      "inputs": [],
      "name": "ethBridge",
      "outputs": [
        {
          "internalType": "address",
          "name": "",
          "type": "address"
        }
      ],
      "stateMutability": "view",
      "type": "function"
    },
    {
      "inputs": [
        {
          "internalType": "bytes32",
          "name": "role",
          "type": "bytes32"
        }
      ],
      "name": "getRoleAdmin",
      "outputs": [
        {
          "internalType": "bytes32",
          "name": "",
          "type": "bytes32"
        }
      ],
      "stateMutability": "view",
      "type": "function"
    },
    {
      "inputs": [
        {
          "internalType": "bytes32",
          "name": "role",
          "type": "bytes32"
        },
        {
          "internalType": "address",
          "name": "account",
          "type": "address"
        }
      ],
      "name": "grantRole",
      "outputs": [],
      "stateMutability": "nonpayable",
      "type": "function"
    },
    {
      "inputs": [
        {
          "internalType": "uint256",
          "name": "_epoch",
          "type": "uint256"
        },
        {
          "components": [
            {
              "internalType": "address",
              "name": "bridge",
              "type": "address"
            },
            {
              "internalType": "uint256",
              "name": "amount",
              "type": "uint256"
            }
          ],
          "internalType": "struct PoolingManagerBase.BridgeData[]",
          "name": "_bridgeWithdrawInfo",
          "type": "tuple[]"
        },
        {
          "components": [
            {
              "internalType": "address",
              "name": "l1Strategy",
              "type": "address"
            },
            {
              "internalType": "uint256",
              "name": "data",
              "type": "uint256"
            },
            {
              "internalType": "uint256",
              "name": "amount",
              "type": "uint256"
            },
            {
              "internalType": "bool",
              "name": "processed",
              "type": "bool"
            }
          ],
          "internalType": "struct PoolingManagerBase.StrategyReport[]",
          "name": "_strategyReport",
          "type": "tuple[]"
        },
        {
          "components": [
            {
              "internalType": "address",
              "name": "bridge",
              "type": "address"
            },
            {
              "internalType": "uint256",
              "name": "amount",
              "type": "uint256"
            }
          ],
          "internalType": "struct PoolingManagerBase.BridgeData[]",
          "name": "_bridgeDepositInfo",
          "type": "tuple[]"
        },
        {
          "internalType": "uint256",
          "name": "_l2BridgeEthFee",
          "type": "uint256"
        },
        {
          "internalType": "uint256",
          "name": "_l2MessagingEthFee",
          "type": "uint256"
        }
      ],
      "name": "handleReport",
      "outputs": [
        {
          "internalType": "bool",
          "name": "",
          "type": "bool"
        }
      ],
      "stateMutability": "payable",
      "type": "function"
    },
    {
      "inputs": [
        {
          "internalType": "bytes32",
          "name": "role",
          "type": "bytes32"
        },
        {
          "internalType": "address",
          "name": "account",
          "type": "address"
        }
      ],
      "name": "hasRole",
      "outputs": [
        {
          "internalType": "bool",
          "name": "",
          "type": "bool"
        }
      ],
      "stateMutability": "view",
      "type": "function"
    },
    {
      "inputs": [
        {
          "internalType": "uint256",
          "name": "_epoch",
          "type": "uint256"
        },
        {
          "components": [
            {
              "internalType": "address",
              "name": "bridge",
              "type": "address"
            },
            {
              "internalType": "uint256",
              "name": "amount",
              "type": "uint256"
            }
          ],
          "internalType": "struct PoolingManagerBase.BridgeData[]",
          "name": "_bridgeWithdrawInfo",
          "type": "tuple[]"
        },
        {
          "components": [
            {
              "internalType": "address",
              "name": "l1Strategy",
              "type": "address"
            },
            {
              "internalType": "uint256",
              "name": "data",
              "type": "uint256"
            },
            {
              "internalType": "uint256",
              "name": "amount",
              "type": "uint256"
            },
            {
              "internalType": "bool",
              "name": "processed",
              "type": "bool"
            }
          ],
          "internalType": "struct PoolingManagerBase.StrategyReport[]",
          "name": "_strategyReport",
          "type": "tuple[]"
        },
        {
          "components": [
            {
              "internalType": "address",
              "name": "bridge",
              "type": "address"
            },
            {
              "internalType": "uint256",
              "name": "amount",
              "type": "uint256"
            }
          ],
          "internalType": "struct PoolingManagerBase.BridgeData[]",
          "name": "_bridgeDepositInfo",
          "type": "tuple[]"
        }
      ],
      "name": "hashFromReport",
      "outputs": [
        {
          "internalType": "uint256",
          "name": "",
          "type": "uint256"
        }
      ],
      "stateMutability": "pure",
      "type": "function"
    },
    {
      "inputs": [
        {
          "internalType": "address",
          "name": "_admin",
          "type": "address"
        },
        {
          "internalType": "uint256",
          "name": "_l2PoolingManager",
          "type": "uint256"
        },
        {
          "internalType": "address",
          "name": "_starknetCore",
          "type": "address"
        },
        {
          "internalType": "address",
          "name": "_relayer",
          "type": "address"
        },
        {
          "internalType": "address",
          "name": "_ethBridge",
          "type": "address"
        },
        {
          "internalType": "address",
          "name": "_wETH",
          "type": "address"
        }
      ],
      "name": "initialize",
      "outputs": [],
      "stateMutability": "nonpayable",
      "type": "function"
    },
    {
      "inputs": [],
      "name": "l2PoolingManager",
      "outputs": [
        {
          "internalType": "uint256",
          "name": "",
          "type": "uint256"
        }
      ],
      "stateMutability": "view",
      "type": "function"
    },
    {
      "inputs": [],
      "name": "proxiableUUID",
      "outputs": [
        {
          "internalType": "bytes32",
          "name": "",
          "type": "bytes32"
        }
      ],
      "stateMutability": "view",
      "type": "function"
    },
    {
      "inputs": [
        {
          "internalType": "address",
          "name": "_strategy",
          "type": "address"
        }
      ],
      "name": "registerStrategy",
      "outputs": [],
      "stateMutability": "nonpayable",
      "type": "function"
    },
    {
      "inputs": [
        {
          "internalType": "bytes32",
          "name": "role",
          "type": "bytes32"
        },
        {
          "internalType": "address",
          "name": "callerConfirmation",
          "type": "address"
        }
      ],
      "name": "renounceRole",
      "outputs": [],
      "stateMutability": "nonpayable",
      "type": "function"
    },
    {
      "inputs": [
        {
          "internalType": "bytes32",
          "name": "role",
          "type": "bytes32"
        },
        {
          "internalType": "address",
          "name": "account",
          "type": "address"
        }
      ],
      "name": "revokeRole",
      "outputs": [],
      "stateMutability": "nonpayable",
      "type": "function"
    },
    {
      "inputs": [],
      "name": "starknetCore",
      "outputs": [
        {
          "internalType": "contract IStarknetMessaging",
          "name": "",
          "type": "address"
        }
      ],
      "stateMutability": "view",
      "type": "function"
    },
    {
      "inputs": [
        {
          "internalType": "bytes4",
          "name": "interfaceId",
          "type": "bytes4"
        }
      ],
      "name": "supportsInterface",
      "outputs": [
        {
          "internalType": "bool",
          "name": "",
          "type": "bool"
        }
      ],
      "stateMutability": "view",
      "type": "function"
    },
    {
      "inputs": [
        {
          "internalType": "address",
          "name": "newImplementation",
          "type": "address"
        },
        {
          "internalType": "bytes",
          "name": "data",
          "type": "bytes"
        }
      ],
      "name": "upgradeToAndCall",
      "outputs": [],
      "stateMutability": "payable",
      "type": "function"
    },
    {
      "inputs": [],
      "name": "wETH",
      "outputs": [
        {
          "internalType": "address",
          "name": "",
          "type": "address"
        }
      ],
      "stateMutability": "view",
      "type": "function"
    },
    {
      "stateMutability": "payable",
      "type": "receive"
    }
  ],
  "transactionHash": "0x3b49ec33393284f485a72c5a1ca5c9ed1f1c96916e1599f15f72269d021c4e87",
  "args": [],
  "numDeployments": 3,
  "solcInputHash": "48d92c3d0b09d2d8f0004976fba4d36f",
  "bytecode": "0x60a0604052306080523480156200001557600080fd5b507ff0c57e16840df040f15088dc2f81fe391c3923bec73e23a9662efc9c229c6a00805468010000000000000000810460ff1615906001600160401b0316600081158015620000615750825b90506000826001600160401b031660011480156200007e5750303b155b9050811580156200008d575080155b15620000ac5760405163f92ee8a960e01b815260040160405180910390fd5b84546001600160401b03191660011785558315620000db57845460ff60401b1916680100000000000000001785555b83156200012257845460ff60401b19168555604051600181527fc7f505b2f371ae2175ee4913f4499e1f2633a7b5936321eed1cdaeb6115181d29060200160405180910390a15b50505050506080516129a56200015160003960008181611587015281816115b001526116fb01526129a56000f3fe6080604052600436106101225760003560e01c80638201801a116100a5578063a2dc2ab71161006c578063a2dc2ab714610320578063ad3cb1cc14610340578063b39941911461037e578063d547741f1461039e578063f2428621146103be578063f5c2c430146103de57005b80638201801a146102775780638f3281a41461029757806391d14854146102b7578063926d7d7f146102d7578063a217fddf1461030b57005b806339e730ab116100e957806339e730ab146101e15780634f1ef2861461021957806352d1902d1461022c5780635f1b6bee146102415780636e9cfef11461026157005b806301f9df0b1461012b57806301ffc9a714610153578063248a9ca3146101735780632f2ff15d146101a157806336568abe146101c157005b3661012957005b005b61013e6101393660046121a1565b6103fe565b60405190151581526020015b60405180910390f35b34801561015f57600080fd5b5061013e61016e366004612244565b6104fc565b34801561017f57600080fd5b5061019361018e36600461226e565b610533565b60405190815260200161014a565b3480156101ad57600080fd5b506101296101bc366004612287565b610555565b3480156101cd57600080fd5b506101296101dc366004612287565b610577565b3480156101ed57600080fd5b50600054610201906001600160a01b031681565b6040516001600160a01b03909116815260200161014a565b6101296102273660046122de565b6105af565b34801561023857600080fd5b506101936105ce565b34801561024d57600080fd5b5061012961025c36600461236b565b6105eb565b34801561026d57600080fd5b5061019360035481565b34801561028357600080fd5b506101296102923660046123b1565b610711565b3480156102a357600080fd5b50600154610201906001600160a01b031681565b3480156102c357600080fd5b5061013e6102d2366004612287565b61077b565b3480156102e357600080fd5b506101937fe2b7fb3b832174769106daebcfd6d1970523240dda11281102db9363b83b0dc481565b34801561031757600080fd5b50610193600081565b34801561032c57600080fd5b5061012961033b3660046123e6565b6107b3565b34801561034c57600080fd5b50610371604051806040016040528060058152602001640352e302e360dc1b81525081565b60405161014a9190612483565b34801561038a57600080fd5b506101936103993660046124b6565b6108e9565b3480156103aa57600080fd5b506101296103b9366004612287565b610b25565b3480156103ca57600080fd5b50600254610201906001600160a01b031681565b3480156103ea57600080fd5b506101296103f9366004612547565b610b41565b60007fe2b7fb3b832174769106daebcfd6d1970523240dda11281102db9363b83b0dc461042a81610e4b565b61043e610439898989896108e9565b610e58565b61044787610e6e565b60006104538787610f7d565b905061045f8686611336565b604080516000808252602082019092528161049c565b60408051808201909152600080825260208201528152602001906001900390816104755790505b5090506104b68a6104b06000848c866108e9565b87611424565b7f640622c00eb8dd98d3184ad993595f70972d855fe160e4a6291b7a0bf04d33928a896040516104e7929190612564565b60405180910390a15098975050505050505050565b60006001600160e01b03198216637965db0b60e01b148061052d57506301ffc9a760e01b6001600160e01b03198316145b92915050565b6000908152600080516020612950833981519152602052604090206001015490565b61055e82610533565b61056781610e4b565b610571838361145b565b50505050565b6001600160a01b03811633146105a05760405163334bd91960e11b815260040160405180910390fd5b6105aa8282611500565b505050565b6105b761157c565b6105c082611623565b6105ca828261162e565b5050565b60006105d86116f0565b5060008051602061293083398151915290565b60006105f681610e4b565b610604856003548585611739565b6001546001600160a01b039081169086160361064d57604051339084156108fc029085906000818181858888f19350505050158015610647573d6000803e3d6000fd5b506106c0565b60405163a9059cbb60e01b8152336004820152602481018490526001600160a01b0385169063a9059cbb906044016020604051808303816000875af115801561069a573d6000803e3d6000fd5b505050506040513d601f19601f820116820180604052508101906106be91906125db565b505b604080516001600160a01b0387168152602081018590529081018390527fe01d4a733cb0b7a41727e1953d897f19b615151ff9861c9fc205800481dacf739060600160405180910390a15050505050565b600061071c81610e4b565b61072a8460035485856117ae565b604080516001600160a01b0386168152602081018590529081018390527f6bede034b368efac88a4cd28b60aac75bec57160af2185de376fa635b11feceb906060015b60405180910390a150505050565b6000918252600080516020612950833981519152602090815260408084206001600160a01b0393909316845291905290205460ff1690565b7ff0c57e16840df040f15088dc2f81fe391c3923bec73e23a9662efc9c229c6a008054600160401b810460ff1615906001600160401b03166000811580156107f85750825b90506000826001600160401b031660011480156108145750303b155b905081158015610822575080155b156108405760405163f92ee8a960e01b815260040160405180910390fd5b845467ffffffffffffffff19166001178555831561086a57845460ff60401b1916600160401b1785555b600080546001600160a01b0319166001600160a01b038b161790556108918b8989896117ef565b60038a905583156108dc57845460ff60401b19168555604051600181527fc7f505b2f371ae2175ee4913f4499e1f2633a7b5936321eed1cdaeb6115181d29060200160405180910390a15b5050505050505050505050565b6000808560000361090857604080516000815260208101909152610924565b6040805160208101889052016040516020818303038152906040525b905060005b85518110156109a45781868281518110610945576109456125f8565b6020026020010151600001516001600160a01b031687838151811061096c5761096c6125f8565b60200260200101516020015160405160200161098a9392919061260e565b60408051601f198184030181529190529150600101610929565b5060005b8451811015610a9457818582815181106109c4576109c46125f8565b6020026020010151600001516001600160a01b03168683815181106109eb576109eb6125f8565b602002602001015160200151878481518110610a0957610a096125f8565b602002602001015160400151604051602001610a289493929190612635565b604051602081830303815290604052915081858281518110610a4c57610a4c6125f8565b602002602001015160600151610a63576000610a66565b60015b60ff16604051602001610a7a929190612664565b60408051601f1981840301815291905291506001016109a8565b5060005b8351811015610b135781848281518110610ab457610ab46125f8565b6020026020010151600001516001600160a01b0316858381518110610adb57610adb6125f8565b602002602001015160200151604051602001610af99392919061260e565b60408051601f198184030181529190529150600101610a98565b50805160209091012095945050505050565b610b2e82610533565b610b3781610e4b565b6105718383611500565b6000610b4c81610e4b565b6000829050306001600160a01b0316816001600160a01b031663d7f708036040518163ffffffff1660e01b8152600401602060405180830381865afa158015610b99573d6000803e3d6000fd5b505050506040513d601f19601f82011682018060405250810190610bbd9190612686565b6001600160a01b031614610be4576040516369fad3d560e11b815260040160405180910390fd5b6000836001600160a01b0316632495a5996040518163ffffffff1660e01b8152600401602060405180830381865afa158015610c24573d6000803e3d6000fd5b505050506040513d601f19601f82011682018060405250810190610c489190612686565b9050806001600160a01b031663095ea7b3836001600160a01b031663e78cea926040518163ffffffff1660e01b8152600401602060405180830381865afa158015610c97573d6000803e3d6000fd5b505050506040513d601f19601f82011682018060405250810190610cbb9190612686565b6040516001600160e01b031960e084901b1681526001600160a01b03909116600482015260001960248201526044016020604051808303816000875af1158015610d09573d6000803e3d6000fd5b505050506040513d601f19601f82011682018060405250810190610d2d91906125db565b50806001600160a01b031663095ea7b3836001600160a01b03166321a92c446040518163ffffffff1660e01b8152600401602060405180830381865afa158015610d7b573d6000803e3d6000fd5b505050506040513d601f19601f82011682018060405250810190610d9f9190612686565b6040516001600160e01b031960e084901b1681526001600160a01b03909116600482015260001960248201526044016020604051808303816000875af1158015610ded573d6000803e3d6000fd5b505050506040513d601f19601f82011682018060405250810190610e1191906125db565b506040516001600160a01b03851681527f3dd75e2398f3f43733be2a92283f289c653b2cbe3bd767c8747d8f0493db37e99060200161076d565b610e55813361196e565b50565b610e55600354610e696000846119a7565b611ae6565b60005b81518110156105ca57610ebe828281518110610e8f57610e8f6125f8565b602002602001015160000151838381518110610ead57610ead6125f8565b602002602001015160200151611b5a565b60015482516001600160a01b0390911690839083908110610ee157610ee16125f8565b6020026020010151600001516001600160a01b031603610f755760025482516001600160a01b039091169063d0e30db090849084908110610f2457610f246125f8565b6020026020010151602001516040518263ffffffff1660e01b81526004016000604051808303818588803b158015610f5b57600080fd5b505af1158015610f6f573d6000803e3d6000fd5b50505050505b600101610e71565b60006001815b845181101561132e576000858281518110610fa057610fa06125f8565b6020908102919091018101518051918101516040820151919350908260006001846110b15760405163f1ea61e560e01b81526004810185905260009081906001600160a01b0386169063f1ea61e590602401600060405180830381865afa15801561100f573d6000803e3d6000fd5b505050506040513d6000823e601f3d908101601f1916820160405261103791908101906126a3565b915091506000826001600160a01b031682604051611055919061272f565b6000604051808303816000865af19150503d8060008114611092576040519150601f19603f3d011682016040523d82523d6000602084013e611097565b606091505b50509050806110a9576000935060009b505b50505061121a565b6002850361121a57604051632e1a7d4d60e01b8152600481018590526001600160a01b03841690632e1a7d4d906024016020604051808303816000875af192505050801561111c575060408051601f3d908101601f191682019092526111199181019061274b565b60015b61119957600090506000985061119484846001600160a01b031663e78cea926040518163ffffffff1660e01b8152600401602060405180830381865afa15801561116a573d6000803e3d6000fd5b505050506040513d601f19601f8201168201806040525081019061118e9190612686565b8d611b65565b61121a565b809250848314611218576112186111b0848761277a565b856001600160a01b031663e78cea926040518163ffffffff1660e01b8152600401602060405180830381865afa1580156111ee573d6000803e3d6000fd5b505050506040513d601f19601f820116820180604052508101906112129190612686565b8e611b65565b505b80156112d0576040518060800160405280846001600160a01b03168152602001846001600160a01b031663c1590cd76040518163ffffffff1660e01b8152600401602060405180830381865afa158015611278573d6000803e3d6000fd5b505050506040513d601f19601f8201168201806040525081019061129c919061274b565b8152602001838152602001600115158152508c89815181106112c0576112c06125f8565b602002602001018190525061131b565b6040518060800160405280846001600160a01b03168152602001868152602001858152602001600015158152508c898151811061130f5761130f6125f8565b60200260200101819052505b505060019095019450610f839350505050565b509392505050565b60005b82518110156105aa576000838281518110611356576113566125f8565b602090810291909101015160015481519192506001600160a01b0391821691161480156113e7576002546020830151604051632e1a7d4d60e01b81526001600160a01b0390921691632e1a7d4d916113b49160040190815260200190565b600060405180830381600087803b1580156113ce57600080fd5b505af11580156113e2573d6000803e3d6000fd5b505050505b6000816113f45784611404565b848360200151611404919061278d565b90506114198360000151846020015183611be4565b505050600101611339565b6105aa6003547f010e13e50cb99b6b3c8270ec6e16acfccbe1164a629d74b43549567a77593aff61145586866119a7565b84611bf2565b6000600080516020612950833981519152611476848461077b565b6114f6576000848152602082815260408083206001600160a01b03871684529091529020805460ff191660011790556114ac3390565b6001600160a01b0316836001600160a01b0316857f2f8788117e7eff1d82e926ec794901d17c78024a50270940304540a733656f0d60405160405180910390a4600191505061052d565b600091505061052d565b600060008051602061295083398151915261151b848461077b565b156114f6576000848152602082815260408083206001600160a01b0387168085529252808320805460ff1916905551339287917ff6391f5c32d9c69d2a47ea670b442974b53935d1edc7fd64eb21e047a839171b9190a4600191505061052d565b306001600160a01b037f000000000000000000000000000000000000000000000000000000000000000016148061160357507f00000000000000000000000000000000000000000000000000000000000000006001600160a01b03166115f7600080516020612930833981519152546001600160a01b031690565b6001600160a01b031614155b156116215760405163703e46dd60e11b815260040160405180910390fd5b565b60006105ca81610e4b565b816001600160a01b03166352d1902d6040518163ffffffff1660e01b8152600401602060405180830381865afa925050508015611688575060408051601f3d908101601f191682019092526116859181019061274b565b60015b6116b557604051634c9c8ce360e01b81526001600160a01b03831660048201526024015b60405180910390fd5b60008051602061293083398151915281146116e657604051632a87526960e21b8152600481018290526024016116ac565b6105aa8383611c72565b306001600160a01b037f000000000000000000000000000000000000000000000000000000000000000016146116215760405163703e46dd60e11b815260040160405180910390fd5b8115610571576040516357439c0b60e11b81526004810183905260248101849052604481018290526001600160a01b0385169063ae873816906064015b600060405180830381600087803b15801561179057600080fd5b505af11580156117a4573d6000803e3d6000fd5b5050505050505050565b81156105715760405163262b3b3160e11b81526004810183905260248101849052604481018290526001600160a01b03851690634c56766290606401611776565b7ff0c57e16840df040f15088dc2f81fe391c3923bec73e23a9662efc9c229c6a008054600160401b810460ff1615906001600160401b03166000811580156118345750825b90506000826001600160401b031660011480156118505750303b155b90508115801561185e575080155b1561187c5760405163f92ee8a960e01b815260040160405180910390fd5b845467ffffffffffffffff1916600117855583156118a657845460ff60401b1916600160401b1785555b6118ae611cc8565b6118b6611cc8565b6118c160008a61145b565b506118ec7fe2b7fb3b832174769106daebcfd6d1970523240dda11281102db9363b83b0dc48961145b565b50600180546001600160a01b03808a166001600160a01b0319928316179092556002805492891692909116919091179055831561196357845460ff60401b19168555604051600181527fc7f505b2f371ae2175ee4913f4499e1f2633a7b5936321eed1cdaeb6115181d29060200160405180910390a15b505050505050505050565b611978828261077b565b6105ca5760405163e2517d3f60e01b81526001600160a01b0382166004820152602481018390526044016116ac565b6060806000806119b685611cd0565b9150915085600003611a2757604080516002808252606082018352909160208301908036833701905050925081836000815181106119f6576119f66125f8565b6020026020010181815250508083600181518110611a1657611a166125f8565b602002602001018181525050611adc565b600080611a3388611cd0565b60408051600480825260a08201909252929450909250602082016080803683370190505094508185600081518110611a6d57611a6d6125f8565b6020026020010181815250508085600181518110611a8d57611a8d6125f8565b6020026020010181815250508385600281518110611aad57611aad6125f8565b6020026020010181815250508285600381518110611acd57611acd6125f8565b60200260200101818152505050505b5090949350505050565b60005460405162b2775760e61b81526001600160a01b0390911690632c9dd5c090611b1790859085906004016127db565b6020604051808303816000875af1158015611b36573d6000803e3d6000fd5b505050506040513d601f19601f820116820180604052508101906105aa919061274b565b6105ca823083611cfa565b60005b8151811015610571576000828281518110611b8557611b856125f8565b60200260200101519050836001600160a01b031681600001516001600160a01b031603611bdb5784838381518110611bbf57611bbf6125f8565b6020026020010151602001818151611bd7919061277a565b9052505b50600101611b68565b6105aa836003548484611d5f565b600054604051633e3aa6c560e01b81526001600160a01b0390911690633e3aa6c5908390611c28908890889088906004016127fc565b604080518083038185885af1158015611c45573d6000803e3d6000fd5b50505050506040513d601f19601f82011682018060405250810190611c6a919061281b565b505050505050565b611c7b82611dc3565b6040516001600160a01b038316907fbc7cd75a20ee27fd9adebab32041f755214dbc6bffa90cc0225b39da2e5c2d3b90600090a2805115611cc0576105aa8282611e28565b6105ca611e9e565b611621611ebd565b6000806001611ce160806002612923565b611ceb919061277a565b83169360809390931c92915050565b604051627b8a6760e11b8152600481018290526001600160a01b03838116602483015284169062f714ce90604401600060405180830381600087803b158015611d4257600080fd5b505af1158015611d56573d6000803e3d6000fd5b50505050505050565b811561057157604051631c57762b60e31b815260048101839052602481018490526001600160a01b0385169063e2bbb1589083906044016000604051808303818588803b158015611daf57600080fd5b505af1158015611963573d6000803e3d6000fd5b806001600160a01b03163b600003611df957604051634c9c8ce360e01b81526001600160a01b03821660048201526024016116ac565b60008051602061293083398151915280546001600160a01b0319166001600160a01b0392909216919091179055565b6060600080846001600160a01b031684604051611e45919061272f565b600060405180830381855af49150503d8060008114611e80576040519150601f19603f3d011682016040523d82523d6000602084013e611e85565b606091505b5091509150611e95858383611f06565b95945050505050565b34156116215760405163b398979f60e01b815260040160405180910390fd5b7ff0c57e16840df040f15088dc2f81fe391c3923bec73e23a9662efc9c229c6a0054600160401b900460ff1661162157604051631afcd79f60e31b815260040160405180910390fd5b606082611f1b57611f1682611f65565b611f5e565b8151158015611f3257506001600160a01b0384163b155b15611f5b57604051639996b31560e01b81526001600160a01b03851660048201526024016116ac565b50805b9392505050565b805115611f755780518082602001fd5b604051630a12f52160e11b815260040160405180910390fd5b634e487b7160e01b600052604160045260246000fd5b604080519081016001600160401b0381118282101715611fc657611fc6611f8e565b60405290565b604051608081016001600160401b0381118282101715611fc657611fc6611f8e565b604051601f8201601f191681016001600160401b038111828210171561201657612016611f8e565b604052919050565b60006001600160401b0382111561203757612037611f8e565b5060051b60200190565b6001600160a01b0381168114610e5557600080fd5b600082601f83011261206757600080fd5b8135602061207c6120778361201e565b611fee565b82815260069290921b8401810191818101908684111561209b57600080fd5b8286015b848110156120e357604081890312156120b85760008081fd5b6120c0611fa4565b81356120cb81612041565b8152818501358582015283529183019160400161209f565b509695505050505050565b8015158114610e5557600080fd5b600082601f83011261210d57600080fd5b8135602061211d6120778361201e565b82815260079290921b8401810191818101908684111561213c57600080fd5b8286015b848110156120e357608081890312156121595760008081fd5b612161611fcc565b813561216c81612041565b815281850135858201526040808301359082015260608083013561218f816120ee565b90820152835291830191608001612140565b60008060008060008060c087890312156121ba57600080fd5b8635955060208701356001600160401b03808211156121d857600080fd5b6121e48a838b01612056565b965060408901359150808211156121fa57600080fd5b6122068a838b016120fc565b9550606089013591508082111561221c57600080fd5b5061222989828a01612056565b9350506080870135915060a087013590509295509295509295565b60006020828403121561225657600080fd5b81356001600160e01b031981168114611f5e57600080fd5b60006020828403121561228057600080fd5b5035919050565b6000806040838503121561229a57600080fd5b8235915060208301356122ac81612041565b809150509250929050565b60006001600160401b038211156122d0576122d0611f8e565b50601f01601f191660200190565b600080604083850312156122f157600080fd5b82356122fc81612041565b915060208301356001600160401b0381111561231757600080fd5b8301601f8101851361232857600080fd5b8035612336612077826122b7565b81815286602083850101111561234b57600080fd5b816020840160208301376000602083830101528093505050509250929050565b6000806000806080858703121561238157600080fd5b843561238c81612041565b9350602085013561239c81612041565b93969395505050506040820135916060013590565b6000806000606084860312156123c657600080fd5b83356123d181612041565b95602085013595506040909401359392505050565b60008060008060008060c087890312156123ff57600080fd5b863561240a81612041565b955060208701359450604087013561242181612041565b9350606087013561243181612041565b9250608087013561244181612041565b915060a087013561245181612041565b809150509295509295509295565b60005b8381101561247a578181015183820152602001612462565b50506000910152565b60208152600082518060208401526124a281604085016020870161245f565b601f01601f19169190910160400192915050565b600080600080608085870312156124cc57600080fd5b8435935060208501356001600160401b03808211156124ea57600080fd5b6124f688838901612056565b9450604087013591508082111561250c57600080fd5b612518888389016120fc565b9350606087013591508082111561252e57600080fd5b5061253b87828801612056565b91505092959194509250565b60006020828403121561255957600080fd5b8135611f5e81612041565b600060408083018584526020828186015281865180845260609350838701915082880160005b828110156125cc57815180516001600160a01b03168552858101518686015287810151888601528601511515868501526080909301929084019060010161258a565b50919998505050505050505050565b6000602082840312156125ed57600080fd5b8151611f5e816120ee565b634e487b7160e01b600052603260045260246000fd5b6000845161262081846020890161245f565b91909101928352506020820152604001919050565b60008551612647818460208a0161245f565b919091019384525060208301919091526040820152606001919050565b6000835161267681846020880161245f565b9190910191825250602001919050565b60006020828403121561269857600080fd5b8151611f5e81612041565b600080604083850312156126b657600080fd5b82516126c181612041565b60208401519092506001600160401b038111156126dd57600080fd5b8301601f810185136126ee57600080fd5b80516126fc612077826122b7565b81815286602083850101111561271157600080fd5b61272282602083016020860161245f565b8093505050509250929050565b6000825161274181846020870161245f565b9190910192915050565b60006020828403121561275d57600080fd5b5051919050565b634e487b7160e01b600052601160045260246000fd5b8181038181111561052d5761052d612764565b8082018082111561052d5761052d612764565b600081518084526020808501945080840160005b838110156127d0578151875295820195908201906001016127b4565b509495945050505050565b8281526040602082015260006127f460408301846127a0565b949350505050565b838152826020820152606060408201526000611e9560608301846127a0565b6000806040838503121561282e57600080fd5b505080516020909101519092909150565b600181815b8085111561287a57816000190482111561286057612860612764565b8085161561286d57918102915b93841c9390800290612844565b509250929050565b6000826128915750600161052d565b8161289e5750600061052d565b81600181146128b457600281146128be576128da565b600191505061052d565b60ff8411156128cf576128cf612764565b50506001821b61052d565b5060208310610133831016604e8410600b84101617156128fd575081810a61052d565b612907838361283f565b806000190482111561291b5761291b612764565b029392505050565b6000611f5e838361288256fe360894a13ba1a3210667c828492db98dca3e2076cc3735a920a3ca505d382bbc02dd7bc7dec4dceedda775e58dd541e08a116c6c53815c0bd028192f7b626800a2646970667358221220755afa64d3e8265d200ea0be5c6450b3f542f8275aa9a4cfe070d4ee634bed3564736f6c63430008140033",
  "devdoc": {
    "author": "@nimbora 2024",
    "errors": {
      "AccessControlBadConfirmation()": [
        {
          "details": "The caller of a function is not the expected one. NOTE: Don't confuse with {AccessControlUnauthorizedAccount}."
        }
      ],
      "AccessControlUnauthorizedAccount(address,bytes32)": [
        {
          "details": "The `account` is missing a role."
        }
      ],
      "AddressEmptyCode(address)": [
        {
          "details": "There's no code at `target` (it is not a contract)."
        }
      ],
      "ERC1967InvalidImplementation(address)": [
        {
          "details": "The `implementation` of the proxy is invalid."
        }
      ],
      "ERC1967NonPayable()": [
        {
          "details": "An upgrade function sees `msg.value > 0` that may be lost."
        }
      ],
      "FailedInnerCall()": [
        {
          "details": "A call to an address target failed. The target may have reverted."
        }
      ],
      "InvalidInitialization()": [
        {
          "details": "The contract is already initialized."
        }
      ],
      "NotInitializing()": [
        {
          "details": "The contract is not initializing."
        }
      ],
      "UUPSUnauthorizedCallContext()": [
        {
          "details": "The call is from an unauthorized context."
        }
      ],
      "UUPSUnsupportedProxiableUUID(bytes32)": [
        {
          "details": "The storage `slot` is unsupported as a UUID."
        }
      ]
    },
    "events": {
      "BridgeCancelDepositRequestClaimed(address,uint256,uint256)": {
        "params": {
          "amount": "the amount to claim from the bridge.",
          "bridge": "the bridge address.",
          "nonce": "the deposit nonce."
        }
      },
      "CancelDepositRequestBridgeSent(address,uint256,uint256)": {
        "params": {
          "amount": "the amount to claim from the bridge.",
          "bridge": "the bridge address.",
          "nonce": "the deposit nonce."
        }
      },
      "Initialized(uint64)": {
        "details": "Triggered when the contract has been initialized or reinitialized."
      },
      "ReportHandled(uint256,(address,uint256,uint256,bool)[])": {
        "params": {
          "epoch": "the report epoch.",
          "reports": "the list of  strategies updated."
        }
      },
      "RoleAdminChanged(bytes32,bytes32,bytes32)": {
        "details": "Emitted when `newAdminRole` is set as ``role``'s admin role, replacing `previousAdminRole` `DEFAULT_ADMIN_ROLE` is the starting admin for all roles, despite {RoleAdminChanged} not being emitted signaling this."
      },
      "RoleGranted(bytes32,address,address)": {
        "details": "Emitted when `account` is granted `role`. `sender` is the account that originated the contract call, an admin role bearer except when using {AccessControl-_setupRole}."
      },
      "RoleRevoked(bytes32,address,address)": {
        "details": "Emitted when `account` is revoked `role`. `sender` is the account that originated the contract call:   - if using `revokeRole`, it is the admin role bearer   - if using `renounceRole`, it is the role bearer (i.e. `account`)"
      },
      "StrategyRegistered(address)": {
        "params": {
          "strategy": "the strategy address."
        }
      },
      "Upgraded(address)": {
        "details": "Emitted when the implementation is upgraded."
      }
    },
    "kind": "dev",
    "methods": {
      "cancelDepositRequestBridge(address,uint256,uint256)": {
        "details": "Cancel the deposited tokens when they get stuck. If the fees paid to bridge the tokens are not enough to incentive the sequencer it's possible that the tokens will stay blocked. By calling this function the admin can claim back the tokens.",
        "params": {
          "_amount": "the amount deposited.",
          "_bridge": "the bridge address.",
          "_nonce": "the nonce of the deposit."
        }
      },
      "claimBridgeCancelDepositRequest(address,address,uint256,uint256)": {
        "details": "After calling the 'cancelDepositRequestBridge' the tokens are available after 7days, as this time is too long the admin will send the tokens to L2 and claim back the blocked tokens when they are released by calling this func.",
        "params": {
          "_amount": "the amount deposited.",
          "_bridge": "the bridge address.",
          "_nonce": "the nonce of the deposit.",
          "_token": "the token address."
        }
      },
      "constructor": {
        "custom:oz-upgrades-unsafe-allow": "constructor"
      },
      "getRoleAdmin(bytes32)": {
        "details": "Returns the admin role that controls `role`. See {grantRole} and {revokeRole}. To change a role's admin, use {_setRoleAdmin}."
      },
      "grantRole(bytes32,address)": {
        "details": "Grants `role` to `account`. If `account` had not been already granted `role`, emits a {RoleGranted} event. Requirements: - the caller must have ``role``'s admin role. May emit a {RoleGranted} event."
      },
      "handleReport(uint256,(address,uint256)[],(address,uint256,uint256,bool)[],(address,uint256)[],uint256,uint256)": {
        "params": {
          "_bridgeDepositInfo": "a list of {bridgeAddress,amount} to deposit into the bridges, those values are computed on L2.",
          "_bridgeWithdrawInfo": "a list of {bridgeAddress,amount} to withdraw from the bridges.",
          "_epoch": "the epoch of the report.",
          "_l2BridgeEthFee": "the fees to pay for briding tokens to L2.",
          "_l2MessagingEthFee": "the fees to pay for briding message to L2.",
          "_strategyReport": "the strategy to apply, can be DEPOSIT, WITHDRAW, UPDATE."
        }
      },
      "hasRole(bytes32,address)": {
        "details": "Returns `true` if `account` has been granted `role`."
      },
      "hashFromReport(uint256,(address,uint256)[],(address,uint256,uint256,bool)[],(address,uint256)[])": {
        "details": "Generates a hash from a strategy report and bridge interaction information, used for data verification and integrity checks."
      },
      "initialize(address,uint256,address,address,address,address)": {
        "params": {
          "_admin": "the admin address.",
          "_ethBridge": "the eth bridge address.",
          "_l2PoolingManager": "the l2 pooling manager address.",
          "_relayer": "the relayer address.",
          "_starknetCore": "the Starknet core contract, used to bridge messages.",
          "_wETH": "the weth address."
        }
      },
      "proxiableUUID()": {
        "details": "Implementation of the ERC1822 {proxiableUUID} function. This returns the storage slot used by the implementation. It is used to validate the implementation's compatibility when performing an upgrade. IMPORTANT: A proxy pointing at a proxiable contract should not be considered proxiable itself, because this risks bricking a proxy that upgrades to it, by delegating to itself until out of gas. Thus it is critical that this function revert if invoked through a proxy. This is guaranteed by the `notDelegated` modifier."
      },
      "registerStrategy(address)": {
        "params": {
          "_strategy": "the strategy address."
        }
      },
      "renounceRole(bytes32,address)": {
        "details": "Revokes `role` from the calling account. Roles are often managed via {grantRole} and {revokeRole}: this function's purpose is to provide a mechanism for accounts to lose their privileges if they are compromised (such as when a trusted device is misplaced). If the calling account had been revoked `role`, emits a {RoleRevoked} event. Requirements: - the caller must be `callerConfirmation`. May emit a {RoleRevoked} event."
      },
      "revokeRole(bytes32,address)": {
        "details": "Revokes `role` from `account`. If `account` had been granted `role`, emits a {RoleRevoked} event. Requirements: - the caller must have ``role``'s admin role. May emit a {RoleRevoked} event."
      },
      "supportsInterface(bytes4)": {
        "details": "See {IERC165-supportsInterface}."
      },
      "upgradeToAndCall(address,bytes)": {
        "custom:oz-upgrades-unsafe-allow-reachable": "delegatecall",
        "details": "Upgrade the implementation of the proxy to `newImplementation`, and subsequently execute the function call encoded in `data`. Calls {_authorizeUpgrade}. Emits an {Upgraded} event."
      }
    },
    "title": "Starknet Pooling manager contract.",
    "version": 1
  },
  "userdoc": {
    "events": {
      "BridgeCancelDepositRequestClaimed(address,uint256,uint256)": {
        "notice": "Emitted when the func 'cancelDepositRequestBridge' is called"
      },
      "CancelDepositRequestBridgeSent(address,uint256,uint256)": {
        "notice": "Emitted when the func 'cancelDepositRequestBridge' is called"
      },
      "ReportHandled(uint256,(address,uint256,uint256,bool)[])": {
        "notice": "Emitted when a report is handled."
      },
      "StrategyRegistered(address)": {
        "notice": "Emitted when a strategy is registred."
      }
    },
    "kind": "user",
    "methods": {
      "RELAYER_ROLE()": {
        "notice": "Relayer role."
      },
      "ethBridge()": {
        "notice": "ethBridge address."
      },
      "handleReport(uint256,(address,uint256)[],(address,uint256,uint256,bool)[],(address,uint256)[],uint256,uint256)": {
        "notice": "Handle a report."
      },
      "initialize(address,uint256,address,address,address,address)": {
        "notice": "Initialize the Starknet pooling manager contract."
      },
      "l2PoolingManager()": {
        "notice": "The L2 Pooling manager address."
      },
      "registerStrategy(address)": {
        "notice": "List a new strategy."
      },
      "starknetCore()": {
        "notice": "Starknet messaging interface."
      },
      "wETH()": {
        "notice": "wETH address."
      }
    },
    "version": 1
  },
  "storageLayout": {
    "storage": [
      {
        "astId": 1959,
        "contract": "contracts/poolingManager/Implementation/StarknetPoolingManager.sol:StarknetPoolingManager",
        "label": "starknetCore",
        "offset": 0,
        "slot": "0",
        "type": "t_contract(IStarknetMessaging)1814"
      },
      {
        "astId": 2534,
        "contract": "contracts/poolingManager/Implementation/StarknetPoolingManager.sol:StarknetPoolingManager",
        "label": "ethBridge",
        "offset": 0,
        "slot": "1",
        "type": "t_address"
      },
      {
        "astId": 2537,
        "contract": "contracts/poolingManager/Implementation/StarknetPoolingManager.sol:StarknetPoolingManager",
        "label": "wETH",
        "offset": 0,
        "slot": "2",
        "type": "t_address"
      },
      {
        "astId": 2174,
        "contract": "contracts/poolingManager/Implementation/StarknetPoolingManager.sol:StarknetPoolingManager",
        "label": "l2PoolingManager",
        "offset": 0,
        "slot": "3",
        "type": "t_uint256"
      }
    ],
    "types": {
      "t_address": {
        "encoding": "inplace",
        "label": "address",
        "numberOfBytes": "20"
      },
      "t_contract(IStarknetMessaging)1814": {
        "encoding": "inplace",
        "label": "contract IStarknetMessaging",
        "numberOfBytes": "20"
      },
      "t_uint256": {
        "encoding": "inplace",
        "label": "uint256",
        "numberOfBytes": "32"
      }
    }
  }
}