{
  "address": "0xf68f17fCcf5cB9556c303227B26e53445C9975A8",
  "abi": [
    {
      "inputs": [],
      "stateMutability": "nonpayable",
      "type": "constructor"
    },
    {
      "inputs": [
        {
          "internalType": "address",
          "name": "target",
          "type": "address"
        }
      ],
      "name": "AddressEmptyCode",
      "type": "error"
    },
    {
      "inputs": [],
      "name": "CallerIsNotAdmin",
      "type": "error"
    },
    {
      "inputs": [],
      "name": "CallerIsNotPoolingManager",
      "type": "error"
    },
    {
      "inputs": [
        {
          "internalType": "address",
          "name": "implementation",
          "type": "address"
        }
      ],
      "name": "ERC1967InvalidImplementation",
      "type": "error"
    },
    {
      "inputs": [],
      "name": "ERC1967NonPayable",
      "type": "error"
    },
    {
      "inputs": [],
      "name": "FailedInnerCall",
      "type": "error"
    },
    {
      "inputs": [],
      "name": "InvalidInitialization",
      "type": "error"
    },
    {
      "inputs": [],
      "name": "InvalidSlippage",
      "type": "error"
    },
    {
      "inputs": [],
      "name": "NotInitializing",
      "type": "error"
    },
    {
      "inputs": [],
      "name": "PoolNotExist",
      "type": "error"
    },
    {
      "inputs": [],
      "name": "UUPSUnauthorizedCallContext",
      "type": "error"
    },
    {
      "inputs": [
        {
          "internalType": "bytes32",
          "name": "slot",
          "type": "bytes32"
        }
      ],
      "name": "UUPSUnsupportedProxiableUUID",
      "type": "error"
    },
    {
      "anonymous": false,
      "inputs": [
        {
          "indexed": false,
          "internalType": "uint64",
          "name": "version",
          "type": "uint64"
        }
      ],
      "name": "Initialized",
      "type": "event"
    },
    {
      "anonymous": false,
      "inputs": [
        {
          "indexed": true,
          "internalType": "address",
          "name": "implementation",
          "type": "address"
        }
      ],
      "name": "Upgraded",
      "type": "event"
    },
    {
      "inputs": [],
      "name": "UPGRADE_INTERFACE_VERSION",
      "outputs": [
        {
          "internalType": "string",
          "name": "",
          "type": "string"
        }
      ],
      "stateMutability": "view",
      "type": "function"
    },
    {
      "inputs": [],
      "name": "addressToApprove",
      "outputs": [
        {
          "internalType": "address",
          "name": "",
          "type": "address"
        }
      ],
      "stateMutability": "view",
      "type": "function"
    },
    {
      "inputs": [
        {
          "internalType": "uint256",
          "name": "amount",
          "type": "uint256"
        }
      ],
      "name": "applySlippageDepositExactInputSingle",
      "outputs": [
        {
          "internalType": "uint256",
          "name": "",
          "type": "uint256"
        }
      ],
      "stateMutability": "view",
      "type": "function"
    },
    {
      "inputs": [
        {
          "internalType": "uint256",
          "name": "amount",
          "type": "uint256"
        }
      ],
      "name": "applySlippageWithdrawExactOutputSingle",
      "outputs": [
        {
          "internalType": "uint256",
          "name": "",
          "type": "uint256"
        }
      ],
      "stateMutability": "view",
      "type": "function"
    },
    {
      "inputs": [],
      "name": "bridge",
      "outputs": [
        {
          "internalType": "address",
          "name": "",
          "type": "address"
        }
      ],
      "stateMutability": "view",
      "type": "function"
    },
    {
      "inputs": [],
      "name": "chainlinkLatestAnswer",
      "outputs": [
        {
          "internalType": "int256",
          "name": "",
          "type": "int256"
        }
      ],
      "stateMutability": "view",
      "type": "function"
    },
    {
      "inputs": [],
      "name": "chainlinkPricefeed",
      "outputs": [
        {
          "internalType": "contract IChainlinkAggregator",
          "name": "",
          "type": "address"
        }
      ],
      "stateMutability": "view",
      "type": "function"
    },
    {
      "inputs": [
        {
          "internalType": "uint256",
          "name": "_amount",
          "type": "uint256"
        }
      ],
      "name": "depositCalldata",
      "outputs": [
        {
          "internalType": "address",
          "name": "target",
          "type": "address"
        },
        {
          "internalType": "bytes",
          "name": "cdata",
          "type": "bytes"
        }
      ],
      "stateMutability": "view",
      "type": "function"
    },
    {
      "inputs": [
        {
          "internalType": "address",
          "name": "_poolingManager",
          "type": "address"
        },
        {
          "internalType": "address",
          "name": "_underlyingToken",
          "type": "address"
        },
        {
          "internalType": "address",
          "name": "_yieldToken",
          "type": "address"
        },
        {
          "internalType": "address",
          "name": "_bridge",
          "type": "address"
        },
        {
          "internalType": "address",
          "name": "_uniswapRouter",
          "type": "address"
        },
        {
          "internalType": "address",
          "name": "_uniswapFactory",
          "type": "address"
        },
        {
          "internalType": "address",
          "name": "_chainlinkPricefeed",
          "type": "address"
        },
        {
          "internalType": "uint256",
          "name": "_minReceivedAmountFactor",
          "type": "uint256"
        },
        {
          "internalType": "uint24",
          "name": "_poolFee",
          "type": "uint24"
        }
      ],
      "name": "initialize",
      "outputs": [],
      "stateMutability": "nonpayable",
      "type": "function"
    },
    {
      "inputs": [],
      "name": "minReceivedAmountFactor",
      "outputs": [
        {
          "internalType": "uint256",
          "name": "",
          "type": "uint256"
        }
      ],
      "stateMutability": "view",
      "type": "function"
    },
    {
      "inputs": [],
      "name": "nav",
      "outputs": [
        {
          "internalType": "uint256",
          "name": "",
          "type": "uint256"
        }
      ],
      "stateMutability": "view",
      "type": "function"
    },
    {
      "inputs": [],
      "name": "poolFee",
      "outputs": [
        {
          "internalType": "uint24",
          "name": "",
          "type": "uint24"
        }
      ],
      "stateMutability": "view",
      "type": "function"
    },
    {
      "inputs": [],
      "name": "poolingManager",
      "outputs": [
        {
          "internalType": "address",
          "name": "",
          "type": "address"
        }
      ],
      "stateMutability": "view",
      "type": "function"
    },
    {
      "inputs": [],
      "name": "pricefeedPrecision",
      "outputs": [
        {
          "internalType": "uint256",
          "name": "",
          "type": "uint256"
        }
      ],
      "stateMutability": "view",
      "type": "function"
    },
    {
      "inputs": [],
      "name": "proxiableUUID",
      "outputs": [
        {
          "internalType": "bytes32",
          "name": "",
          "type": "bytes32"
        }
      ],
      "stateMutability": "view",
      "type": "function"
    },
    {
      "inputs": [
        {
          "internalType": "uint256",
          "name": "_minReceivedAmountFactor",
          "type": "uint256"
        }
      ],
      "name": "setMinReceivedAmountFactor",
      "outputs": [],
      "stateMutability": "nonpayable",
      "type": "function"
    },
    {
      "inputs": [
        {
          "internalType": "uint256",
          "name": "_amount",
          "type": "uint256"
        }
      ],
      "name": "underlyingToYield",
      "outputs": [
        {
          "internalType": "uint256",
          "name": "",
          "type": "uint256"
        }
      ],
      "stateMutability": "view",
      "type": "function"
    },
    {
      "inputs": [],
      "name": "underlyingToken",
      "outputs": [
        {
          "internalType": "address",
          "name": "",
          "type": "address"
        }
      ],
      "stateMutability": "view",
      "type": "function"
    },
    {
      "inputs": [],
      "name": "uniswapRouter",
      "outputs": [
        {
          "internalType": "contract ISwapRouter",
          "name": "",
          "type": "address"
        }
      ],
      "stateMutability": "view",
      "type": "function"
    },
    {
      "inputs": [
        {
          "internalType": "address",
          "name": "newImplementation",
          "type": "address"
        },
        {
          "internalType": "bytes",
          "name": "data",
          "type": "bytes"
        }
      ],
      "name": "upgradeToAndCall",
      "outputs": [],
      "stateMutability": "payable",
      "type": "function"
    },
    {
      "inputs": [],
      "name": "wETH",
      "outputs": [
        {
          "internalType": "address",
          "name": "",
          "type": "address"
        }
      ],
      "stateMutability": "view",
      "type": "function"
    },
    {
      "inputs": [
        {
          "internalType": "uint256",
          "name": "_amount",
          "type": "uint256"
        }
      ],
      "name": "withdraw",
      "outputs": [
        {
          "internalType": "uint256",
          "name": "",
          "type": "uint256"
        }
      ],
      "stateMutability": "nonpayable",
      "type": "function"
    },
    {
      "inputs": [],
      "name": "yieldBalance",
      "outputs": [
        {
          "internalType": "uint256",
          "name": "",
          "type": "uint256"
        }
      ],
      "stateMutability": "view",
      "type": "function"
    },
    {
      "inputs": [
        {
          "internalType": "uint256",
          "name": "_amount",
          "type": "uint256"
        }
      ],
      "name": "yieldToUnderlying",
      "outputs": [
        {
          "internalType": "uint256",
          "name": "",
          "type": "uint256"
        }
      ],
      "stateMutability": "view",
      "type": "function"
    },
    {
      "inputs": [],
      "name": "yieldToken",
      "outputs": [
        {
          "internalType": "address",
          "name": "",
          "type": "address"
        }
      ],
      "stateMutability": "view",
      "type": "function"
    }
  ],
  "transactionHash": "0xae39a2b405417eb65cc3f32043312f0325813826843c5c0336bd25c7d513cde3",
  "args": [],
  "numDeployments": 1,
  "solcInputHash": "adad486fb0c8a43bec398991991721b9",
  "bytecode": "0x60a06040523060805234801561001457600080fd5b507ff0c57e16840df040f15088dc2f81fe391c3923bec73e23a9662efc9c229c6a00805468010000000000000000810460ff1615906001600160401b031660008115801561005f5750825b90506000826001600160401b0316600114801561007b5750303b155b905081158015610089575080155b156100a75760405163f92ee8a960e01b815260040160405180910390fd5b84546001600160401b031916600117855583156100d557845460ff60401b1916680100000000000000001785555b831561011b57845460ff60401b19168555604051600181527fc7f505b2f371ae2175ee4913f4499e1f2633a7b5936321eed1cdaeb6115181d29060200160405180910390a15b505050505060805161188f61014960003960008181610a0001528181610a290152610b76015261188f6000f3fe6080604052600436106101665760003560e01c806383ce2b34116100d1578063d63559161161008a578063e78cea9211610064578063e78cea921461041e578063f1ea61e51461043e578063f24286211461046c578063f881f4091461049357600080fd5b8063d6355916146103c8578063d7f70803146103de578063dfa10b33146103fe57600080fd5b806383ce2b341461030057806384502bb914610320578063ad3cb1cc14610340578063b5d799b71461037e578063c1590cd71461039e578063cf062f0d146103b357600080fd5b80634f1ef286116101235780634f1ef2861461026057806352d1902d14610275578063735de9f71461028a57806376d5de85146102aa5780637a112dd0146102ca57806382ccd814146102e057600080fd5b8063089fe6aa1461016b57806319e8e2a9146101a057806321a92c44146101ce5780632495a599146102005780632e1a7d4d146102205780634f15fb5f14610240575b600080fd5b34801561017757600080fd5b506008546101879062ffffff1681565b60405162ffffff90911681526020015b60405180910390f35b3480156101ac57600080fd5b506101c06101bb3660046113a4565b6104a8565b604051908152602001610197565b3480156101da57600080fd5b506004546001600160a01b03165b6040516001600160a01b039091168152602001610197565b34801561020c57600080fd5b506001546101e8906001600160a01b031681565b34801561022c57600080fd5b506101c061023b3660046113a4565b6104b9565b34801561024c57600080fd5b506101c061025b3660046113a4565b6104ee565b61027361026e3660046113e8565b6104f9565b005b34801561028157600080fd5b506101c0610518565b34801561029657600080fd5b506004546101e8906001600160a01b031681565b3480156102b657600080fd5b506002546101e8906001600160a01b031681565b3480156102d657600080fd5b506101c060065481565b3480156102ec57600080fd5b506102736102fb3660046113a4565b610535565b34801561030c57600080fd5b506101c061031b3660046113a4565b610549565b34801561032c57600080fd5b506005546101e8906001600160a01b031681565b34801561034c57600080fd5b50610371604051806040016040528060058152602001640352e302e360dc1b81525081565b60405161019791906114fc565b34801561038a57600080fd5b5061027361039936600461150f565b610554565b3480156103aa57600080fd5b506101c06106d9565b3480156103bf57600080fd5b506101c06106e8565b3480156103d457600080fd5b506101c060075481565b3480156103ea57600080fd5b506000546101e8906001600160a01b031681565b34801561040a57600080fd5b506101c06104193660046113a4565b6106f2565b34801561042a57600080fd5b506003546101e8906001600160a01b031681565b34801561044a57600080fd5b5061045e6104593660046113a4565b6106fd565b6040516101979291906115ca565b34801561047857600080fd5b506008546101e890630100000090046001600160a01b031681565b34801561049f57600080fd5b506101c06107c0565b60006104b3826107ca565b92915050565b600080546001600160a01b031633146104e557604051639518d2f560e01b815260040160405180910390fd5b6104b3826107ec565b60006104b3826109dc565b6105016109f5565b61050a82610a9c565b6105148282610aa4565b5050565b6000610522610b6b565b5060008051602061183a83398151915290565b61053d610bb4565b61054681610c44565b50565b60006104b382610c9a565b7ff0c57e16840df040f15088dc2f81fe391c3923bec73e23a9662efc9c229c6a008054600160401b810460ff16159067ffffffffffffffff1660008115801561059a5750825b905060008267ffffffffffffffff1660011480156105b75750303b155b9050811580156105c5575080155b156105e35760405163f92ee8a960e01b815260040160405180910390fd5b845467ffffffffffffffff19166001178555831561060d57845460ff60401b1916600160401b1785555b6106648e8e8e8e600080546001600160a01b039586166001600160a01b0319918216179091556001805494861694821694909417909355600280549285169284169290921790915560038054919093169116179055565b6106718a8a8f8f8a610cad565b61067a88610e02565b61068387610c44565b83156106c957845460ff60401b19168555604051600181527fc7f505b2f371ae2175ee4913f4499e1f2633a7b5936321eed1cdaeb6115181d29060200160405180910390a15b5050505050505050505050505050565b60006106e3610e90565b905090565b60006106e3610ea2565b60006104b382610f0f565b60006060600061070c84610c9a565b90506000610719826109dc565b60408051610100810182526001546001600160a01b03908116825260025416602082015260085462ffffff168183015230606082015242608082015260a0810188905260c08101839052600060e082015290519192509061077e9082906024016115f6565b60408051601f198184030181529190526020810180516001600160e01b031663414bf38960e01b1790526004546001600160a01b031697909650945050505050565b60006106e3610f22565b6007546000906107e283670de0b6b3a7640000611676565b6104b3919061168d565b6000806107f7610f22565b905060006108058285610f6c565b90506000610812826107ca565b9050600061081e610ea2565b90508082111561091057600061083485836110af565b90506000610841826109dc565b60408051610100810182526002546001600160a01b0390811682526001548116602083015260085462ffffff1682840152600080548216606084015242608084015260a0830188905260c0830185905260e083015260048054935163414bf38960e01b8152949550919392169163414bf389916108c0918591016115f6565b6020604051808303816000875af11580156108df573d6000803e3d6000fd5b505050506040513d601f19601f8201168201806040525081019061090391906116af565b9998505050505050505050565b60408051610100810182526002546001600160a01b0390811682526001548116602083015260085462ffffff1682840152600080548216606084015242608084015260a083018a905260c0830186905260e0830152600480549351631b67c43360e31b815292939091169163db3e21989161098d918591016115f6565b6020604051808303816000875af11580156109ac573d6000803e3d6000fd5b505050506040513d601f19601f820116820180604052508101906109d091906116af565b50959695505050505050565b6000670de0b6b3a7640000826007546107e29190611676565b306001600160a01b037f0000000000000000000000000000000000000000000000000000000000000000161480610a7c57507f00000000000000000000000000000000000000000000000000000000000000006001600160a01b0316610a7060008051602061183a833981519152546001600160a01b031690565b6001600160a01b031614155b15610a9a5760405163703e46dd60e11b815260040160405180910390fd5b565b610546610bb4565b816001600160a01b03166352d1902d6040518163ffffffff1660e01b8152600401602060405180830381865afa925050508015610afe575060408051601f3d908101601f19168201909252610afb918101906116af565b60015b610b2b57604051634c9c8ce360e01b81526001600160a01b03831660048201526024015b60405180910390fd5b60008051602061183a8339815191528114610b5c57604051632a87526960e21b815260048101829052602401610b22565b610b6683836111d5565b505050565b306001600160a01b037f00000000000000000000000000000000000000000000000000000000000000001614610a9a5760405163703e46dd60e11b815260040160405180910390fd5b60008054604051632474521560e21b815260048101929092523360248301526001600160a01b0316906391d1485490604401602060405180830381865afa158015610c03573d6000803e3d6000fd5b505050506040513d601f19601f82011682018060405250810190610c2791906116c8565b610a9a57604051638dfa73db60e01b815260040160405180910390fd5b670de0b6b3a7640000811180610c7757506064610c6a670de0b6b3a7640000605f611676565b610c74919061168d565b81105b15610c955760405163334ee9a160e01b815260040160405180910390fd5b600755565b60006104b3610ca7610f22565b83610f6c565b600480546001600160a01b0319166001600160a01b03878116919091178255604051630b4c774160e11b815285821692810192909252838116602483015262ffffff831660448301528591600091831690631698ee8290606401602060405180830381865afa158015610d24573d6000803e3d6000fd5b505050506040513d601f19601f82011682018060405250810190610d4891906116ea565b90506001600160a01b038116610d715760405163357113b160e11b815260040160405180910390fd5b6008805462ffffff191662ffffff851617905560405163095ea7b360e01b81526001600160a01b038881166004830152600019602483015285169063095ea7b3906044016020604051808303816000875af1158015610dd4573d6000803e3d6000fd5b505050506040513d601f19601f82011682018060405250810190610df891906116c8565b5050505050505050565b600580546001600160a01b0319166001600160a01b0383169081179091556040805163313ce56760e01b8152905163313ce567916004808201926020929091908290030181865afa158015610e5b573d6000803e3d6000fd5b505050506040513d601f19601f82011682018060405250810190610e7f9190611707565b610e8a90600a61180e565b60065550565b60006106e3610e9d610ea2565b610f0f565b6002546040516370a0823160e01b81523060048201526000916001600160a01b0316906370a0823190602401602060405180830381865afa158015610eeb573d6000803e3d6000fd5b505050506040513d601f19601f820116820180604052508101906106e391906116af565b60006104b3610f1c610f22565b836110af565b600554604080516350d25bcd60e01b815290516000926001600160a01b0316916350d25bcd9160048083019260209291908290030181865afa158015610eeb573d6000803e3d6000fd5b600080600260009054906101000a90046001600160a01b03166001600160a01b031663313ce5676040518163ffffffff1660e01b8152600401602060405180830381865afa158015610fc2573d6000803e3d6000fd5b505050506040513d601f19601f82011682018060405250810190610fe69190611707565b610ff190600a61180e565b90506000600160009054906101000a90046001600160a01b03166001600160a01b031663313ce5676040518163ffffffff1660e01b8152600401602060405180830381865afa158015611048573d6000803e3d6000fd5b505050506040513d601f19601f8201168201806040525081019061106c9190611707565b61107790600a61180e565b90506110838186611676565b82856006546110929190611676565b61109c9190611676565b6110a6919061168d565b95945050505050565b600080600260009054906101000a90046001600160a01b03166001600160a01b031663313ce5676040518163ffffffff1660e01b8152600401602060405180830381865afa158015611105573d6000803e3d6000fd5b505050506040513d601f19601f820116820180604052508101906111299190611707565b61113490600a61180e565b90506000600160009054906101000a90046001600160a01b03166001600160a01b031663313ce5676040518163ffffffff1660e01b8152600401602060405180830381865afa15801561118b573d6000803e3d6000fd5b505050506040513d601f19601f820116820180604052508101906111af9190611707565b6111ba90600a61180e565b9050816006546111ca9190611676565b816110928787611676565b6111de8261122b565b6040516001600160a01b038316907fbc7cd75a20ee27fd9adebab32041f755214dbc6bffa90cc0225b39da2e5c2d3b90600090a280511561122357610b668282611290565b6105146112fd565b806001600160a01b03163b60000361126157604051634c9c8ce360e01b81526001600160a01b0382166004820152602401610b22565b60008051602061183a83398151915280546001600160a01b0319166001600160a01b0392909216919091179055565b6060600080846001600160a01b0316846040516112ad919061181d565b600060405180830381855af49150503d80600081146112e8576040519150601f19603f3d011682016040523d82523d6000602084013e6112ed565b606091505b50915091506110a685838361131c565b3415610a9a5760405163b398979f60e01b815260040160405180910390fd5b6060826113315761132c8261137b565b611374565b815115801561134857506001600160a01b0384163b155b1561137157604051639996b31560e01b81526001600160a01b0385166004820152602401610b22565b50805b9392505050565b80511561138b5780518082602001fd5b604051630a12f52160e11b815260040160405180910390fd5b6000602082840312156113b657600080fd5b5035919050565b6001600160a01b038116811461054657600080fd5b634e487b7160e01b600052604160045260246000fd5b600080604083850312156113fb57600080fd5b8235611406816113bd565b9150602083013567ffffffffffffffff8082111561142357600080fd5b818501915085601f83011261143757600080fd5b813581811115611449576114496113d2565b604051601f8201601f19908116603f01168101908382118183101715611471576114716113d2565b8160405282815288602084870101111561148a57600080fd5b8260208601602083013760006020848301015280955050505050509250929050565b60005b838110156114c75781810151838201526020016114af565b50506000910152565b600081518084526114e88160208601602086016114ac565b601f01601f19169290920160200192915050565b60208152600061137460208301846114d0565b60008060008060008060008060006101208a8c03121561152e57600080fd5b8935611539816113bd565b985060208a0135611549816113bd565b975060408a0135611559816113bd565b965060608a0135611569816113bd565b955060808a0135611579816113bd565b945060a08a0135611589816113bd565b935060c08a0135611599816113bd565b925060e08a013591506101008a013562ffffff811681146115b957600080fd5b809150509295985092959850929598565b6001600160a01b03831681526040602082018190526000906115ee908301846114d0565b949350505050565b61010081016104b3828480516001600160a01b03908116835260208083015182169084015260408083015162ffffff16908401526060808301518216908401526080808301519084015260a0828101519084015260c0808301519084015260e09182015116910152565b634e487b7160e01b600052601160045260246000fd5b80820281158282048414176104b3576104b3611660565b6000826116aa57634e487b7160e01b600052601260045260246000fd5b500490565b6000602082840312156116c157600080fd5b5051919050565b6000602082840312156116da57600080fd5b8151801515811461137457600080fd5b6000602082840312156116fc57600080fd5b8151611374816113bd565b60006020828403121561171957600080fd5b815160ff8116811461137457600080fd5b600181815b8085111561176557816000190482111561174b5761174b611660565b8085161561175857918102915b93841c939080029061172f565b509250929050565b60008261177c575060016104b3565b81611789575060006104b3565b816001811461179f57600281146117a9576117c5565b60019150506104b3565b60ff8411156117ba576117ba611660565b50506001821b6104b3565b5060208310610133831016604e8410600b84101617156117e8575081810a6104b3565b6117f2838361172a565b806000190482111561180657611806611660565b029392505050565b600061137460ff84168361176d565b6000825161182f8184602087016114ac565b919091019291505056fe360894a13ba1a3210667c828492db98dca3e2076cc3735a920a3ca505d382bbca26469706673582212206230b7a00424dd0b7a6691b6520cf78aab2ce80176593a03c0cd416543d4a90464736f6c63430008140033",
  "devdoc": {
    "author": "@nimbora 2024",
    "errors": {
      "AddressEmptyCode(address)": [
        {
          "details": "There's no code at `target` (it is not a contract)."
        }
      ],
      "ERC1967InvalidImplementation(address)": [
        {
          "details": "The `implementation` of the proxy is invalid."
        }
      ],
      "ERC1967NonPayable()": [
        {
          "details": "An upgrade function sees `msg.value > 0` that may be lost."
        }
      ],
      "FailedInnerCall()": [
        {
          "details": "A call to an address target failed. The target may have reverted."
        }
      ],
      "InvalidInitialization()": [
        {
          "details": "The contract is already initialized."
        }
      ],
      "NotInitializing()": [
        {
          "details": "The contract is not initializing."
        }
      ],
      "UUPSUnauthorizedCallContext()": [
        {
          "details": "The call is from an unauthorized context."
        }
      ],
      "UUPSUnsupportedProxiableUUID(bytes32)": [
        {
          "details": "The storage `slot` is unsupported as a UUID."
        }
      ]
    },
    "events": {
      "Initialized(uint64)": {
        "details": "Triggered when the contract has been initialized or reinitialized."
      },
      "Upgraded(address)": {
        "details": "Emitted when the implementation is upgraded."
      }
    },
    "kind": "dev",
    "methods": {
      "constructor": {
        "custom:oz-upgrades-unsafe-allow": "constructor"
      },
      "proxiableUUID()": {
        "details": "Implementation of the ERC1822 {proxiableUUID} function. This returns the storage slot used by the implementation. It is used to validate the implementation's compatibility when performing an upgrade. IMPORTANT: A proxy pointing at a proxiable contract should not be considered proxiable itself, because this risks bricking a proxy that upgrades to it, by delegating to itself until out of gas. Thus it is critical that this function revert if invoked through a proxy. This is guaranteed by the `notDelegated` modifier."
      },
      "upgradeToAndCall(address,bytes)": {
        "custom:oz-upgrades-unsafe-allow-reachable": "delegatecall",
        "details": "Upgrade the implementation of the proxy to `newImplementation`, and subsequently execute the function call encoded in `data`. Calls {_authorizeUpgrade}. Emits an {Upgraded} event."
      }
    },
    "title": "Uniswap v3 strategy",
    "version": 1
  },
  "userdoc": {
    "kind": "user",
    "methods": {},
    "version": 1
  },
  "storageLayout": {
    "storage": [
      {
        "astId": 1828,
        "contract": "contracts/strategies/uniswap/UniswapV3.sol:UniswapV3Strategy",
        "label": "poolingManager",
        "offset": 0,
        "slot": "0",
        "type": "t_address"
      },
      {
        "astId": 1830,
        "contract": "contracts/strategies/uniswap/UniswapV3.sol:UniswapV3Strategy",
        "label": "underlyingToken",
        "offset": 0,
        "slot": "1",
        "type": "t_address"
      },
      {
        "astId": 1832,
        "contract": "contracts/strategies/uniswap/UniswapV3.sol:UniswapV3Strategy",
        "label": "yieldToken",
        "offset": 0,
        "slot": "2",
        "type": "t_address"
      },
      {
        "astId": 1834,
        "contract": "contracts/strategies/uniswap/UniswapV3.sol:UniswapV3Strategy",
        "label": "bridge",
        "offset": 0,
        "slot": "3",
        "type": "t_address"
      },
      {
        "astId": 2226,
        "contract": "contracts/strategies/uniswap/UniswapV3.sol:UniswapV3Strategy",
        "label": "uniswapRouter",
        "offset": 0,
        "slot": "4",
        "type": "t_contract(ISwapRouter)1675"
      },
      {
        "astId": 2229,
        "contract": "contracts/strategies/uniswap/UniswapV3.sol:UniswapV3Strategy",
        "label": "chainlinkPricefeed",
        "offset": 0,
        "slot": "5",
        "type": "t_contract(IChainlinkAggregator)1688"
      },
      {
        "astId": 2231,
        "contract": "contracts/strategies/uniswap/UniswapV3.sol:UniswapV3Strategy",
        "label": "pricefeedPrecision",
        "offset": 0,
        "slot": "6",
        "type": "t_uint256"
      },
      {
        "astId": 2233,
        "contract": "contracts/strategies/uniswap/UniswapV3.sol:UniswapV3Strategy",
        "label": "minReceivedAmountFactor",
        "offset": 0,
        "slot": "7",
        "type": "t_uint256"
      },
      {
        "astId": 2235,
        "contract": "contracts/strategies/uniswap/UniswapV3.sol:UniswapV3Strategy",
        "label": "poolFee",
        "offset": 0,
        "slot": "8",
        "type": "t_uint24"
      },
      {
        "astId": 2237,
        "contract": "contracts/strategies/uniswap/UniswapV3.sol:UniswapV3Strategy",
        "label": "wETH",
        "offset": 3,
        "slot": "8",
        "type": "t_address"
      }
    ],
    "types": {
      "t_address": {
        "encoding": "inplace",
        "label": "address",
        "numberOfBytes": "20"
      },
      "t_contract(IChainlinkAggregator)1688": {
        "encoding": "inplace",
        "label": "contract IChainlinkAggregator",
        "numberOfBytes": "20"
      },
      "t_contract(ISwapRouter)1675": {
        "encoding": "inplace",
        "label": "contract ISwapRouter",
        "numberOfBytes": "20"
      },
      "t_uint24": {
        "encoding": "inplace",
        "label": "uint24",
        "numberOfBytes": "3"
      },
      "t_uint256": {
        "encoding": "inplace",
        "label": "uint256",
        "numberOfBytes": "32"
      }
    }
  }
}