{
  "address": "0x3DBBfA4b7e74045E54e6c64816aE34779B9D37F7",
  "abi": [
    {
      "inputs": [],
      "stateMutability": "nonpayable",
      "type": "constructor"
    },
    {
      "inputs": [],
      "name": "EnforcedPause",
      "type": "error"
    },
    {
      "inputs": [],
      "name": "ExpectedPause",
      "type": "error"
    },
    {
      "inputs": [],
      "name": "InvalidCaller",
      "type": "error"
    },
    {
      "inputs": [],
      "name": "InvalidDecimals",
      "type": "error"
    },
    {
      "inputs": [],
      "name": "InvalidInitialization",
      "type": "error"
    },
    {
      "inputs": [],
      "name": "NotInitializing",
      "type": "error"
    },
    {
      "inputs": [],
      "name": "UnknownActionId",
      "type": "error"
    },
    {
      "inputs": [],
      "name": "ZeroAddress",
      "type": "error"
    },
    {
      "anonymous": false,
      "inputs": [
        {
          "indexed": false,
          "internalType": "uint64",
          "name": "version",
          "type": "uint64"
        }
      ],
      "name": "Initialized",
      "type": "event"
    },
    {
      "anonymous": false,
      "inputs": [
        {
          "indexed": false,
          "internalType": "address",
          "name": "account",
          "type": "address"
        }
      ],
      "name": "Paused",
      "type": "event"
    },
    {
      "anonymous": false,
      "inputs": [
        {
          "indexed": false,
          "internalType": "address",
          "name": "account",
          "type": "address"
        }
      ],
      "name": "Unpaused",
      "type": "event"
    },
    {
      "inputs": [
        {
          "internalType": "uint256",
          "name": "amount",
          "type": "uint256"
        }
      ],
      "name": "applySlippageDepositExactInputSingle",
      "outputs": [
        {
          "internalType": "uint256",
          "name": "",
          "type": "uint256"
        }
      ],
      "stateMutability": "view",
      "type": "function"
    },
    {
      "inputs": [
        {
          "internalType": "uint256",
          "name": "amount",
          "type": "uint256"
        }
      ],
      "name": "applySlippageWithdrawExactOutputSingle",
      "outputs": [
        {
          "internalType": "uint256",
          "name": "",
          "type": "uint256"
        }
      ],
      "stateMutability": "view",
      "type": "function"
    },
    {
      "inputs": [],
      "name": "chainlinkLatestAnswer",
      "outputs": [
        {
          "internalType": "int256",
          "name": "",
          "type": "int256"
        }
      ],
      "stateMutability": "view",
      "type": "function"
    },
    {
      "inputs": [],
      "name": "chainlinkPricefeed",
      "outputs": [
        {
          "internalType": "contract IChainlinkAggregator",
          "name": "",
          "type": "address"
        }
      ],
      "stateMutability": "view",
      "type": "function"
    },
    {
      "inputs": [
        {
          "internalType": "uint256",
          "name": "actionId",
          "type": "uint256"
        },
        {
          "internalType": "uint256",
          "name": "amount",
          "type": "uint256"
        }
      ],
      "name": "handleReport",
      "outputs": [
        {
          "internalType": "uint256",
          "name": "",
          "type": "uint256"
        },
        {
          "internalType": "uint256",
          "name": "",
          "type": "uint256"
        }
      ],
      "stateMutability": "payable",
      "type": "function"
    },
    {
      "inputs": [
        {
          "internalType": "address",
          "name": "_poolingManager",
          "type": "address"
        },
        {
          "internalType": "address",
          "name": "_underlyingToken",
          "type": "address"
        },
        {
          "internalType": "address",
          "name": "_yieldToken",
          "type": "address"
        },
        {
          "internalType": "address",
          "name": "_uniswapRouter",
          "type": "address"
        },
        {
          "internalType": "address",
          "name": "_uniswapFactory",
          "type": "address"
        },
        {
          "internalType": "address",
          "name": "_chainlinkPricefeed",
          "type": "address"
        },
        {
          "internalType": "uint256",
          "name": "_minReceivedAmountFactor",
          "type": "uint256"
        },
        {
          "internalType": "uint24",
          "name": "_poolFee",
          "type": "uint24"
        }
      ],
      "name": "initialize",
      "outputs": [],
      "stateMutability": "nonpayable",
      "type": "function"
    },
    {
      "inputs": [
        {
          "internalType": "address",
          "name": "_l2PoolingManager",
          "type": "address"
        },
        {
          "internalType": "address",
          "name": "_underlyingToken",
          "type": "address"
        },
        {
          "internalType": "address",
          "name": "_yieldToken",
          "type": "address"
        }
      ],
      "name": "initializeStrategyBase",
      "outputs": [],
      "stateMutability": "nonpayable",
      "type": "function"
    },
    {
      "inputs": [],
      "name": "minReceivedAmountFactor",
      "outputs": [
        {
          "internalType": "uint256",
          "name": "",
          "type": "uint256"
        }
      ],
      "stateMutability": "view",
      "type": "function"
    },
    {
      "inputs": [],
      "name": "nav",
      "outputs": [
        {
          "internalType": "uint256",
          "name": "",
          "type": "uint256"
        }
      ],
      "stateMutability": "view",
      "type": "function"
    },
    {
      "inputs": [],
      "name": "paused",
      "outputs": [
        {
          "internalType": "bool",
          "name": "",
          "type": "bool"
        }
      ],
      "stateMutability": "view",
      "type": "function"
    },
    {
      "inputs": [],
      "name": "poolFee",
      "outputs": [
        {
          "internalType": "uint24",
          "name": "",
          "type": "uint24"
        }
      ],
      "stateMutability": "view",
      "type": "function"
    },
    {
      "inputs": [],
      "name": "poolingManager",
      "outputs": [
        {
          "internalType": "address",
          "name": "",
          "type": "address"
        }
      ],
      "stateMutability": "view",
      "type": "function"
    },
    {
      "inputs": [],
      "name": "pricefeedPrecision",
      "outputs": [
        {
          "internalType": "uint256",
          "name": "",
          "type": "uint256"
        }
      ],
      "stateMutability": "view",
      "type": "function"
    },
    {
      "inputs": [
        {
          "internalType": "uint256",
          "name": "_minReceivedAmountFactor",
          "type": "uint256"
        }
      ],
      "name": "setMinReceivedAmountFactor",
      "outputs": [],
      "stateMutability": "nonpayable",
      "type": "function"
    },
    {
      "inputs": [
        {
          "internalType": "uint256",
          "name": "amount",
          "type": "uint256"
        }
      ],
      "name": "underlyingToYield",
      "outputs": [
        {
          "internalType": "uint256",
          "name": "",
          "type": "uint256"
        }
      ],
      "stateMutability": "view",
      "type": "function"
    },
    {
      "inputs": [],
      "name": "underlyingToken",
      "outputs": [
        {
          "internalType": "address",
          "name": "",
          "type": "address"
        }
      ],
      "stateMutability": "view",
      "type": "function"
    },
    {
      "inputs": [],
      "name": "uniswapRouter",
      "outputs": [
        {
          "internalType": "contract ISwapRouter",
          "name": "",
          "type": "address"
        }
      ],
      "stateMutability": "view",
      "type": "function"
    },
    {
      "inputs": [],
      "name": "yieldBalance",
      "outputs": [
        {
          "internalType": "uint256",
          "name": "",
          "type": "uint256"
        }
      ],
      "stateMutability": "view",
      "type": "function"
    },
    {
      "inputs": [
        {
          "internalType": "uint256",
          "name": "amount",
          "type": "uint256"
        }
      ],
      "name": "yieldToUnderlying",
      "outputs": [
        {
          "internalType": "uint256",
          "name": "",
          "type": "uint256"
        }
      ],
      "stateMutability": "view",
      "type": "function"
    },
    {
      "inputs": [],
      "name": "yieldToken",
      "outputs": [
        {
          "internalType": "address",
          "name": "",
          "type": "address"
        }
      ],
      "stateMutability": "view",
      "type": "function"
    }
  ],
  "transactionHash": "0x364c40f274e0c5896bc03dddb9b28f6ec87e705ac1cca2ee0ffba97f94334d7a",
  "args": [],
  "numDeployments": 1,
  "solcInputHash": "3d424507d984e147254a1d96947bd10d",
  "bytecode": "0x608060405234801561001057600080fd5b507ff0c57e16840df040f15088dc2f81fe391c3923bec73e23a9662efc9c229c6a00805468010000000000000000810460ff1615906001600160401b031660008115801561005b5750825b90506000826001600160401b031660011480156100775750303b155b905081158015610085575080155b156100a35760405163f92ee8a960e01b815260040160405180910390fd5b84546001600160401b031916600117855583156100d157845460ff60401b1916680100000000000000001785555b831561011757845460ff60401b19168555604051600181527fc7f505b2f371ae2175ee4913f4499e1f2633a7b5936321eed1cdaeb6115181d29060200160405180910390a15b50505050506115968061012b6000396000f3fe60806040526004361061011f5760003560e01c806382ccd814116100a0578063cf062f0d11610064578063cf062f0d14610356578063d63559161461036b578063d7f7080314610381578063dfa10b33146103a1578063f881f409146103c157600080fd5b806382ccd814146102b957806383ce2b34146102d957806384502bb9146102f95780639d1ea42c14610319578063c1590cd71461034157600080fd5b8063735de9f7116100e7578063735de9f71461022157806376d5de85146102415780637a112dd0146102615780637dba20ab14610277578063808a9df81461029957600080fd5b8063089fe6aa1461012457806319e8e2a9146101595780632495a599146101875780634f15fb5f146101bf5780635c975abb146101df575b600080fd5b34801561013057600080fd5b506007546101409062ffffff1681565b60405162ffffff90911681526020015b60405180910390f35b34801561016557600080fd5b506101796101743660046111f6565b6103d6565b604051908152602001610150565b34801561019357600080fd5b506001546101a7906001600160a01b031681565b6040516001600160a01b039091168152602001610150565b3480156101cb57600080fd5b506101796101da3660046111f6565b6103e7565b3480156101eb57600080fd5b507fcd5ed15c6e187e77e9aee88184c21f4f2182ab5827cb3b7e07fbedcd63f033005460ff166040519015158152602001610150565b34801561022d57600080fd5b506003546101a7906001600160a01b031681565b34801561024d57600080fd5b506002546101a7906001600160a01b031681565b34801561026d57600080fd5b5061017960055481565b34801561028357600080fd5b50610297610292366004611224565b6103f2565b005b3480156102a557600080fd5b506102976102b43660046112cc565b610534565b3480156102c557600080fd5b506102976102d43660046111f6565b6106f7565b3480156102e557600080fd5b506101796102f43660046111f6565b61070b565b34801561030557600080fd5b506004546101a7906001600160a01b031681565b61032c610327366004611317565b610716565b60408051928352602083019190915201610150565b34801561034d57600080fd5b5061017961078a565b34801561036257600080fd5b50610179610799565b34801561037757600080fd5b5061017960065481565b34801561038d57600080fd5b506000546101a7906001600160a01b031681565b3480156103ad57600080fd5b506101796103bc3660046111f6565b610806565b3480156103cd57600080fd5b50610179610811565b60006103e18261081b565b92915050565b60006103e18261083d565b7ff0c57e16840df040f15088dc2f81fe391c3923bec73e23a9662efc9c229c6a008054600160401b810460ff16159067ffffffffffffffff166000811580156104385750825b905060008267ffffffffffffffff1660011480156104555750303b155b905081158015610463575080155b156104815760405163f92ee8a960e01b815260040160405180910390fd5b845467ffffffffffffffff1916600117855583156104ab57845460ff60401b1916600160401b1785555b6104b68d8d8d610534565b6104c38a8a8e8e8a610856565b6104cc88610a96565b6104d587610b77565b6104df8c8c610bf1565b831561052557845460ff60401b19168555604051600181527fc7f505b2f371ae2175ee4913f4499e1f2633a7b5936321eed1cdaeb6115181d29060200160405180910390a15b50505050505050505050505050565b7ff0c57e16840df040f15088dc2f81fe391c3923bec73e23a9662efc9c229c6a008054600160401b810460ff16159067ffffffffffffffff1660008115801561057a5750825b905060008267ffffffffffffffff1660011480156105975750303b155b9050811580156105a5575080155b156105c35760405163f92ee8a960e01b815260040160405180910390fd5b845467ffffffffffffffff1916600117855583156105ed57845460ff60401b1916600160401b1785555b6105f5610cdd565b6001600160a01b03881661061c5760405163d92e233d60e01b815260040160405180910390fd5b6001600160a01b0387166106435760405163d92e233d60e01b815260040160405180910390fd5b6001600160a01b03861661066a5760405163d92e233d60e01b815260040160405180910390fd5b600080546001600160a01b03808b166001600160a01b031992831617909255600180548a8416908316179055600280549289169290911691909117905583156106ed57845460ff60401b19168555604051600181527fc7f505b2f371ae2175ee4913f4499e1f2633a7b5936321eed1cdaeb6115181d29060200160405180910390a15b5050505050505050565b6106ff610cef565b61070881610b77565b50565b60006103e182610d7f565b600080610721610d92565b610729610dd5565b60008461073e5761073984610e00565b610778565b600285036107565761074f84610edf565b9050610778565b6001850315610778576040516308c4d1d560e01b815260040160405180910390fd5b6107806110d3565b9590945092505050565b60006107946110d3565b905090565b6002546040516370a0823160e01b81523060048201526000916001600160a01b0316906370a0823190602401602060405180830381865afa1580156107e2573d6000803e3d6000fd5b505050506040513d601f19601f820116820180604052508101906107949190611339565b60006103e1826110e0565b60006107946110f3565b60065460009061083383670de0b6b3a7640000611368565b6103e1919061137f565b6000670de0b6b3a7640000826006546108339190611368565b6001600160a01b0385166108b15760405162461bcd60e51b815260206004820152601c60248201527f5a65726f20616464726573733a20556e697377617020526f757465720000000060448201526064015b60405180910390fd5b600380546001600160a01b0319166001600160a01b0387811691909117909155604051630b4c774160e11b81528482166004820152838216602482015262ffffff83166044820152859160009190831690631698ee8290606401602060405180830381865afa158015610928573d6000803e3d6000fd5b505050506040513d601f19601f8201168201806040525081019061094c91906113a1565b90506001600160a01b03811661099a5760405162461bcd60e51b8152602060048201526013602482015272141bdbdb08191bd95cc81b9bdd08195e1a5cdd606a1b60448201526064016108a8565b6007805462ffffff191662ffffff851617905560405163095ea7b360e01b81526001600160a01b038881166004830152600019602483015286169063095ea7b3906044016020604051808303816000875af11580156109fd573d6000803e3d6000fd5b505050506040513d601f19601f82011682018060405250810190610a2191906113be565b5060405163095ea7b360e01b81526001600160a01b038881166004830152600019602483015285169063095ea7b3906044016020604051808303816000875af1158015610a72573d6000803e3d6000fd5b505050506040513d601f19601f820116820180604052508101906106ed91906113be565b6001600160a01b038116610aec5760405162461bcd60e51b815260206004820152601760248201527f5a65726f20616464726573733a20436861696e6c696e6b00000000000000000060448201526064016108a8565b600480546001600160a01b0319166001600160a01b03831690811782556040805163313ce56760e01b81529051919263313ce5679282820192602092908290030181865afa158015610b42573d6000803e3d6000fd5b505050506040513d601f19601f82011682018060405250810190610b6691906113e0565b610b7190600a6114e7565b60055550565b670de0b6b3a76400008111158015610bad57506064610b9f670de0b6b3a7640000605f611368565b610ba9919061137f565b8110155b610bec5760405162461bcd60e51b815260206004820152601060248201526f496e76616c696420736c69707061676560801b60448201526064016108a8565b600655565b806001600160a01b031663313ce5676040518163ffffffff1660e01b8152600401602060405180830381865afa158015610c2f573d6000803e3d6000fd5b505050506040513d601f19601f82011682018060405250810190610c5391906113e0565b60ff16826001600160a01b031663313ce5676040518163ffffffff1660e01b8152600401602060405180830381865afa158015610c94573d6000803e3d6000fd5b505050506040513d601f19601f82011682018060405250810190610cb891906113e0565b60ff1614610cd957604051630692acc560e51b815260040160405180910390fd5b5050565b610ce5611148565b610ced611191565b565b60008054604051632474521560e21b815260048101929092523360248301526001600160a01b0316906391d1485490604401602060405180830381865afa158015610d3e573d6000803e3d6000fd5b505050506040513d601f19601f82011682018060405250810190610d6291906113be565b610ced576040516348f5c3ed60e01b815260040160405180910390fd5b60006103e1610d8c6110f3565b836111c4565b7fcd5ed15c6e187e77e9aee88184c21f4f2182ab5827cb3b7e07fbedcd63f033005460ff1615610ced5760405163d93c066560e01b815260040160405180910390fd5b6000546001600160a01b03163314610ced576040516348f5c3ed60e01b815260040160405180910390fd5b6000610e0b82610d7f565b90506000610e188261083d565b60408051610100810182526001546001600160a01b0390811682526002548116602083015260075462ffffff168284015230606083015242608083015260a0820187905260c08201849052600060e0830152600354925163414bf38960e01b8152939450909291169063414bf38990610e959084906004016114f6565b6020604051808303816000875af1158015610eb4573d6000803e3d6000fd5b505050506040513d601f19601f82011682018060405250810190610ed89190611339565b5050505050565b600080610eea6110f3565b90506000610ef882856111c4565b90506000610f058261081b565b90506000610f11610799565b905080821115611008576000610f2785836111e6565b90506000610f348261083d565b60408051610100810182526002546001600160a01b0390811682526001548116602083015260075462ffffff1682840152600080548216606084015242608084015260a0830188905260c0830185905260e08301819052600354935163414bf38960e01b815294955091939192169063414bf38990610fb79085906004016114f6565b6020604051808303816000875af1158015610fd6573d6000803e3d6000fd5b505050506040513d601f19601f82011682018060405250810190610ffa9190611339565b9a9950505050505050505050565b60408051610100810182526002546001600160a01b0390811682526001548116602083015260075462ffffff1682840152600080548216606084015242608084015260a083018a905260c0830186905260e08301526003549251631b67c43360e31b81529192169063db3e2198906110849084906004016114f6565b6020604051808303816000875af11580156110a3573d6000803e3d6000fd5b505050506040513d601f19601f820116820180604052508101906110c79190611339565b50959695505050505050565b60006107946110e0610799565b60006103e16110ed6110f3565b836111e6565b6000600460009054906101000a90046001600160a01b03166001600160a01b03166350d25bcd6040518163ffffffff1660e01b8152600401602060405180830381865afa1580156107e2573d6000803e3d6000fd5b7ff0c57e16840df040f15088dc2f81fe391c3923bec73e23a9662efc9c229c6a0054600160401b900460ff16610ced57604051631afcd79f60e31b815260040160405180910390fd5b611199611148565b7fcd5ed15c6e187e77e9aee88184c21f4f2182ab5827cb3b7e07fbedcd63f03300805460ff19169055565b600082826005546111d59190611368565b6111df919061137f565b9392505050565b6005546000906111d58484611368565b60006020828403121561120857600080fd5b5035919050565b6001600160a01b038116811461070857600080fd5b600080600080600080600080610100898b03121561124157600080fd5b883561124c8161120f565b9750602089013561125c8161120f565b9650604089013561126c8161120f565b9550606089013561127c8161120f565b9450608089013561128c8161120f565b935060a089013561129c8161120f565b925060c0890135915060e089013562ffffff811681146112bb57600080fd5b809150509295985092959890939650565b6000806000606084860312156112e157600080fd5b83356112ec8161120f565b925060208401356112fc8161120f565b9150604084013561130c8161120f565b809150509250925092565b6000806040838503121561132a57600080fd5b50508035926020909101359150565b60006020828403121561134b57600080fd5b5051919050565b634e487b7160e01b600052601160045260246000fd5b80820281158282048414176103e1576103e1611352565b60008261139c57634e487b7160e01b600052601260045260246000fd5b500490565b6000602082840312156113b357600080fd5b81516111df8161120f565b6000602082840312156113d057600080fd5b815180151581146111df57600080fd5b6000602082840312156113f257600080fd5b815160ff811681146111df57600080fd5b600181815b8085111561143e57816000190482111561142457611424611352565b8085161561143157918102915b93841c9390800290611408565b509250929050565b600082611455575060016103e1565b81611462575060006103e1565b816001811461147857600281146114825761149e565b60019150506103e1565b60ff84111561149357611493611352565b50506001821b6103e1565b5060208310610133831016604e8410600b84101617156114c1575081810a6103e1565b6114cb8383611403565b80600019048211156114df576114df611352565b029392505050565b60006111df60ff841683611446565b61010081016103e1828480516001600160a01b03908116835260208083015182169084015260408083015162ffffff16908401526060808301518216908401526080808301519084015260a0828101519084015260c0808301519084015260e0918201511691015256fea2646970667358221220c0cc563dc00ce66ba652afbbf8df029d243b61567e62fb18361ef6250169858c64736f6c63430008140033",
  "devdoc": {
    "errors": {
      "EnforcedPause()": [
        {
          "details": "The operation failed because the contract is paused."
        }
      ],
      "ExpectedPause()": [
        {
          "details": "The operation failed because the contract is not paused."
        }
      ],
      "InvalidInitialization()": [
        {
          "details": "The contract is already initialized."
        }
      ],
      "NotInitializing()": [
        {
          "details": "The contract is not initializing."
        }
      ]
    },
    "events": {
      "Initialized(uint64)": {
        "details": "Triggered when the contract has been initialized or reinitialized."
      },
      "Paused(address)": {
        "details": "Emitted when the pause is triggered by `account`."
      },
      "Unpaused(address)": {
        "details": "Emitted when the pause is lifted by `account`."
      }
    },
    "kind": "dev",
    "methods": {
      "constructor": {
        "custom:oz-upgrades-unsafe-allow": "constructor"
      },
      "paused()": {
        "details": "Returns true if the contract is paused, and false otherwise."
      }
    },
    "version": 1
  },
  "userdoc": {
    "kind": "user",
    "methods": {},
    "version": 1
  },
  "storageLayout": {
    "storage": [
      {
        "astId": 5272,
        "contract": "contracts/strategies/uniswap/uniswapV3.sol:UniswapV3Strategy",
        "label": "poolingManager",
        "offset": 0,
        "slot": "0",
        "type": "t_address"
      },
      {
        "astId": 5274,
        "contract": "contracts/strategies/uniswap/uniswapV3.sol:UniswapV3Strategy",
        "label": "underlyingToken",
        "offset": 0,
        "slot": "1",
        "type": "t_address"
      },
      {
        "astId": 5276,
        "contract": "contracts/strategies/uniswap/uniswapV3.sol:UniswapV3Strategy",
        "label": "yieldToken",
        "offset": 0,
        "slot": "2",
        "type": "t_address"
      },
      {
        "astId": 5733,
        "contract": "contracts/strategies/uniswap/uniswapV3.sol:UniswapV3Strategy",
        "label": "uniswapRouter",
        "offset": 0,
        "slot": "3",
        "type": "t_contract(ISwapRouter)2441"
      },
      {
        "astId": 5736,
        "contract": "contracts/strategies/uniswap/uniswapV3.sol:UniswapV3Strategy",
        "label": "chainlinkPricefeed",
        "offset": 0,
        "slot": "4",
        "type": "t_contract(IChainlinkAggregator)4311"
      },
      {
        "astId": 5738,
        "contract": "contracts/strategies/uniswap/uniswapV3.sol:UniswapV3Strategy",
        "label": "pricefeedPrecision",
        "offset": 0,
        "slot": "5",
        "type": "t_uint256"
      },
      {
        "astId": 5740,
        "contract": "contracts/strategies/uniswap/uniswapV3.sol:UniswapV3Strategy",
        "label": "minReceivedAmountFactor",
        "offset": 0,
        "slot": "6",
        "type": "t_uint256"
      },
      {
        "astId": 5742,
        "contract": "contracts/strategies/uniswap/uniswapV3.sol:UniswapV3Strategy",
        "label": "poolFee",
        "offset": 0,
        "slot": "7",
        "type": "t_uint24"
      }
    ],
    "types": {
      "t_address": {
        "encoding": "inplace",
        "label": "address",
        "numberOfBytes": "20"
      },
      "t_contract(IChainlinkAggregator)4311": {
        "encoding": "inplace",
        "label": "contract IChainlinkAggregator",
        "numberOfBytes": "20"
      },
      "t_contract(ISwapRouter)2441": {
        "encoding": "inplace",
        "label": "contract ISwapRouter",
        "numberOfBytes": "20"
      },
      "t_uint24": {
        "encoding": "inplace",
        "label": "uint24",
        "numberOfBytes": "3"
      },
      "t_uint256": {
        "encoding": "inplace",
        "label": "uint256",
        "numberOfBytes": "32"
      }
    }
  }
}